{
  "address": "0xF09d5a398239b32071c33945bFcdA29BCb0B842A",
  "abi": [
    {
      "inputs": [
        {
          "internalType": "string",
          "name": "_tld",
          "type": "string"
        },
        {
          "internalType": "address",
          "name": "_trustedForwarder",
          "type": "address"
        }
      ],
      "stateMutability": "payable",
      "type": "constructor"
    },
    {
      "inputs": [],
      "name": "AlreadyRegistered",
      "type": "error"
    },
    {
      "inputs": [
        {
          "internalType": "string",
          "name": "name",
          "type": "string"
        }
      ],
      "name": "InvalidName",
      "type": "error"
    },
    {
      "inputs": [],
      "name": "Unauthorized",
      "type": "error"
    },
    {
      "anonymous": false,
      "inputs": [
        {
          "indexed": true,
          "internalType": "address",
          "name": "owner",
          "type": "address"
        },
        {
          "indexed": true,
          "internalType": "address",
          "name": "approved",
          "type": "address"
        },
        {
          "indexed": true,
          "internalType": "uint256",
          "name": "tokenId",
          "type": "uint256"
        }
      ],
      "name": "Approval",
      "type": "event"
    },
    {
      "anonymous": false,
      "inputs": [
        {
          "indexed": true,
          "internalType": "address",
          "name": "owner",
          "type": "address"
        },
        {
          "indexed": true,
          "internalType": "address",
          "name": "operator",
          "type": "address"
        },
        {
          "indexed": false,
          "internalType": "bool",
          "name": "approved",
          "type": "bool"
        }
      ],
      "name": "ApprovalForAll",
      "type": "event"
    },
    {
      "anonymous": false,
      "inputs": [
        {
          "indexed": false,
          "internalType": "uint256",
          "name": "_fromTokenId",
          "type": "uint256"
        },
        {
          "indexed": false,
          "internalType": "uint256",
          "name": "_toTokenId",
          "type": "uint256"
        }
      ],
      "name": "BatchMetadataUpdate",
      "type": "event"
    },
    {
      "anonymous": false,
      "inputs": [
        {
          "indexed": false,
          "internalType": "uint256",
          "name": "_tokenId",
          "type": "uint256"
        }
      ],
      "name": "MetadataUpdate",
      "type": "event"
    },
    {
      "anonymous": false,
      "inputs": [
        {
          "indexed": false,
          "internalType": "address",
          "name": "owner",
          "type": "address"
        },
        {
          "indexed": false,
          "internalType": "string",
          "name": "name",
          "type": "string"
        }
      ],
      "name": "Register",
      "type": "event"
    },
    {
      "anonymous": false,
      "inputs": [
        {
          "indexed": false,
          "internalType": "address",
          "name": "owner",
          "type": "address"
        },
        {
          "indexed": false,
          "internalType": "string",
          "name": "name",
          "type": "string"
        },
        {
          "indexed": false,
          "internalType": "string",
          "name": "record",
          "type": "string"
        }
      ],
      "name": "SetRecord",
      "type": "event"
    },
    {
      "anonymous": false,
      "inputs": [
        {
          "indexed": true,
          "internalType": "address",
          "name": "from",
          "type": "address"
        },
        {
          "indexed": true,
          "internalType": "address",
          "name": "to",
          "type": "address"
        },
        {
          "indexed": true,
          "internalType": "uint256",
          "name": "tokenId",
          "type": "uint256"
        }
      ],
      "name": "Transfer",
      "type": "event"
    },
    {
      "inputs": [
        {
          "internalType": "address",
          "name": "to",
          "type": "address"
        },
        {
          "internalType": "uint256",
          "name": "tokenId",
          "type": "uint256"
        }
      ],
      "name": "approve",
      "outputs": [],
      "stateMutability": "nonpayable",
      "type": "function"
    },
    {
      "inputs": [
        {
          "internalType": "address",
          "name": "owner",
          "type": "address"
        }
      ],
      "name": "balanceOf",
      "outputs": [
        {
          "internalType": "uint256",
          "name": "",
          "type": "uint256"
        }
      ],
      "stateMutability": "view",
      "type": "function"
    },
    {
      "inputs": [
        {
          "internalType": "string",
          "name": "_name",
          "type": "string"
        }
      ],
      "name": "checkRegistered",
      "outputs": [
        {
          "internalType": "bool",
          "name": "",
          "type": "bool"
        }
      ],
      "stateMutability": "view",
      "type": "function"
    },
    {
      "inputs": [
        {
          "internalType": "string",
          "name": "",
          "type": "string"
        }
      ],
      "name": "domains",
      "outputs": [
        {
          "internalType": "address",
          "name": "",
          "type": "address"
        }
      ],
      "stateMutability": "view",
      "type": "function"
    },
    {
      "inputs": [
        {
          "internalType": "string",
          "name": "name",
          "type": "string"
        }
      ],
      "name": "getAddress",
      "outputs": [
        {
          "internalType": "address",
          "name": "",
          "type": "address"
        }
      ],
      "stateMutability": "view",
      "type": "function"
    },
    {
      "inputs": [],
      "name": "getAllNames",
      "outputs": [
        {
          "internalType": "string[]",
          "name": "",
          "type": "string[]"
        }
      ],
      "stateMutability": "view",
      "type": "function"
    },
    {
      "inputs": [
        {
          "internalType": "uint256",
          "name": "tokenId",
          "type": "uint256"
        }
      ],
      "name": "getApproved",
      "outputs": [
        {
          "internalType": "address",
          "name": "",
          "type": "address"
        }
      ],
      "stateMutability": "view",
      "type": "function"
    },
    {
      "inputs": [
        {
          "internalType": "string",
          "name": "name",
          "type": "string"
        }
      ],
      "name": "getRecord",
      "outputs": [
        {
          "internalType": "string",
          "name": "",
          "type": "string"
        }
      ],
      "stateMutability": "view",
      "type": "function"
    },
    {
      "inputs": [
        {
          "internalType": "address",
          "name": "owner",
          "type": "address"
        },
        {
          "internalType": "address",
          "name": "operator",
          "type": "address"
        }
      ],
      "name": "isApprovedForAll",
      "outputs": [
        {
          "internalType": "bool",
          "name": "",
          "type": "bool"
        }
      ],
      "stateMutability": "view",
      "type": "function"
    },
    {
      "inputs": [],
      "name": "isOwner",
      "outputs": [
        {
          "internalType": "bool",
          "name": "",
          "type": "bool"
        }
      ],
      "stateMutability": "view",
      "type": "function"
    },
    {
      "inputs": [
        {
          "internalType": "address",
          "name": "forwarder",
          "type": "address"
        }
      ],
      "name": "isTrustedForwarder",
      "outputs": [
        {
          "internalType": "bool",
          "name": "",
          "type": "bool"
        }
      ],
      "stateMutability": "view",
      "type": "function"
    },
    {
      "inputs": [],
      "name": "name",
      "outputs": [
        {
          "internalType": "string",
          "name": "",
          "type": "string"
        }
      ],
      "stateMutability": "view",
      "type": "function"
    },
    {
      "inputs": [
        {
          "internalType": "uint256",
          "name": "",
          "type": "uint256"
        }
      ],
      "name": "names",
      "outputs": [
        {
          "internalType": "string",
          "name": "",
          "type": "string"
        }
      ],
      "stateMutability": "view",
      "type": "function"
    },
    {
      "inputs": [],
      "name": "owner",
      "outputs": [
        {
          "internalType": "address payable",
          "name": "",
          "type": "address"
        }
      ],
      "stateMutability": "view",
      "type": "function"
    },
    {
      "inputs": [
        {
          "internalType": "uint256",
          "name": "tokenId",
          "type": "uint256"
        }
      ],
      "name": "ownerOf",
      "outputs": [
        {
          "internalType": "address",
          "name": "",
          "type": "address"
        }
      ],
      "stateMutability": "view",
      "type": "function"
    },
    {
      "inputs": [
        {
          "internalType": "string",
          "name": "name",
          "type": "string"
        }
      ],
      "name": "price",
      "outputs": [
        {
          "internalType": "uint256",
          "name": "",
          "type": "uint256"
        }
      ],
      "stateMutability": "pure",
      "type": "function"
    },
    {
      "inputs": [
        {
          "internalType": "string",
          "name": "",
          "type": "string"
        }
      ],
      "name": "records",
      "outputs": [
        {
          "internalType": "string",
          "name": "",
          "type": "string"
        }
      ],
      "stateMutability": "view",
      "type": "function"
    },
    {
      "inputs": [
        {
          "internalType": "string",
          "name": "name",
          "type": "string"
        }
      ],
      "name": "register",
      "outputs": [],
      "stateMutability": "payable",
      "type": "function"
    },
    {
      "inputs": [
        {
          "internalType": "address",
          "name": "from",
          "type": "address"
        },
        {
          "internalType": "address",
          "name": "to",
          "type": "address"
        },
        {
          "internalType": "uint256",
          "name": "tokenId",
          "type": "uint256"
        }
      ],
      "name": "safeTransferFrom",
      "outputs": [],
      "stateMutability": "nonpayable",
      "type": "function"
    },
    {
      "inputs": [
        {
          "internalType": "address",
          "name": "from",
          "type": "address"
        },
        {
          "internalType": "address",
          "name": "to",
          "type": "address"
        },
        {
          "internalType": "uint256",
          "name": "tokenId",
          "type": "uint256"
        },
        {
          "internalType": "bytes",
          "name": "data",
          "type": "bytes"
        }
      ],
      "name": "safeTransferFrom",
      "outputs": [],
      "stateMutability": "nonpayable",
      "type": "function"
    },
    {
      "inputs": [
        {
          "internalType": "address",
          "name": "operator",
          "type": "address"
        },
        {
          "internalType": "bool",
          "name": "approved",
          "type": "bool"
        }
      ],
      "name": "setApprovalForAll",
      "outputs": [],
      "stateMutability": "nonpayable",
      "type": "function"
    },
    {
      "inputs": [
        {
          "internalType": "string",
          "name": "name",
          "type": "string"
        },
        {
          "internalType": "string",
          "name": "record",
          "type": "string"
        }
      ],
      "name": "setRecord",
      "outputs": [],
      "stateMutability": "nonpayable",
      "type": "function"
    },
    {
      "inputs": [
        {
          "internalType": "bytes4",
          "name": "interfaceId",
          "type": "bytes4"
        }
      ],
      "name": "supportsInterface",
      "outputs": [
        {
          "internalType": "bool",
          "name": "",
          "type": "bool"
        }
      ],
      "stateMutability": "view",
      "type": "function"
    },
    {
      "inputs": [],
      "name": "symbol",
      "outputs": [
        {
          "internalType": "string",
          "name": "",
          "type": "string"
        }
      ],
      "stateMutability": "view",
      "type": "function"
    },
    {
      "inputs": [],
      "name": "tld",
      "outputs": [
        {
          "internalType": "string",
          "name": "",
          "type": "string"
        }
      ],
      "stateMutability": "view",
      "type": "function"
    },
    {
      "inputs": [
        {
          "internalType": "uint256",
          "name": "tokenId",
          "type": "uint256"
        }
      ],
      "name": "tokenURI",
      "outputs": [
        {
          "internalType": "string",
          "name": "",
          "type": "string"
        }
      ],
      "stateMutability": "view",
      "type": "function"
    },
    {
      "inputs": [
        {
          "internalType": "address",
          "name": "from",
          "type": "address"
        },
        {
          "internalType": "address",
          "name": "to",
          "type": "address"
        },
        {
          "internalType": "uint256",
          "name": "tokenId",
          "type": "uint256"
        }
      ],
      "name": "transferFrom",
      "outputs": [],
      "stateMutability": "nonpayable",
      "type": "function"
    },
    {
      "inputs": [],
      "name": "withdraw",
      "outputs": [],
      "stateMutability": "nonpayable",
      "type": "function"
    }
  ],
  "transactionHash": "0x1f31983acff4276d1f19ac6811c43fba9d4a63efe52566d0b5af56b20ecdbfaf",
  "args": [
    "xcr",
    "0xacff3BF500e0E9F7734D39064B290873d80Fe749"
  ],
  "numDeployments": 6,
  "solcInputHash": "b6c0b41112ea0c0f8973e4cbc60b2dbc",
  "bytecode": "0x61094060405261086b60a0818152906200346660c03960089062000024908262000277565b5060408051808201909152600d81526c1e17ba32bc3a1f1e17b9bb339f60991b602082015260099062000058908262000277565b5060405162003cf438038062003cf48339810160408190526200007b9162000386565b8060405180606001604052806023815260200162003cd16023913960408051808201909152600381526221a22760e91b60208201526000620000be838262000277565b506001620000cd828262000277565b5050506001600160a01b0316608052600b80546001600160a01b03191633179055600a620000fc838262000277565b5060408051808201909152601881527f2573206e616d652073657276696365206465706c6f796564000000000000000060208201526200013d908362000145565b5050620004b3565b6200019282826040516024016200015e92919062000481565b60408051601f198184030181529190526020810180516001600160e01b03908116634b5c427760e01b179091526200019616565b5050565b620001ac81620001af60201b620014421760201c565b50565b60006a636f6e736f6c652e6c6f679050600080835160208501845afa505050565b634e487b7160e01b600052604160045260246000fd5b600181811c90821680620001fb57607f821691505b6020821081036200021c57634e487b7160e01b600052602260045260246000fd5b50919050565b601f82111562000272576000816000526020600020601f850160051c810160208610156200024d5750805b601f850160051c820191505b818110156200026e5782815560010162000259565b5050505b505050565b81516001600160401b03811115620002935762000293620001d0565b620002ab81620002a48454620001e6565b8462000222565b602080601f831160018114620002e35760008415620002ca5750858301515b600019600386901b1c1916600185901b1785556200026e565b600085815260208120601f198616915b828110156200031457888601518255948401946001909101908401620002f3565b5085821015620003335787850151600019600388901b60f8161c191681555b5050505050600190811b01905550565b60005b838110156200036057818101518382015260200162000346565b50506000910152565b80516001600160a01b03811681146200038157600080fd5b919050565b600080604083850312156200039a57600080fd5b82516001600160401b0380821115620003b257600080fd5b818501915085601f830112620003c757600080fd5b815181811115620003dc57620003dc620001d0565b604051601f8201601f19908116603f01168101908382118183101715620004075762000407620001d0565b816040528281528860208487010111156200042157600080fd5b6200043483602083016020880162000343565b80965050505050506200044a6020840162000369565b90509250929050565b600081518084526200046d81602086016020860162000343565b601f01601f19169290920160200192915050565b60408152600062000496604083018562000453565b8281036020840152620004aa818562000453565b95945050505050565b608051612f97620004cf6000396000610a310152612f976000f3fe6080604052600436106101b75760003560e01c80636fc0bb05116100ec578063bf40fac11161008a578063e985e9c511610064578063e985e9c5146104fb578063f2c298be14610544578063fb825e5f14610557578063fe2c61981461057957600080fd5b8063bf40fac11461049b578063c1880a98146104bb578063c87b56dd146104db57600080fd5b80638f32d59b116100c65780638f32d59b1461042657806395d89b4114610446578063a22cb4651461045b578063b88d4fde1461047b57600080fd5b80636fc0bb05146103b857806370a08231146103d85780638da5cb5b1461040657600080fd5b80632d551432116101595780634622ab03116101335780634622ab0314610338578063541e771d14610358578063572b6c05146103785780636352211e1461039857600080fd5b80632d551432146102ee5780633ccfd60b1461030357806342842e0e1461031857600080fd5b8063095ea7b311610195578063095ea7b31461024b57806311dd88451461026d57806323b872dd1461028d57806326449235146102ad57600080fd5b806301ffc9a7146101bc57806306fdde03146101f1578063081812fc14610213575b600080fd5b3480156101c857600080fd5b506101dc6101d736600461228d565b610599565b60405190151581526020015b60405180910390f35b3480156101fd57600080fd5b506102066105c4565b6040516101e891906122fa565b34801561021f57600080fd5b5061023361022e36600461230d565b610656565b6040516001600160a01b0390911681526020016101e8565b34801561025757600080fd5b5061026b61026636600461233d565b61067d565b005b34801561027957600080fd5b506102066102883660046123b0565b6107a9565b34801561029957600080fd5b5061026b6102a83660046123f2565b61085c565b3480156102b957600080fd5b506102336102c83660046124ba565b8051602081830181018051600c825292820191909301209152546001600160a01b031681565b3480156102fa57600080fd5b50610206610894565b34801561030f57600080fd5b5061026b610922565b34801561032457600080fd5b5061026b6103333660046123f2565b6109d7565b34801561034457600080fd5b5061020661035336600461230d565b6109f2565b34801561036457600080fd5b506102066103733660046124ba565b610a0b565b34801561038457600080fd5b506101dc610393366004612503565b610a2f565b3480156103a457600080fd5b506102336103b336600461230d565b610a61565b3480156103c457600080fd5b506101dc6103d33660046124ba565b610ac1565b3480156103e457600080fd5b506103f86103f3366004612503565b610b10565b6040519081526020016101e8565b34801561041257600080fd5b50600b54610233906001600160a01b031681565b34801561043257600080fd5b50600b546001600160a01b031633146101dc565b34801561045257600080fd5b50610206610b96565b34801561046757600080fd5b5061026b61047636600461251e565b610ba5565b34801561048757600080fd5b5061026b61049636600461255a565b610bb7565b3480156104a757600080fd5b506102336104b63660046123b0565b610bf6565b3480156104c757600080fd5b5061026b6104d63660046125d6565b610c2b565b3480156104e757600080fd5b506102066104f636600461230d565b610ceb565b34801561050757600080fd5b506101dc610516366004612642565b6001600160a01b03918216600090815260056020908152604080832093909416825291909152205460ff1690565b61026b6105523660046123b0565b610dfb565b34801561056357600080fd5b5061056c6111f0565b6040516101e89190612675565b34801561058557600080fd5b506103f86105943660046123b0565b6113b1565b60006001600160e01b03198216632483248360e11b14806105be57506105be82611463565b92915050565b6060600080546105d3906126d9565b80601f01602080910402602001604051908101604052809291908181526020018280546105ff906126d9565b801561064c5780601f106106215761010080835404028352916020019161064c565b820191906000526020600020905b81548152906001019060200180831161062f57829003601f168201915b5050505050905090565b6000610661826114b3565b506000908152600460205260409020546001600160a01b031690565b600061068882610a61565b9050806001600160a01b0316836001600160a01b0316036106fa5760405162461bcd60e51b815260206004820152602160248201527f4552433732313a20617070726f76616c20746f2063757272656e74206f776e656044820152603960f91b60648201526084015b60405180910390fd5b806001600160a01b031661070c611515565b6001600160a01b03161480610728575061072881610516611515565b61079a5760405162461bcd60e51b815260206004820152603d60248201527f4552433732313a20617070726f76652063616c6c6572206973206e6f7420746f60448201527f6b656e206f776e6572206f7220617070726f76656420666f7220616c6c00000060648201526084016106f1565b6107a4838361153f565b505050565b6060600d83836040516107bd92919061270d565b908152602001604051809103902080546107d6906126d9565b80601f0160208091040260200160405190810160405280929190818152602001828054610802906126d9565b801561084f5780601f106108245761010080835404028352916020019161084f565b820191906000526020600020905b81548152906001019060200180831161083257829003601f168201915b5050505050905092915050565b61086d610867611515565b826115ad565b6108895760405162461bcd60e51b81526004016106f19061271d565b6107a483838361162b565b600a80546108a1906126d9565b80601f01602080910402602001604051908101604052809291908181526020018280546108cd906126d9565b801561091a5780601f106108ef5761010080835404028352916020019161091a565b820191906000526020600020905b8154815290600101906020018083116108fd57829003601f168201915b505050505081565b600b546001600160a01b0316331461093957600080fd5b6040514790600090339083908381818185875af1925050503d806000811461097d576040519150601f19603f3d011682016040523d82523d6000602084013e610982565b606091505b50509050806109d35760405162461bcd60e51b815260206004820152601860248201527f4661696c656420746f207769746864726177204d61746963000000000000000060448201526064016106f1565b5050565b6107a483838360405180602001604052806000815250610bb7565b600e60205260009081526040902080546108a1906126d9565b8051602081830181018051600d82529282019190930120915280546108a1906126d9565b7f00000000000000000000000000000000000000000000000000000000000000006001600160a01b0390811691161490565b6000818152600260205260408120546001600160a01b0316806105be5760405162461bcd60e51b8152602060048201526018602482015277115490cdcc8c4e881a5b9d985b1a59081d1bdad95b88125160421b60448201526064016106f1565b6000806001600160a01b0316600c83604051610add919061276a565b908152604051908190036020019020546001600160a01b031603610b0357506001919050565b506000919050565b919050565b60006001600160a01b038216610b7a5760405162461bcd60e51b815260206004820152602960248201527f4552433732313a2061646472657373207a65726f206973206e6f7420612076616044820152683634b21037bbb732b960b91b60648201526084016106f1565b506001600160a01b031660009081526003602052604090205490565b6060600180546105d3906126d9565b6109d3610bb0611515565b838361178f565b610bc8610bc2611515565b836115ad565b610be45760405162461bcd60e51b81526004016106f19061271d565b610bf08484848461185d565b50505050565b6000600c8383604051610c0a92919061270d565b908152604051908190036020019020546001600160a01b0316905092915050565b600c8484604051610c3d92919061270d565b90815260405190819003602001902054336001600160a01b0390911614610c76576040516282b42960e81b815260040160405180910390fd5b8181600d8686604051610c8a92919061270d565b90815260200160405180910390209182610ca59291906127d6565b507f0eeb47f1c4b5cf67d1615dac4f20b4072bf588c02f4575b0f658354982de710e3385858585604051610cdd9594939291906128c0565b60405180910390a150505050565b6060610cf6826114b3565b60008281526006602052604081208054610d0f906126d9565b80601f0160208091040260200160405190810160405280929190818152602001828054610d3b906126d9565b8015610d885780601f10610d5d57610100808354040283529160200191610d88565b820191906000526020600020905b815481529060010190602001808311610d6b57829003601f168201915b505050505090506000610da660408051602081019091526000815290565b90508051600003610db8575092915050565b815115610dea578082604051602001610dd2929190612904565b60405160208183030381529060405292505050919050565b610df384611890565b949350505050565b60006001600160a01b0316600c8383604051610e1892919061270d565b908152604051908190036020019020546001600160a01b031614610e4f57604051630ea075bf60e21b815260040160405180910390fd5b610e598282611904565b610e7a578181604051637f19f48d60e01b81526004016106f1929190612933565b6000610e8683836113b1565b905080341015610ece5760405162461bcd60e51b8152602060048201526013602482015272139bdd08195b9bdd59da081610d4881c185a59606a1b60448201526064016106f1565b60008383600a604051602001610ee6939291906129ba565b604051602081830303815290604052905060006008826009604051602001610f10939291906129e1565b60405160208183030381529060405290506000610f2c60075490565b90506000610f6f87878080601f01602080910402602001604051908101604052809392919081815260200183838082843760009201919091525061199a92505050565b90506000610f7c82611a9d565b9050611063604051806060016040528060318152602001612eb86031913989898080601f01602080910402602001604051908101604052809392919081815260200183838082843760009201919091525050600a8054909250610fdf91506126d9565b80601f016020809104026020016040519081016040528092919081815260200182805461100b906126d9565b80156110585780601f1061102d57610100808354040283529160200191611058565b820191906000526020600020905b81548152906001019060200180831161103b57829003601f168201915b505050505086611b30565b60006110998661107287611b79565b8460405160200161108593929190612a14565b604051602081830303815290604052611b79565b90506000816040516020016110ae9190612b22565b60408051601f198184030181526060830190915260398083529092506110dc9190612e7f6020830139611ce3565b61110c6040518060400160405280600e81526020016d46696e616c20746f6b656e55524960901b81525082611d26565b61112d604051806060016040528060398152602001612ee960399139611ce3565b6111373386611d6b565b6111418582611d85565b33600c8b8b60405161115492919061270d565b908152604080516020928190038301902080546001600160a01b0319166001600160a01b0394909416939093179092556000878152600e9091522061119a8a8c836127d6565b506111a9600780546001019055565b7f6ba0831d2f62ae5cbf7214bcc1d79c5da1d705f12811efda0beaa840006f874e338b8b6040516111dc93929190612b67565b60405180910390a150505050505050505050565b60606112306040518060400160405280601f81526020017f47657474696e6720616c6c206e616d65732066726f6d20636f6e747261637400815250611ce3565b600061123b60075490565b67ffffffffffffffff8111156112535761125361242e565b60405190808252806020026020018201604052801561128657816020015b60608152602001906001900390816112715790505b50905060005b6007548110156113ab576000818152600e6020526040902080546112af906126d9565b80601f01602080910402602001604051908101604052809291908181526020018280546112db906126d9565b80156113285780601f106112fd57610100808354040283529160200191611328565b820191906000526020600020905b81548152906001019060200180831161130b57829003601f168201915b505050505082828151811061133f5761133f612b95565b60200260200101819052506113a36040518060400160405280601781526020017f4e616d6520666f7220746f6b656e2025642069732025730000000000000000008152508284848151811061139657611396612b95565b6020026020010151611e50565b60010161128c565b50919050565b6000806113f384848080601f01602080910402602001604051908101604052809392919081815260200183838082843760009201919091525061199a92505050565b90506000811161140257600080fd5b8060030361141a5766038d7ea4c680009150506105be565b8060040361143257660aa87bee5380009150506105be565b6611c37937e080009150506105be565b60006a636f6e736f6c652e6c6f679050600080835160208501845afa505050565b60006001600160e01b031982166380ac58cd60e01b148061149457506001600160e01b03198216635b5e139f60e01b145b806105be57506301ffc9a760e01b6001600160e01b03198316146105be565b6000818152600260205260409020546001600160a01b03166115125760405162461bcd60e51b8152602060048201526018602482015277115490cdcc8c4e881a5b9d985b1a59081d1bdad95b88125160421b60448201526064016106f1565b50565b600061152033610a2f565b15611532575060131936013560601c90565b61153a611e97565b905090565b600081815260046020526040902080546001600160a01b0319166001600160a01b038416908117909155819061157482610a61565b6001600160a01b03167f8c5be1e5ebec7d5bd14f71427d1e84f3dd0314c0f7b2291e5b200ac8c7c3b92560405160405180910390a45050565b6000806115b983610a61565b9050806001600160a01b0316846001600160a01b0316148061160057506001600160a01b0380821660009081526005602090815260408083209388168352929052205460ff165b80610df35750836001600160a01b031661161984610656565b6001600160a01b031614949350505050565b826001600160a01b031661163e82610a61565b6001600160a01b0316146116645760405162461bcd60e51b81526004016106f190612bab565b6001600160a01b0382166116c65760405162461bcd60e51b8152602060048201526024808201527f4552433732313a207472616e7366657220746f20746865207a65726f206164646044820152637265737360e01b60648201526084016106f1565b826001600160a01b03166116d982610a61565b6001600160a01b0316146116ff5760405162461bcd60e51b81526004016106f190612bab565b600081815260046020908152604080832080546001600160a01b03199081169091556001600160a01b0387811680865260038552838620805460001901905590871680865283862080546001019055868652600290945282852080549092168417909155905184937fddf252ad1be2c89b69c2b068fc378daa952ba7f163c4a11628f55a4df523b3ef91a4505050565b816001600160a01b0316836001600160a01b0316036117f05760405162461bcd60e51b815260206004820152601960248201527f4552433732313a20617070726f766520746f2063616c6c65720000000000000060448201526064016106f1565b6001600160a01b03838116600081815260056020908152604080832094871680845294825291829020805460ff191686151590811790915591519182527f17307eab39ab6107e8899845ad3d59bd9653f200f220920489ca2b5937696c31910160405180910390a3505050565b61186884848461162b565b61187484848484611ec6565b610bf05760405162461bcd60e51b81526004016106f190612bf0565b606061189b826114b3565b60006118b260408051602081019091526000815290565b905060008151116118d257604051806020016040528060008152506118fd565b806118dc84611a9d565b6040516020016118ed929190612904565b6040516020818303038152906040525b9392505050565b6000600361194784848080601f01602080910402602001604051908101604052809392919081815260200183838082843760009201919091525061199a92505050565b101580156118fd5750600a61199184848080601f01602080910402602001604051908101604052809392919081815260200183838082843760009201919091525061199a92505050565b11159392505050565b8051600090819081905b80821015611a945760008583815181106119c0576119c0612b95565b01602001516001600160f81b0319169050600160ff1b8110156119ef576119e8600184612c58565b9250611a81565b600760fd1b6001600160f81b031982161015611a10576119e8600284612c58565b600f60fc1b6001600160f81b031982161015611a31576119e8600384612c58565b601f60fb1b6001600160f81b031982161015611a52576119e8600484612c58565b603f60fa1b6001600160f81b031982161015611a73576119e8600584612c58565b611a7e600684612c58565b92505b5082611a8c81612c6b565b9350506119a4565b50909392505050565b60606000611aaa83611fce565b600101905060008167ffffffffffffffff811115611aca57611aca61242e565b6040519080825280601f01601f191660200182016040528015611af4576020820181803683370190505b5090508181016020015b600019016f181899199a1a9b1b9c1cb0b131b232b360811b600a86061a8153600a8504945084611afe57509392505050565b610bf084848484604051602401611b4a9493929190612c84565b60408051601f198184030181529190526020810180516001600160e01b0316638eafb02b60e01b1790526120a6565b80516060906000819003611b9d575050604080516020810190915260008152919050565b60006003611bac836002612c58565b611bb69190612ccf565b611bc1906004612cf1565b90506000611bd0826020612c58565b67ffffffffffffffff811115611be857611be861242e565b6040519080825280601f01601f191660200182016040528015611c12576020820181803683370190505b5090506000604051806060016040528060408152602001612f22604091399050600181016020830160005b86811015611c9e576003818a01810151603f601282901c8116860151600c83901c8216870151600684901c831688015192909316870151600891821b60ff94851601821b92841692909201901b91160160e01b835260049092019101611c3d565b506003860660018114611cb85760028114611cc957611cd5565b613d3d60f01b600119830152611cd5565b603d60f81b6000198301525b505050918152949350505050565b61151281604051602401611cf791906122fa565b60408051601f198184030181529190526020810180516001600160e01b031663104c13eb60e21b1790526120a6565b6109d38282604051602401611d3c929190612d08565b60408051601f198184030181529190526020810180516001600160e01b0316634b5c427760e01b1790526120a6565b6109d38282604051806020016040528060008152506120af565b6000828152600260205260409020546001600160a01b0316611e005760405162461bcd60e51b815260206004820152602e60248201527f45524337323155524953746f726167653a2055524920736574206f66206e6f6e60448201526d32bc34b9ba32b73a103a37b5b2b760911b60648201526084016106f1565b6000828152600660205260409020611e188282612d2d565b506040518281527ff8e1a15aba9398e019f0b49df1a4fde98ee17ae345cb5f6b5e2c27f5033e8ce79060200160405180910390a15050565b6107a4838383604051602401611e6893929190612ded565b60408051601f198184030181529190526020810180516001600160e01b0316635970e08960e01b1790526120a6565b6000611ea233610a2f565b8015611eaf575060143610155b15611ec1575060131936013560601c90565b503390565b60006001600160a01b0384163b15611fc357836001600160a01b031663150b7a02611eef611515565b8786866040518563ffffffff1660e01b8152600401611f119493929190612e18565b6020604051808303816000875af1925050508015611f4c575060408051601f3d908101601f19168201909252611f4991810190612e4b565b60015b611fa9573d808015611f7a576040519150601f19603f3d011682016040523d82523d6000602084013e611f7f565b606091505b508051600003611fa15760405162461bcd60e51b81526004016106f190612bf0565b805181602001fd5b6001600160e01b031916630a85bd0160e11b149050610df3565b506001949350505050565b60008072184f03e93ff9f4daa797ed6e38ed64bf6a1f0160401b831061200d5772184f03e93ff9f4daa797ed6e38ed64bf6a1f0160401b830492506040015b6d04ee2d6d415b85acef81000000008310612039576d04ee2d6d415b85acef8100000000830492506020015b662386f26fc10000831061205757662386f26fc10000830492506010015b6305f5e100831061206f576305f5e100830492506008015b612710831061208357612710830492506004015b60648310612095576064830492506002015b600a83106105be5760010192915050565b61151281611442565b6120b983836120e2565b6120c66000848484611ec6565b6107a45760405162461bcd60e51b81526004016106f190612bf0565b6001600160a01b0382166121385760405162461bcd60e51b815260206004820181905260248201527f4552433732313a206d696e7420746f20746865207a65726f206164647265737360448201526064016106f1565b6000818152600260205260409020546001600160a01b03161561219d5760405162461bcd60e51b815260206004820152601c60248201527f4552433732313a20746f6b656e20616c7265616479206d696e7465640000000060448201526064016106f1565b6000818152600260205260409020546001600160a01b0316156122025760405162461bcd60e51b815260206004820152601c60248201527f4552433732313a20746f6b656e20616c7265616479206d696e7465640000000060448201526064016106f1565b6001600160a01b038216600081815260036020908152604080832080546001019055848352600290915280822080546001600160a01b0319168417905551839291907fddf252ad1be2c89b69c2b068fc378daa952ba7f163c4a11628f55a4df523b3ef908290a45050565b612275612e68565b565b6001600160e01b03198116811461151257600080fd5b60006020828403121561229f57600080fd5b81356118fd81612277565b60005b838110156122c55781810151838201526020016122ad565b50506000910152565b600081518084526122e68160208601602086016122aa565b601f01601f19169290920160200192915050565b6020815260006118fd60208301846122ce565b60006020828403121561231f57600080fd5b5035919050565b80356001600160a01b0381168114610b0b57600080fd5b6000806040838503121561235057600080fd5b61235983612326565b946020939093013593505050565b60008083601f84011261237957600080fd5b50813567ffffffffffffffff81111561239157600080fd5b6020830191508360208285010111156123a957600080fd5b9250929050565b600080602083850312156123c357600080fd5b823567ffffffffffffffff8111156123da57600080fd5b6123e685828601612367565b90969095509350505050565b60008060006060848603121561240757600080fd5b61241084612326565b925061241e60208501612326565b9150604084013590509250925092565b634e487b7160e01b600052604160045260246000fd5b600067ffffffffffffffff8084111561245f5761245f61242e565b604051601f8501601f19908116603f011681019082821181831017156124875761248761242e565b816040528093508581528686860111156124a057600080fd5b858560208301376000602087830101525050509392505050565b6000602082840312156124cc57600080fd5b813567ffffffffffffffff8111156124e357600080fd5b8201601f810184136124f457600080fd5b610df384823560208401612444565b60006020828403121561251557600080fd5b6118fd82612326565b6000806040838503121561253157600080fd5b61253a83612326565b91506020830135801515811461254f57600080fd5b809150509250929050565b6000806000806080858703121561257057600080fd5b61257985612326565b935061258760208601612326565b925060408501359150606085013567ffffffffffffffff8111156125aa57600080fd5b8501601f810187136125bb57600080fd5b6125ca87823560208401612444565b91505092959194509250565b600080600080604085870312156125ec57600080fd5b843567ffffffffffffffff8082111561260457600080fd5b61261088838901612367565b9096509450602087013591508082111561262957600080fd5b5061263687828801612367565b95989497509550505050565b6000806040838503121561265557600080fd5b61265e83612326565b915061266c60208401612326565b90509250929050565b600060208083016020845280855180835260408601915060408160051b87010192506020870160005b828110156126cc57603f198886030184526126ba8583516122ce565b9450928501929085019060010161269e565b5092979650505050505050565b600181811c908216806126ed57607f821691505b6020821081036113ab57634e487b7160e01b600052602260045260246000fd5b8183823760009101908152919050565b6020808252602d908201527f4552433732313a2063616c6c6572206973206e6f7420746f6b656e206f776e6560408201526c1c881bdc88185c1c1c9bdd9959609a1b606082015260800190565b6000825161277c8184602087016122aa565b9190910192915050565b601f8211156107a4576000816000526020600020601f850160051c810160208610156127af5750805b601f850160051c820191505b818110156127ce578281556001016127bb565b505050505050565b67ffffffffffffffff8311156127ee576127ee61242e565b612802836127fc83546126d9565b83612786565b6000601f841160018114612836576000851561281e5750838201355b600019600387901b1c1916600186901b178355612890565b600083815260209020601f19861690835b828110156128675786850135825560209485019460019092019101612847565b50868210156128845760001960f88860031b161c19848701351681555b505060018560011b0183555b5050505050565b81835281816020850137506000828201602090810191909152601f909101601f19169091010190565b6001600160a01b03861681526060602082018190526000906128e59083018688612897565b82810360408401526128f8818587612897565b98975050505050505050565b600083516129168184602088016122aa565b83519083019061292a8183602088016122aa565b01949350505050565b602081526000610df3602083018486612897565b60008154612954816126d9565b6001828116801561296c5760018114612981576129b0565b60ff19841687528215158302870194506129b0565b8560005260208060002060005b858110156129a75781548a82015290840190820161298e565b50505082870194505b5050505092915050565b828482376000838201601760f91b81526129d76001820185612947565b9695505050505050565b60006129ed8286612947565b84516129fd8183602089016122aa565b612a0981830186612947565b979650505050505050565b693d913730b6b2911d101160b11b81528351600090612a3a81600a8501602089016122aa565b7f222c20226465736372697074696f6e223a20224120646f6d61696e206f6e2074600a918401918201527f68652043726f737356616c7565436861696e20446f6d61696e206e616d652073602a8201527f657276696365222c2022696d616765223a2022646174613a696d6167652f7376604a8201526c19cade1b5b0ed8985cd94d8d0b609a1b606a8201528451612ad98160778401602089016122aa565b6b1116113632b733ba34111d1160a11b607792909101918201528351612b068160838401602088016122aa565b61227d60f01b6083929091019182015260850195945050505050565b7f646174613a6170706c69636174696f6e2f6a736f6e3b6261736536342c000000815260008251612b5a81601d8501602087016122aa565b91909101601d0192915050565b6001600160a01b0384168152604060208201819052600090612b8c9083018486612897565b95945050505050565b634e487b7160e01b600052603260045260246000fd5b60208082526025908201527f4552433732313a207472616e736665722066726f6d20696e636f72726563742060408201526437bbb732b960d91b606082015260800190565b60208082526032908201527f4552433732313a207472616e7366657220746f206e6f6e20455243373231526560408201527131b2b4bb32b91034b6b83632b6b2b73a32b960711b606082015260800190565b634e487b7160e01b600052601160045260246000fd5b808201808211156105be576105be612c42565b600060018201612c7d57612c7d612c42565b5060010190565b608081526000612c9760808301876122ce565b8281036020840152612ca981876122ce565b90508281036040840152612cbd81866122ce565b91505082606083015295945050505050565b600082612cec57634e487b7160e01b600052601260045260246000fd5b500490565b80820281158282048414176105be576105be612c42565b604081526000612d1b60408301856122ce565b8281036020840152612b8c81856122ce565b815167ffffffffffffffff811115612d4757612d4761242e565b612d5b81612d5584546126d9565b84612786565b602080601f831160018114612d905760008415612d785750858301515b600019600386901b1c1916600185901b1785556127ce565b600085815260208120601f198616915b82811015612dbf57888601518255948401946001909101908401612da0565b5085821015612ddd5787850151600019600388901b60f8161c191681555b5050505050600190811b01905550565b606081526000612e0060608301866122ce565b84602084015282810360408401526129d781856122ce565b6001600160a01b03858116825284166020820152604081018390526080606082018190526000906129d7908301846122ce565b600060208284031215612e5d57600080fd5b81516118fd81612277565b634e487b7160e01b600052605160045260246000fdfe0a2d2d2d2d2d2d2d2d2d2d2d2d2d2d2d2d2d2d2d2d2d2d2d2d2d2d2d2d2d2d2d2d2d2d2d2d2d2d2d2d2d2d2d2d2d2d2d2d2d2d2d2d2d2d2d2d5265676973746572696e672025732e2573206f6e2074686520636f6e7472616374207769746820746f6b656e49442025642d2d2d2d2d2d2d2d2d2d2d2d2d2d2d2d2d2d2d2d2d2d2d2d2d2d2d2d2d2d2d2d2d2d2d2d2d2d2d2d2d2d2d2d2d2d2d2d2d2d2d2d2d2d2d2d0a4142434445464748494a4b4c4d4e4f505152535455565758595a6162636465666768696a6b6c6d6e6f707172737475767778797a303132333435363738392b2fa26469706673582212200aef54bbc522f10ecbd390a5de9f289504fa7926f46a90b5593156d77198273364736f6c634300081800333c73766720786d6c6e733d22687474703a2f2f7777772e77332e6f72672f323030302f737667222077696474683d2232373022206865696768743d22323730222066696c6c3d226e6f6e65223e3c706174682066696c6c3d2275726c282342292220643d224d302030683237307632373048307a222f3e3c646566733e3c66696c7465722069643d22412220636f6c6f722d696e746572706f6c6174696f6e2d66696c746572733d2273524742222066696c746572556e6974733d227573657253706163654f6e55736522206865696768743d22323730222077696474683d22323730223e3c666544726f70536861646f772064783d2230222064793d22312220737464446576696174696f6e3d22322220666c6f6f642d6f7061636974793d222e323235222077696474683d223230302522206865696768743d2232303025222f3e3c2f66696c7465723e3c2f646566733e3c7061746820643d224d37322e3836332034322e393439632d2e3636382d2e3338372d312e3432362d2e35392d322e3139372d2e3539732d312e3532392e3230342d322e3139372e35396c2d31302e30383120362e3033322d362e383520332e3933342d31302e30383120362e303332632d2e3636382e3338372d312e3432362e35392d322e3139372e3539732d312e3532392d2e3230342d322e3139372d2e35396c2d382e3031332d342e37323161342e353220342e35322030203020312d312e3538392d312e363136632d2e3338342d2e3636352d2e3539342d312e3431382d2e3630382d322e313837762d392e3331632d2e3031332d2e3737352e3138352d312e3533382e3537322d322e32303861342e323520342e323520302030203120312e3632352d312e3539356c372e3838342d342e3539632e3636382d2e33383720312e3432362d2e353920322e3139372d2e353973312e3532392e32303420322e3139372e35396c372e38383420342e353961342e353220342e353220302030203120312e35383920312e363136632e3338342e3636352e35393420312e3431382e36303820322e31383776362e3033326c362e38352d342e303635762d362e303332632e3031332d2e3737352d2e3138352d312e3533382d2e3537322d322e32303861342e323520342e32352030203020302d312e3632352d312e3539354c34312e3435362032342e3539632d2e3636382d2e3338372d312e3432362d2e35392d322e3139372d2e3539732d312e3532392e3230342d322e3139372e35396c2d31342e38363420382e36353561342e323520342e32352030203020302d312e36323520312e353935632d2e3338372e36372d2e35383520312e3433342d2e35373220322e3230387631372e343431632d2e3031332e3737352e31383520312e3533382e35373220322e32303861342e323520342e323520302030203020312e36323520312e3539356c31342e38363420382e363535632e3636382e33383720312e3432362e353920322e3139372e353973312e3532392d2e32303420322e3139372d2e35396c31302e3038312d352e39303120362e38352d342e3036352031302e3038312d352e393031632e3636382d2e33383720312e3432362d2e353920322e3139372d2e353973312e3532392e32303420322e3139372e35396c372e38383420342e353961342e353220342e353220302030203120312e35383920312e363136632e3338342e3636352e35393420312e3431382e36303820322e31383776392e333131632e3031332e3737352d2e31383520312e3533382d2e35373220322e32303861342e323520342e32352030203020312d312e36323520312e3539356c2d372e38383420342e373231632d2e3636382e3338372d312e3432362e35392d322e3139372e3539732d312e3532392d2e3230342d322e3139372d2e35396c2d372e3838342d342e353961342e353220342e35322030203020312d312e3538392d312e363136632d2e3338352d2e3636352d2e3539342d312e3431382d2e3630382d322e313837762d362e3033326c2d362e383520342e30363576362e303332632d2e3031332e3737352e31383520312e3533382e35373220322e32303861342e323520342e323520302030203020312e36323520312e3539356c31342e38363420382e363535632e3636382e33383720312e3432362e353920322e3139372e353973312e3532392d2e32303420322e3139372d2e35396c31342e3836342d382e363535632e3635372d2e33393420312e3230342d2e393520312e3538392d312e363136732e3539342d312e3431382e3630392d322e3138375635352e353338632e3031332d2e3737352d2e3138352d312e3533382d2e3537322d322e32303861342e323520342e32352030203020302d312e3632352d312e3539356c2d31342e3939332d382e3738367a222066696c6c3d2223666666222f3e3c646566733e3c6c696e6561724772616469656e742069643d2242222078313d2230222079313d2230222078323d22323730222079323d2232373022206772616469656e74556e6974733d227573657253706163654f6e557365223e3c73746f702073746f702d636f6c6f723d2223636235656565222f3e3c73746f70206f66667365743d2231222073746f702d636f6c6f723d2223306364376534222073746f702d6f7061636974793d222e3939222f3e3c2f6c696e6561724772616469656e743e3c2f646566733e3c7465787420783d2233322e352220793d223233312220666f6e742d73697a653d223237222066696c6c3d2223666666222066696c7465723d2275726c282341292220666f6e742d66616d696c793d22506c7573204a616b617274612053616e732c44656a6156752053616e732c4e6f746f20436f6c6f7220456d6f6a692c4170706c6520436f6c6f7220456d6f6a692c73616e732d73657269662220666f6e742d7765696768743d22626f6c64223e43726f737356616c7565436861696e20446f6d61696e204e616d652053657276696365",
  "devdoc": {
    "events": {
      "Approval(address,address,uint256)": {
        "details": "Emitted when `owner` enables `approved` to manage the `tokenId` token."
      },
      "ApprovalForAll(address,address,bool)": {
        "details": "Emitted when `owner` enables or disables (`approved`) `operator` to manage all of its assets."
      },
      "BatchMetadataUpdate(uint256,uint256)": {
        "details": "This event emits when the metadata of a range of tokens is changed. So that the third-party platforms such as NFT market could timely update the images and related attributes of the NFTs."
      },
      "MetadataUpdate(uint256)": {
        "details": "This event emits when the metadata of a token is changed. So that the third-party platforms such as NFT market could timely update the images and related attributes of the NFT."
      },
      "Transfer(address,address,uint256)": {
        "details": "Emitted when `tokenId` token is transferred from `from` to `to`."
      }
    },
    "kind": "dev",
    "methods": {
      "approve(address,uint256)": {
        "details": "See {IERC721-approve}."
      },
      "balanceOf(address)": {
        "details": "See {IERC721-balanceOf}."
      },
      "constructor": {
        "params": {
          "_tld": ""
        }
      },
      "getAddress(string)": {
        "params": {
          "name": ""
        }
      },
      "getApproved(uint256)": {
        "details": "See {IERC721-getApproved}."
      },
      "getRecord(string)": {
        "params": {
          "name": ""
        }
      },
      "isApprovedForAll(address,address)": {
        "details": "See {IERC721-isApprovedForAll}."
      },
      "name()": {
        "details": "See {IERC721Metadata-name}."
      },
      "ownerOf(uint256)": {
        "details": "See {IERC721-ownerOf}."
      },
      "price(string)": {
        "params": {
          "name": ""
        }
      },
      "register(string)": {
        "params": {
          "name": ""
        }
      },
      "safeTransferFrom(address,address,uint256)": {
        "details": "See {IERC721-safeTransferFrom}."
      },
      "safeTransferFrom(address,address,uint256,bytes)": {
        "details": "See {IERC721-safeTransferFrom}."
      },
      "setApprovalForAll(address,bool)": {
        "details": "See {IERC721-setApprovalForAll}."
      },
      "setRecord(string,string)": {
        "params": {
          "name": "",
          "record": "ENS"
        }
      },
      "supportsInterface(bytes4)": {
        "details": "See {IERC165-supportsInterface}"
      },
      "symbol()": {
        "details": "See {IERC721Metadata-symbol}."
      },
      "tokenURI(uint256)": {
        "details": "See {IERC721Metadata-tokenURI}."
      },
      "transferFrom(address,address,uint256)": {
        "details": "See {IERC721-transferFrom}."
      }
    },
    "version": 1
  },
  "userdoc": {
    "kind": "user",
    "methods": {
      "checkRegistered(string)": {
        "notice": "checkRegistered "
      },
      "constructor": {
        "notice": ""
      },
      "getAddress(string)": {
        "notice": ""
      },
      "getAllNames()": {
        "notice": ""
      },
      "getRecord(string)": {
        "notice": "ENS"
      },
      "isOwner()": {
        "notice": "owner address"
      },
      "price(string)": {
        "notice": ""
      },
      "register(string)": {
        "notice": ""
      },
      "setRecord(string,string)": {
        "notice": ""
      },
      "withdraw()": {
        "notice": ""
      }
    },
    "notice": "Domains Cotract",
    "version": 1
  },
  "storageLayout": {
    "storage": [
      {
        "astId": 340,
        "contract": "contracts/Domains.sol:Domains",
        "label": "_name",
        "offset": 0,
        "slot": "0",
        "type": "t_string_storage"
      },
      {
        "astId": 342,
        "contract": "contracts/Domains.sol:Domains",
        "label": "_symbol",
        "offset": 0,
        "slot": "1",
        "type": "t_string_storage"
      },
      {
        "astId": 346,
        "contract": "contracts/Domains.sol:Domains",
        "label": "_owners",
        "offset": 0,
        "slot": "2",
        "type": "t_mapping(t_uint256,t_address)"
      },
      {
        "astId": 350,
        "contract": "contracts/Domains.sol:Domains",
        "label": "_balances",
        "offset": 0,
        "slot": "3",
        "type": "t_mapping(t_address,t_uint256)"
      },
      {
        "astId": 354,
        "contract": "contracts/Domains.sol:Domains",
        "label": "_tokenApprovals",
        "offset": 0,
        "slot": "4",
        "type": "t_mapping(t_uint256,t_address)"
      },
      {
        "astId": 360,
        "contract": "contracts/Domains.sol:Domains",
        "label": "_operatorApprovals",
        "offset": 0,
        "slot": "5",
        "type": "t_mapping(t_address,t_mapping(t_address,t_bool))"
      },
      {
        "astId": 1391,
        "contract": "contracts/Domains.sol:Domains",
        "label": "_tokenURIs",
        "offset": 0,
        "slot": "6",
        "type": "t_mapping(t_uint256,t_string_storage)"
      },
      {
        "astId": 4138,
        "contract": "contracts/Domains.sol:Domains",
        "label": "_tokenIds",
        "offset": 0,
        "slot": "7",
        "type": "t_struct(Counter)1916_storage"
      },
      {
        "astId": 4141,
        "contract": "contracts/Domains.sol:Domains",
        "label": "svgPartOne",
        "offset": 0,
        "slot": "8",
        "type": "t_string_storage"
      },
      {
        "astId": 4144,
        "contract": "contracts/Domains.sol:Domains",
        "label": "svgPartTwo",
        "offset": 0,
        "slot": "9",
        "type": "t_string_storage"
      },
      {
        "astId": 4146,
        "contract": "contracts/Domains.sol:Domains",
        "label": "tld",
        "offset": 0,
        "slot": "10",
        "type": "t_string_storage"
      },
      {
        "astId": 4148,
        "contract": "contracts/Domains.sol:Domains",
        "label": "owner",
        "offset": 0,
        "slot": "11",
        "type": "t_address_payable"
      },
      {
        "astId": 4152,
        "contract": "contracts/Domains.sol:Domains",
        "label": "domains",
        "offset": 0,
        "slot": "12",
        "type": "t_mapping(t_string_memory_ptr,t_address)"
      },
      {
        "astId": 4156,
        "contract": "contracts/Domains.sol:Domains",
        "label": "records",
        "offset": 0,
        "slot": "13",
        "type": "t_mapping(t_string_memory_ptr,t_string_storage)"
      },
      {
        "astId": 4160,
        "contract": "contracts/Domains.sol:Domains",
        "label": "names",
        "offset": 0,
        "slot": "14",
        "type": "t_mapping(t_uint256,t_string_storage)"
      }
    ],
    "types": {
      "t_address": {
        "encoding": "inplace",
        "label": "address",
        "numberOfBytes": "20"
      },
      "t_address_payable": {
        "encoding": "inplace",
        "label": "address payable",
        "numberOfBytes": "20"
      },
      "t_bool": {
        "encoding": "inplace",
        "label": "bool",
        "numberOfBytes": "1"
      },
      "t_mapping(t_address,t_bool)": {
        "encoding": "mapping",
        "key": "t_address",
        "label": "mapping(address => bool)",
        "numberOfBytes": "32",
        "value": "t_bool"
      },
      "t_mapping(t_address,t_mapping(t_address,t_bool))": {
        "encoding": "mapping",
        "key": "t_address",
        "label": "mapping(address => mapping(address => bool))",
        "numberOfBytes": "32",
        "value": "t_mapping(t_address,t_bool)"
      },
      "t_mapping(t_address,t_uint256)": {
        "encoding": "mapping",
        "key": "t_address",
        "label": "mapping(address => uint256)",
        "numberOfBytes": "32",
        "value": "t_uint256"
      },
      "t_mapping(t_string_memory_ptr,t_address)": {
        "encoding": "mapping",
        "key": "t_string_memory_ptr",
        "label": "mapping(string => address)",
        "numberOfBytes": "32",
        "value": "t_address"
      },
      "t_mapping(t_string_memory_ptr,t_string_storage)": {
        "encoding": "mapping",
        "key": "t_string_memory_ptr",
        "label": "mapping(string => string)",
        "numberOfBytes": "32",
        "value": "t_string_storage"
      },
      "t_mapping(t_uint256,t_address)": {
        "encoding": "mapping",
        "key": "t_uint256",
        "label": "mapping(uint256 => address)",
        "numberOfBytes": "32",
        "value": "t_address"
      },
      "t_mapping(t_uint256,t_string_storage)": {
        "encoding": "mapping",
        "key": "t_uint256",
        "label": "mapping(uint256 => string)",
        "numberOfBytes": "32",
        "value": "t_string_storage"
      },
      "t_string_memory_ptr": {
        "encoding": "bytes",
        "label": "string",
        "numberOfBytes": "32"
      },
      "t_string_storage": {
        "encoding": "bytes",
        "label": "string",
        "numberOfBytes": "32"
      },
      "t_struct(Counter)1916_storage": {
        "encoding": "inplace",
        "label": "struct Counters.Counter",
        "members": [
          {
            "astId": 1915,
            "contract": "contracts/Domains.sol:Domains",
            "label": "_value",
            "offset": 0,
            "slot": "0",
            "type": "t_uint256"
          }
        ],
        "numberOfBytes": "32"
      },
      "t_uint256": {
        "encoding": "inplace",
        "label": "uint256",
        "numberOfBytes": "32"
      }
    }
  }
}