{
  "address": "0xCa2d4842FB28190D0b68A5F620232685A2436CDe",
  "abi": [
    {
      "inputs": [
        {
          "internalType": "string",
          "name": "_tld",
          "type": "string"
        },
        {
          "internalType": "address",
          "name": "_trustedForwarder",
          "type": "address"
        },
        {
          "internalType": "address",
          "name": "_marketplaceAddress",
          "type": "address"
        }
      ],
      "stateMutability": "payable",
      "type": "constructor"
    },
    {
      "inputs": [],
      "name": "AlreadyRegistered",
      "type": "error"
    },
    {
      "inputs": [
        {
          "internalType": "string",
          "name": "name",
          "type": "string"
        }
      ],
      "name": "InvalidName",
      "type": "error"
    },
    {
      "inputs": [],
      "name": "Unauthorized",
      "type": "error"
    },
    {
      "anonymous": false,
      "inputs": [
        {
          "indexed": true,
          "internalType": "address",
          "name": "owner",
          "type": "address"
        },
        {
          "indexed": true,
          "internalType": "address",
          "name": "approved",
          "type": "address"
        },
        {
          "indexed": true,
          "internalType": "uint256",
          "name": "tokenId",
          "type": "uint256"
        }
      ],
      "name": "Approval",
      "type": "event"
    },
    {
      "anonymous": false,
      "inputs": [
        {
          "indexed": true,
          "internalType": "address",
          "name": "owner",
          "type": "address"
        },
        {
          "indexed": true,
          "internalType": "address",
          "name": "operator",
          "type": "address"
        },
        {
          "indexed": false,
          "internalType": "bool",
          "name": "approved",
          "type": "bool"
        }
      ],
      "name": "ApprovalForAll",
      "type": "event"
    },
    {
      "anonymous": false,
      "inputs": [
        {
          "indexed": false,
          "internalType": "uint256",
          "name": "_fromTokenId",
          "type": "uint256"
        },
        {
          "indexed": false,
          "internalType": "uint256",
          "name": "_toTokenId",
          "type": "uint256"
        }
      ],
      "name": "BatchMetadataUpdate",
      "type": "event"
    },
    {
      "anonymous": false,
      "inputs": [
        {
          "indexed": false,
          "internalType": "uint256",
          "name": "tokenId",
          "type": "uint256"
        }
      ],
      "name": "DomainExpired",
      "type": "event"
    },
    {
      "anonymous": false,
      "inputs": [
        {
          "indexed": false,
          "internalType": "uint256",
          "name": "tokenId",
          "type": "uint256"
        },
        {
          "indexed": false,
          "internalType": "address",
          "name": "newOwner",
          "type": "address"
        }
      ],
      "name": "DomainTransferred",
      "type": "event"
    },
    {
      "anonymous": false,
      "inputs": [
        {
          "indexed": true,
          "internalType": "address",
          "name": "sender",
          "type": "address"
        },
        {
          "indexed": false,
          "internalType": "uint256",
          "name": "amount",
          "type": "uint256"
        }
      ],
      "name": "FallbackReceived",
      "type": "event"
    },
    {
      "anonymous": false,
      "inputs": [
        {
          "indexed": false,
          "internalType": "uint256",
          "name": "_tokenId",
          "type": "uint256"
        }
      ],
      "name": "MetadataUpdate",
      "type": "event"
    },
    {
      "anonymous": false,
      "inputs": [
        {
          "indexed": true,
          "internalType": "address",
          "name": "sender",
          "type": "address"
        },
        {
          "indexed": false,
          "internalType": "uint256",
          "name": "amount",
          "type": "uint256"
        }
      ],
      "name": "Received",
      "type": "event"
    },
    {
      "anonymous": false,
      "inputs": [
        {
          "indexed": false,
          "internalType": "address",
          "name": "owner",
          "type": "address"
        },
        {
          "indexed": false,
          "internalType": "string",
          "name": "name",
          "type": "string"
        }
      ],
      "name": "Register",
      "type": "event"
    },
    {
      "anonymous": false,
      "inputs": [
        {
          "indexed": false,
          "internalType": "address",
          "name": "owner",
          "type": "address"
        },
        {
          "indexed": false,
          "internalType": "string",
          "name": "name",
          "type": "string"
        },
        {
          "indexed": false,
          "internalType": "string",
          "name": "record",
          "type": "string"
        }
      ],
      "name": "SetRecord",
      "type": "event"
    },
    {
      "anonymous": false,
      "inputs": [
        {
          "indexed": true,
          "internalType": "address",
          "name": "from",
          "type": "address"
        },
        {
          "indexed": true,
          "internalType": "address",
          "name": "to",
          "type": "address"
        },
        {
          "indexed": true,
          "internalType": "uint256",
          "name": "tokenId",
          "type": "uint256"
        }
      ],
      "name": "Transfer",
      "type": "event"
    },
    {
      "stateMutability": "payable",
      "type": "fallback"
    },
    {
      "inputs": [
        {
          "internalType": "address",
          "name": "to",
          "type": "address"
        },
        {
          "internalType": "uint256",
          "name": "tokenId",
          "type": "uint256"
        }
      ],
      "name": "approve",
      "outputs": [],
      "stateMutability": "nonpayable",
      "type": "function"
    },
    {
      "inputs": [
        {
          "internalType": "address",
          "name": "owner",
          "type": "address"
        }
      ],
      "name": "balanceOf",
      "outputs": [
        {
          "internalType": "uint256",
          "name": "",
          "type": "uint256"
        }
      ],
      "stateMutability": "view",
      "type": "function"
    },
    {
      "inputs": [
        {
          "internalType": "uint256",
          "name": "tokenId",
          "type": "uint256"
        }
      ],
      "name": "checkExpiration",
      "outputs": [],
      "stateMutability": "nonpayable",
      "type": "function"
    },
    {
      "inputs": [
        {
          "internalType": "string",
          "name": "_name",
          "type": "string"
        }
      ],
      "name": "checkRegistered",
      "outputs": [
        {
          "internalType": "bool",
          "name": "",
          "type": "bool"
        }
      ],
      "stateMutability": "view",
      "type": "function"
    },
    {
      "inputs": [
        {
          "internalType": "string",
          "name": "",
          "type": "string"
        }
      ],
      "name": "domains",
      "outputs": [
        {
          "internalType": "address",
          "name": "",
          "type": "address"
        }
      ],
      "stateMutability": "view",
      "type": "function"
    },
    {
      "inputs": [
        {
          "internalType": "uint256",
          "name": "",
          "type": "uint256"
        }
      ],
      "name": "expirationDates",
      "outputs": [
        {
          "internalType": "uint256",
          "name": "",
          "type": "uint256"
        }
      ],
      "stateMutability": "view",
      "type": "function"
    },
    {
      "inputs": [
        {
          "internalType": "string",
          "name": "name",
          "type": "string"
        }
      ],
      "name": "getAddress",
      "outputs": [
        {
          "internalType": "address",
          "name": "",
          "type": "address"
        }
      ],
      "stateMutability": "view",
      "type": "function"
    },
    {
      "inputs": [],
      "name": "getAllNames",
      "outputs": [
        {
          "internalType": "string[]",
          "name": "",
          "type": "string[]"
        }
      ],
      "stateMutability": "view",
      "type": "function"
    },
    {
      "inputs": [
        {
          "internalType": "uint256",
          "name": "tokenId",
          "type": "uint256"
        }
      ],
      "name": "getApproved",
      "outputs": [
        {
          "internalType": "address",
          "name": "",
          "type": "address"
        }
      ],
      "stateMutability": "view",
      "type": "function"
    },
    {
      "inputs": [
        {
          "internalType": "address",
          "name": "_owner",
          "type": "address"
        }
      ],
      "name": "getDomainsByOwner",
      "outputs": [
        {
          "internalType": "string[]",
          "name": "",
          "type": "string[]"
        }
      ],
      "stateMutability": "view",
      "type": "function"
    },
    {
      "inputs": [
        {
          "internalType": "string",
          "name": "name",
          "type": "string"
        }
      ],
      "name": "getRecord",
      "outputs": [
        {
          "internalType": "string",
          "name": "",
          "type": "string"
        }
      ],
      "stateMutability": "view",
      "type": "function"
    },
    {
      "inputs": [
        {
          "internalType": "address",
          "name": "owner",
          "type": "address"
        },
        {
          "internalType": "address",
          "name": "operator",
          "type": "address"
        }
      ],
      "name": "isApprovedForAll",
      "outputs": [
        {
          "internalType": "bool",
          "name": "",
          "type": "bool"
        }
      ],
      "stateMutability": "view",
      "type": "function"
    },
    {
      "inputs": [],
      "name": "isOwner",
      "outputs": [
        {
          "internalType": "bool",
          "name": "",
          "type": "bool"
        }
      ],
      "stateMutability": "view",
      "type": "function"
    },
    {
      "inputs": [
        {
          "internalType": "address",
          "name": "forwarder",
          "type": "address"
        }
      ],
      "name": "isTrustedForwarder",
      "outputs": [
        {
          "internalType": "bool",
          "name": "",
          "type": "bool"
        }
      ],
      "stateMutability": "view",
      "type": "function"
    },
    {
      "inputs": [],
      "name": "marketplaceAddress",
      "outputs": [
        {
          "internalType": "address",
          "name": "",
          "type": "address"
        }
      ],
      "stateMutability": "view",
      "type": "function"
    },
    {
      "inputs": [],
      "name": "name",
      "outputs": [
        {
          "internalType": "string",
          "name": "",
          "type": "string"
        }
      ],
      "stateMutability": "view",
      "type": "function"
    },
    {
      "inputs": [
        {
          "internalType": "uint256",
          "name": "",
          "type": "uint256"
        }
      ],
      "name": "names",
      "outputs": [
        {
          "internalType": "string",
          "name": "",
          "type": "string"
        }
      ],
      "stateMutability": "view",
      "type": "function"
    },
    {
      "inputs": [],
      "name": "owner",
      "outputs": [
        {
          "internalType": "address payable",
          "name": "",
          "type": "address"
        }
      ],
      "stateMutability": "view",
      "type": "function"
    },
    {
      "inputs": [
        {
          "internalType": "address",
          "name": "",
          "type": "address"
        },
        {
          "internalType": "uint256",
          "name": "",
          "type": "uint256"
        }
      ],
      "name": "ownerDomains",
      "outputs": [
        {
          "internalType": "string",
          "name": "",
          "type": "string"
        }
      ],
      "stateMutability": "view",
      "type": "function"
    },
    {
      "inputs": [
        {
          "internalType": "uint256",
          "name": "tokenId",
          "type": "uint256"
        }
      ],
      "name": "ownerOf",
      "outputs": [
        {
          "internalType": "address",
          "name": "",
          "type": "address"
        }
      ],
      "stateMutability": "view",
      "type": "function"
    },
    {
      "inputs": [
        {
          "internalType": "string",
          "name": "name",
          "type": "string"
        },
        {
          "internalType": "uint256",
          "name": "_years",
          "type": "uint256"
        }
      ],
      "name": "price",
      "outputs": [
        {
          "internalType": "uint256",
          "name": "",
          "type": "uint256"
        }
      ],
      "stateMutability": "pure",
      "type": "function"
    },
    {
      "inputs": [
        {
          "internalType": "string",
          "name": "",
          "type": "string"
        }
      ],
      "name": "records",
      "outputs": [
        {
          "internalType": "string",
          "name": "",
          "type": "string"
        }
      ],
      "stateMutability": "view",
      "type": "function"
    },
    {
      "inputs": [
        {
          "internalType": "string",
          "name": "name",
          "type": "string"
        },
        {
          "internalType": "uint256",
          "name": "_years",
          "type": "uint256"
        }
      ],
      "name": "register",
      "outputs": [],
      "stateMutability": "payable",
      "type": "function"
    },
    {
      "inputs": [
        {
          "internalType": "address",
          "name": "from",
          "type": "address"
        },
        {
          "internalType": "address",
          "name": "to",
          "type": "address"
        },
        {
          "internalType": "uint256",
          "name": "tokenId",
          "type": "uint256"
        }
      ],
      "name": "safeTransferFrom",
      "outputs": [],
      "stateMutability": "nonpayable",
      "type": "function"
    },
    {
      "inputs": [
        {
          "internalType": "address",
          "name": "from",
          "type": "address"
        },
        {
          "internalType": "address",
          "name": "to",
          "type": "address"
        },
        {
          "internalType": "uint256",
          "name": "tokenId",
          "type": "uint256"
        },
        {
          "internalType": "bytes",
          "name": "data",
          "type": "bytes"
        }
      ],
      "name": "safeTransferFrom",
      "outputs": [],
      "stateMutability": "nonpayable",
      "type": "function"
    },
    {
      "inputs": [
        {
          "internalType": "address",
          "name": "operator",
          "type": "address"
        },
        {
          "internalType": "bool",
          "name": "approved",
          "type": "bool"
        }
      ],
      "name": "setApprovalForAll",
      "outputs": [],
      "stateMutability": "nonpayable",
      "type": "function"
    },
    {
      "inputs": [
        {
          "internalType": "string",
          "name": "name",
          "type": "string"
        },
        {
          "internalType": "string",
          "name": "record",
          "type": "string"
        }
      ],
      "name": "setRecord",
      "outputs": [],
      "stateMutability": "nonpayable",
      "type": "function"
    },
    {
      "inputs": [
        {
          "internalType": "bytes4",
          "name": "interfaceId",
          "type": "bytes4"
        }
      ],
      "name": "supportsInterface",
      "outputs": [
        {
          "internalType": "bool",
          "name": "",
          "type": "bool"
        }
      ],
      "stateMutability": "view",
      "type": "function"
    },
    {
      "inputs": [],
      "name": "symbol",
      "outputs": [
        {
          "internalType": "string",
          "name": "",
          "type": "string"
        }
      ],
      "stateMutability": "view",
      "type": "function"
    },
    {
      "inputs": [],
      "name": "tld",
      "outputs": [
        {
          "internalType": "string",
          "name": "",
          "type": "string"
        }
      ],
      "stateMutability": "view",
      "type": "function"
    },
    {
      "inputs": [
        {
          "internalType": "uint256",
          "name": "tokenId",
          "type": "uint256"
        }
      ],
      "name": "tokenURI",
      "outputs": [
        {
          "internalType": "string",
          "name": "",
          "type": "string"
        }
      ],
      "stateMutability": "view",
      "type": "function"
    },
    {
      "inputs": [
        {
          "internalType": "address",
          "name": "from",
          "type": "address"
        },
        {
          "internalType": "address",
          "name": "to",
          "type": "address"
        },
        {
          "internalType": "uint256",
          "name": "tokenId",
          "type": "uint256"
        }
      ],
      "name": "transferFrom",
      "outputs": [],
      "stateMutability": "nonpayable",
      "type": "function"
    },
    {
      "inputs": [
        {
          "internalType": "string",
          "name": "name",
          "type": "string"
        },
        {
          "internalType": "address",
          "name": "_address",
          "type": "address"
        },
        {
          "internalType": "uint256",
          "name": "_tokenId",
          "type": "uint256"
        },
        {
          "internalType": "uint256",
          "name": "_years",
          "type": "uint256"
        }
      ],
      "name": "updateAddress",
      "outputs": [],
      "stateMutability": "nonpayable",
      "type": "function"
    },
    {
      "inputs": [],
      "name": "withdraw",
      "outputs": [],
      "stateMutability": "nonpayable",
      "type": "function"
    },
    {
      "stateMutability": "payable",
      "type": "receive"
    }
  ],
  "transactionHash": "0x5faee7a55561905158f1566da6e2560007af16e257f3e1d82e022681804fb0c7",
  "args": [
    "xcr",
    "0xacff3BF500e0E9F7734D39064B290873d80Fe749",
    "0xd18d0D5c3C8f915865069Fe11b25228a737E9925"
  ],
  "numDeployments": 7,
  "solcInputHash": "e21ca0a60b4022a47c2621e9b330ee9f",
  "bytecode": "0x61094060405261086b60a08181529062003bec60c03960089062000024908262000293565b5060408051808201909152600d81526c1e17ba32bc3a1f1e17b9bb339f60991b602082015260099062000058908262000293565b506040516200447a3803806200447a8339810160408190526200007b91620003a2565b81604051806060016040528060238152602001620044576023913960408051808201909152600381526221a22760e91b60208201526000620000be838262000293565b506001620000cd828262000293565b5050506001600160a01b0316608052600c80546001600160a01b03191633179055600b620000fc848262000293565b50600a80546001600160a01b0319166001600160a01b03831617905560408051808201909152601881527f2573206e616d652073657276696365206465706c6f7965640000000000000000602082015262000158908462000161565b505050620004e1565b620001ae82826040516024016200017a929190620004af565b60408051601f198184030181529190526020810180516001600160e01b03908116634b5c427760e01b17909152620001b216565b5050565b620001c881620001cb60201b620017f31760201c565b50565b60006a636f6e736f6c652e6c6f679050600080835160208501845afa505050565b634e487b7160e01b600052604160045260246000fd5b600181811c908216806200021757607f821691505b6020821081036200023857634e487b7160e01b600052602260045260246000fd5b50919050565b601f8211156200028e576000816000526020600020601f850160051c81016020861015620002695750805b601f850160051c820191505b818110156200028a5782815560010162000275565b5050505b505050565b81516001600160401b03811115620002af57620002af620001ec565b620002c781620002c0845462000202565b846200023e565b602080601f831160018114620002ff5760008415620002e65750858301515b600019600386901b1c1916600185901b1785556200028a565b600085815260208120601f198616915b8281101562000330578886015182559484019460019091019084016200030f565b50858210156200034f5787850151600019600388901b60f8161c191681555b5050505050600190811b01905550565b60005b838110156200037c57818101518382015260200162000362565b50506000910152565b80516001600160a01b03811681146200039d57600080fd5b919050565b600080600060608486031215620003b857600080fd5b83516001600160401b0380821115620003d057600080fd5b818601915086601f830112620003e557600080fd5b815181811115620003fa57620003fa620001ec565b604051601f8201601f19908116603f01168101908382118183101715620004255762000425620001ec565b816040528281528960208487010111156200043f57600080fd5b620004528360208301602088016200035f565b8097505050505050620004686020850162000385565b9150620004786040850162000385565b90509250925092565b600081518084526200049b8160208601602086016200035f565b601f01601f19169290920160200192915050565b604081526000620004c4604083018562000481565b8281036020840152620004d8818562000481565b95945050505050565b6080516136ef620004fd6000396000610d0001526136ef6000f3fe6080604052600436106101fd5760003560e01c80636fc0bb051161010d578063bf40fac1116100a0578063daa17f491161006f578063daa17f4914610658578063e985e9c514610678578063ea87152b146106c1578063f38ffb6c146106d4578063fb825e5f146107015761023a565b8063bf40fac1146105d8578063c1880a98146105f8578063c87b56dd14610618578063d0220dbd146106385761023a565b80638f32d59b116100dc5780638f32d59b1461056357806395d89b4114610583578063a22cb46514610598578063b88d4fde146105b85761023a565b80636fc0bb05146104e357806370a0823114610503578063723931ca146105235780638da5cb5b146105435761023a565b80632d551432116101905780634737e1a01161015f5780634737e1a014610436578063541e771d14610456578063572b6c05146104765780636352211e1461049657806368bb9e7d146104b65761023a565b80632d551432146103cc5780633ccfd60b146103e157806342842e0e146103f65780634622ab03146104165761023a565b806311dd8845116101cc57806311dd88451461031d57806319b989a01461033d57806323b872dd1461036b578063264492351461038b5761023a565b806301ffc9a71461026c57806306fdde03146102a1578063081812fc146102c3578063095ea7b3146102fb5761023a565b3661023a5760405134815233907f88a5966d370b9919b20f3e2c13ff65706f196a4e32cc2c12bf57088f88525874906020015b60405180910390a2005b60405134815233907f50780da79649c77c3362903a681320ab494fb174e23e597f79463f264603689e90602001610230565b34801561027857600080fd5b5061028c610287366004612944565b610716565b60405190151581526020015b60405180910390f35b3480156102ad57600080fd5b506102b6610741565b60405161029891906129b1565b3480156102cf57600080fd5b506102e36102de3660046129c4565b6107d3565b6040516001600160a01b039091168152602001610298565b34801561030757600080fd5b5061031b6103163660046129f4565b6107fa565b005b34801561032957600080fd5b506102b6610338366004612a66565b610926565b34801561034957600080fd5b5061035d610358366004612aa7565b6109d9565b604051908152602001610298565b34801561037757600080fd5b5061031b610386366004612af2565b610a7c565b34801561039757600080fd5b506102e36103a6366004612bb9565b8051602081830181018051600d825292820191909301209152546001600160a01b031681565b3480156103d857600080fd5b506102b6610ab4565b3480156103ed57600080fd5b5061031b610b42565b34801561040257600080fd5b5061031b610411366004612af2565b610bf7565b34801561042257600080fd5b506102b66104313660046129c4565b610c12565b34801561044257600080fd5b5061031b610451366004612c01565b610c2b565b34801561046257600080fd5b506102b6610471366004612bb9565b610cda565b34801561048257600080fd5b5061028c610491366004612c66565b610cfe565b3480156104a257600080fd5b506102e36104b13660046129c4565b610d30565b3480156104c257600080fd5b5061035d6104d13660046129c4565b60116020526000908152604090205481565b3480156104ef57600080fd5b5061028c6104fe366004612bb9565b610d90565b34801561050f57600080fd5b5061035d61051e366004612c66565b610ddf565b34801561052f57600080fd5b5061031b61053e3660046129c4565b610e65565b34801561054f57600080fd5b50600c546102e3906001600160a01b031681565b34801561056f57600080fd5b50600c546001600160a01b0316331461028c565b34801561058f57600080fd5b506102b6610fb1565b3480156105a457600080fd5b5061031b6105b3366004612c81565b610fc0565b3480156105c457600080fd5b5061031b6105d3366004612cbd565b610fd2565b3480156105e457600080fd5b506102e36105f3366004612a66565b611011565b34801561060457600080fd5b5061031b610613366004612d38565b611046565b34801561062457600080fd5b506102b66106333660046129c4565b611106565b34801561064457600080fd5b506102b66106533660046129f4565b611216565b34801561066457600080fd5b50600a546102e3906001600160a01b031681565b34801561068457600080fd5b5061028c610693366004612da3565b6001600160a01b03918216600090815260056020908152604080832093909416825291909152205460ff1690565b61031b6106cf366004612aa7565b61124e565b3480156106e057600080fd5b506106f46106ef366004612c66565b611544565b6040516102989190612dd6565b34801561070d57600080fd5b506106f4611633565b60006001600160e01b03198216632483248360e11b148061073b575061073b82611814565b92915050565b60606000805461075090612e3a565b80601f016020809104026020016040519081016040528092919081815260200182805461077c90612e3a565b80156107c95780601f1061079e576101008083540402835291602001916107c9565b820191906000526020600020905b8154815290600101906020018083116107ac57829003601f168201915b5050505050905090565b60006107de82611864565b506000908152600460205260409020546001600160a01b031690565b600061080582610d30565b9050806001600160a01b0316836001600160a01b0316036108775760405162461bcd60e51b815260206004820152602160248201527f4552433732313a20617070726f76616c20746f2063757272656e74206f776e656044820152603960f91b60648201526084015b60405180910390fd5b806001600160a01b03166108896118c3565b6001600160a01b031614806108a557506108a5816106936118c3565b6109175760405162461bcd60e51b815260206004820152603d60248201527f4552433732313a20617070726f76652063616c6c6572206973206e6f7420746f60448201527f6b656e206f776e6572206f7220617070726f76656420666f7220616c6c000000606482015260840161086e565b61092183836118ed565b505050565b6060600e838360405161093a929190612e6e565b9081526020016040518091039020805461095390612e3a565b80601f016020809104026020016040519081016040528092919081815260200182805461097f90612e3a565b80156109cc5780601f106109a1576101008083540402835291602001916109cc565b820191906000526020600020905b8154815290600101906020018083116109af57829003601f168201915b5050505050905092915050565b600080610a1b85858080601f01602080910402602001604051908101604052809392919081815260200183838082843760009201919091525061195b92505050565b905060008111610a2a57600080fd5b80600303610a4b57610a438366038d7ea4c68000612e94565b915050610a75565b80600403610a6457610a4383660aa87bee538000612e94565b610a43836611c37937e08000612e94565b9392505050565b610a8d610a876118c3565b82611a5e565b610aa95760405162461bcd60e51b815260040161086e90612eab565b610921838383611adc565b600b8054610ac190612e3a565b80601f0160208091040260200160405190810160405280929190818152602001828054610aed90612e3a565b8015610b3a5780601f10610b0f57610100808354040283529160200191610b3a565b820191906000526020600020905b815481529060010190602001808311610b1d57829003601f168201915b505050505081565b600c546001600160a01b03163314610b5957600080fd5b6040514790600090339083908381818185875af1925050503d8060008114610b9d576040519150601f19603f3d011682016040523d82523d6000602084013e610ba2565b606091505b5050905080610bf35760405162461bcd60e51b815260206004820152601860248201527f4661696c656420746f207769746864726177204d617469630000000000000000604482015260640161086e565b5050565b61092183838360405180602001604052806000815250610fd2565b600f6020526000908152604090208054610ac190612e3a565b82600d8686604051610c3e929190612e6e565b90815260405190819003602001902080546001600160a01b03929092166001600160a01b0319909216919091179055610c7b816301e13380612e94565b610c859042612ef8565b6000838152601160205260409081902091909155517f6ba0831d2f62ae5cbf7214bcc1d79c5da1d705f12811efda0beaa840006f874e90610ccb90859088908890612f34565b60405180910390a15050505050565b8051602081830181018051600e8252928201919093012091528054610ac190612e3a565b7f00000000000000000000000000000000000000000000000000000000000000006001600160a01b0390811691161490565b6000818152600260205260408120546001600160a01b03168061073b5760405162461bcd60e51b8152602060048201526018602482015277115490cdcc8c4e881a5b9d985b1a59081d1bdad95b88125160421b604482015260640161086e565b6000806001600160a01b0316600d83604051610dac9190612f62565b908152604051908190036020019020546001600160a01b031603610dd257506001919050565b506000919050565b919050565b60006001600160a01b038216610e495760405162461bcd60e51b815260206004820152602960248201527f4552433732313a2061646472657373207a65726f206973206e6f7420612076616044820152683634b21037bbb732b960b91b606482015260840161086e565b506001600160a01b031660009081526003602052604090205490565b600081815260116020526040902054421115610fae57610e8481611c40565b6000818152600f602052604081208054610e9d90612e3a565b80601f0160208091040260200160405190810160405280929190818152602001828054610ec990612e3a565b8015610f165780601f10610eeb57610100808354040283529160200191610f16565b820191906000526020600020905b815481529060010190602001808311610ef957829003601f168201915b50505050509050600d81604051610f2d9190612f62565b908152604080516020928190038301902080546001600160a01b03191690556000848152600f9092528120610f61916128e0565b60008281526011602052604080822091909155517f07e6adf5c6d87cbc1881e55c0e46397ce173ab54d5bd97c0d588ee29e803b5ba90610fa49084815260200190565b60405180910390a1505b50565b60606001805461075090612e3a565b610bf3610fcb6118c3565b8383611f93565b610fe3610fdd6118c3565b83611a5e565b610fff5760405162461bcd60e51b815260040161086e90612eab565b61100b84848484612061565b50505050565b6000600d8383604051611025929190612e6e565b908152604051908190036020019020546001600160a01b0316905092915050565b600d8484604051611058929190612e6e565b90815260405190819003602001902054336001600160a01b0390911614611091576040516282b42960e81b815260040160405180910390fd5b8181600e86866040516110a5929190612e6e565b908152602001604051809103902091826110c0929190612fe3565b507f0eeb47f1c4b5cf67d1615dac4f20b4072bf588c02f4575b0f658354982de710e33858585856040516110f895949392919061309d565b60405180910390a150505050565b606061111182611864565b6000828152600660205260408120805461112a90612e3a565b80601f016020809104026020016040519081016040528092919081815260200182805461115690612e3a565b80156111a35780601f10611178576101008083540402835291602001916111a3565b820191906000526020600020905b81548152906001019060200180831161118657829003601f168201915b5050505050905060006111c160408051602081019091526000815290565b905080516000036111d3575092915050565b8151156112055780826040516020016111ed9291906130e1565b60405160208183030381529060405292505050919050565b61120e84612094565b949350505050565b6010602052816000526040600020818154811061123257600080fd5b90600052602060002001600091509150508054610ac190612e3a565b60006001600160a01b0316600d848460405161126b929190612e6e565b908152604051908190036020019020546001600160a01b0316146112a257604051630ea075bf60e21b815260040160405180910390fd5b6112ac8383612107565b6112cd578282604051637f19f48d60e01b815260040161086e929190613110565b60006112da8484846109d9565b9050803410156113225760405162461bcd60e51b8152602060048201526013602482015272139bdd08195b9bdd59da081610d4881c185a59606a1b604482015260640161086e565b60008484600b60405160200161133a93929190613197565b604051602081830303815290604052905060006008826009604051602001611364939291906131be565b6040516020818303038152906040529050600061138060075490565b905060006113c388888080601f01602080910402602001604051908101604052809392919081815260200183838082843760009201919091525061195b92505050565b905060006113d08261219d565b90506000611408866113e18761222f565b846040516020016113f4939291906131f1565b60405160208183030381529060405261222f565b905060008160405160200161141d91906132ff565b60405160208183030381529060405290506114383386612398565b61144285826123b2565b33600d8c8c604051611455929190612e6e565b908152604080516020928190038301902080546001600160a01b0319166001600160a01b0394909416939093179092556000878152600f9091522061149b8b8d83612fe3565b50336000908152601060209081526040822080546001810182559083529120016114c68b8d83612fe3565b506114d5896301e13380612e94565b6114df9042612ef8565b6000868152601160205260409020556114fc600780546001019055565b7f6ba0831d2f62ae5cbf7214bcc1d79c5da1d705f12811efda0beaa840006f874e338c8c60405161152f93929190612f34565b60405180910390a15050505050505050505050565b6001600160a01b0381166000908152601060209081526040808320805482518185028101850190935280835260609492939192909184015b8282101561162857838290600052602060002001805461159b90612e3a565b80601f01602080910402602001604051908101604052809291908181526020018280546115c790612e3a565b80156116145780601f106115e957610100808354040283529160200191611614565b820191906000526020600020905b8154815290600101906020018083116115f757829003601f168201915b50505050508152602001906001019061157c565b505050509050919050565b60606116736040518060400160405280601f81526020017f47657474696e6720616c6c206e616d65732066726f6d20636f6e747261637400815250612476565b600061167e60075490565b6001600160401b0381111561169557611695612b2e565b6040519080825280602002602001820160405280156116c857816020015b60608152602001906001900390816116b35790505b50905060005b6007548110156117ed576000818152600f6020526040902080546116f190612e3a565b80601f016020809104026020016040519081016040528092919081815260200182805461171d90612e3a565b801561176a5780601f1061173f5761010080835404028352916020019161176a565b820191906000526020600020905b81548152906001019060200180831161174d57829003601f168201915b505050505082828151811061178157611781613344565b60200260200101819052506117e56040518060400160405280601781526020017f4e616d6520666f7220746f6b656e202564206973202573000000000000000000815250828484815181106117d8576117d8613344565b60200260200101516124b9565b6001016116ce565b50919050565b60006a636f6e736f6c652e6c6f679050600080835160208501845afa505050565b60006001600160e01b031982166380ac58cd60e01b148061184557506001600160e01b03198216635b5e139f60e01b145b8061073b57506301ffc9a760e01b6001600160e01b031983161461073b565b6000818152600260205260409020546001600160a01b0316610fae5760405162461bcd60e51b8152602060048201526018602482015277115490cdcc8c4e881a5b9d985b1a59081d1bdad95b88125160421b604482015260640161086e565b60006118ce33610cfe565b156118e0575060131936013560601c90565b6118e8612500565b905090565b600081815260046020526040902080546001600160a01b0319166001600160a01b038416908117909155819061192282610d30565b6001600160a01b03167f8c5be1e5ebec7d5bd14f71427d1e84f3dd0314c0f7b2291e5b200ac8c7c3b92560405160405180910390a45050565b8051600090819081905b80821015611a5557600085838151811061198157611981613344565b01602001516001600160f81b0319169050600160ff1b8110156119b0576119a9600184612ef8565b9250611a42565b600760fd1b6001600160f81b0319821610156119d1576119a9600284612ef8565b600f60fc1b6001600160f81b0319821610156119f2576119a9600384612ef8565b601f60fb1b6001600160f81b031982161015611a13576119a9600484612ef8565b603f60fa1b6001600160f81b031982161015611a34576119a9600584612ef8565b611a3f600684612ef8565b92505b5082611a4d8161335a565b935050611965565b50909392505050565b600080611a6a83610d30565b9050806001600160a01b0316846001600160a01b03161480611ab157506001600160a01b0380821660009081526005602090815260408083209388168352929052205460ff165b8061120e5750836001600160a01b0316611aca846107d3565b6001600160a01b031614949350505050565b826001600160a01b0316611aef82610d30565b6001600160a01b031614611b155760405162461bcd60e51b815260040161086e90613373565b6001600160a01b038216611b775760405162461bcd60e51b8152602060048201526024808201527f4552433732313a207472616e7366657220746f20746865207a65726f206164646044820152637265737360e01b606482015260840161086e565b826001600160a01b0316611b8a82610d30565b6001600160a01b031614611bb05760405162461bcd60e51b815260040161086e90613373565b600081815260046020908152604080832080546001600160a01b03199081169091556001600160a01b0387811680865260038552838620805460001901905590871680865283862080546001019055868652600290945282852080549092168417909155905184937fddf252ad1be2c89b69c2b068fc378daa952ba7f163c4a11628f55a4df523b3ef91a4505050565b611c4981610d30565b6001600160a01b0316336001600160a01b031614611cb55760405162461bcd60e51b8152602060048201526024808201527f4f6e6c7920746865206f776e65722063616e206465746163682074686520646f60448201526336b0b4b760e11b606482015260840161086e565b6000818152600f602052604081208054611cce90612e3a565b80601f0160208091040260200160405190810160405280929190818152602001828054611cfa90612e3a565b8015611d475780601f10611d1c57610100808354040283529160200191611d47565b820191906000526020600020905b815481529060010190602001808311611d2a57829003601f168201915b5050600a54939450611d68936001600160a01b031692508591506107fa9050565b600a546040516302ce381960e41b8152600481018490526001600160a01b0390911690632ce3819090602401600060405180830381600087803b158015611dae57600080fd5b505af1158015611dc2573d6000803e3d6000fd5b5050600a54611dde92503391506001600160a01b031684611adc565b600a546040516001600160a01b0390911690600d90611dfe908490612f62565b908152604080516020928190038301902080546001600160a01b0319166001600160a01b0394909416939093179092553360009081526010909152908120905b8154811015611f13578280519060200120828281548110611e6157611e61613344565b90600052602060002001604051611e7891906133b8565b604051809103902003611f0b5781548290611e95906001906133c4565b81548110611ea557611ea5613344565b90600052602060002001828281548110611ec157611ec1613344565b906000526020600020019081611ed791906133d7565b5081805480611ee857611ee86134ad565b600190038181906000526020600020016000611f0491906128e0565b9055611f13565b600101611e3e565b50600a546001600160a01b0316600090815260106020908152604082208054600181018255908352912001611f4883826134c3565b50600a54604080518581526001600160a01b0390921660208301527ff1dbe24879e61808452b27ddd9031b65953e9e42a25d09db99f65668df761dd5910160405180910390a1505050565b816001600160a01b0316836001600160a01b031603611ff45760405162461bcd60e51b815260206004820152601960248201527f4552433732313a20617070726f766520746f2063616c6c657200000000000000604482015260640161086e565b6001600160a01b03838116600081815260056020908152604080832094871680845294825291829020805460ff191686151590811790915591519182527f17307eab39ab6107e8899845ad3d59bd9653f200f220920489ca2b5937696c31910160405180910390a3505050565b61206c848484611adc565b6120788484848461252f565b61100b5760405162461bcd60e51b815260040161086e90613574565b606061209f82611864565b60006120b660408051602081019091526000815290565b905060008151116120d65760405180602001604052806000815250610a75565b806120e08461219d565b6040516020016120f19291906130e1565b6040516020818303038152906040529392505050565b6000600361214a84848080601f01602080910402602001604051908101604052809392919081815260200183838082843760009201919091525061195b92505050565b10158015610a755750600a61219484848080601f01602080910402602001604051908101604052809392919081815260200183838082843760009201919091525061195b92505050565b11159392505050565b606060006121aa83612637565b60010190506000816001600160401b038111156121c9576121c9612b2e565b6040519080825280601f01601f1916602001820160405280156121f3576020820181803683370190505b5090508181016020015b600019016f181899199a1a9b1b9c1cb0b131b232b360811b600a86061a8153600a85049450846121fd57509392505050565b80516060906000819003612253575050604080516020810190915260008152919050565b60006003612262836002612ef8565b61226c91906135c6565b612277906004612e94565b90506000612286826020612ef8565b6001600160401b0381111561229d5761229d612b2e565b6040519080825280601f01601f1916602001820160405280156122c7576020820181803683370190505b509050600060405180606001604052806040815260200161367a604091399050600181016020830160005b86811015612353576003818a01810151603f601282901c8116860151600c83901c8216870151600684901c831688015192909316870151600891821b60ff94851601821b92841692909201901b91160160e01b8352600490920191016122f2565b50600386066001811461236d576002811461237e5761238a565b613d3d60f01b60011983015261238a565b603d60f81b6000198301525b505050918152949350505050565b610bf382826040518060200160405280600081525061270f565b6000828152600260205260409020546001600160a01b031661242d5760405162461bcd60e51b815260206004820152602e60248201527f45524337323155524953746f726167653a2055524920736574206f66206e6f6e60448201526d32bc34b9ba32b73a103a37b5b2b760911b606482015260840161086e565b600082815260066020526040902061244582826134c3565b506040518281527ff8e1a15aba9398e019f0b49df1a4fde98ee17ae345cb5f6b5e2c27f5033e8ce790602001610fa4565b610fae8160405160240161248a91906129b1565b60408051601f198184030181529190526020810180516001600160e01b031663104c13eb60e21b179052612742565b6109218383836040516024016124d1939291906135e8565b60408051601f198184030181529190526020810180516001600160e01b0316635970e08960e01b179052612742565b600061250b33610cfe565b8015612518575060143610155b1561252a575060131936013560601c90565b503390565b60006001600160a01b0384163b1561262c57836001600160a01b031663150b7a026125586118c3565b8786866040518563ffffffff1660e01b815260040161257a9493929190613613565b6020604051808303816000875af19250505080156125b5575060408051601f3d908101601f191682019092526125b291810190613646565b60015b612612573d8080156125e3576040519150601f19603f3d011682016040523d82523d6000602084013e6125e8565b606091505b50805160000361260a5760405162461bcd60e51b815260040161086e90613574565b805181602001fd5b6001600160e01b031916630a85bd0160e11b14905061120e565b506001949350505050565b60008072184f03e93ff9f4daa797ed6e38ed64bf6a1f0160401b83106126765772184f03e93ff9f4daa797ed6e38ed64bf6a1f0160401b830492506040015b6d04ee2d6d415b85acef810000000083106126a2576d04ee2d6d415b85acef8100000000830492506020015b662386f26fc1000083106126c057662386f26fc10000830492506010015b6305f5e10083106126d8576305f5e100830492506008015b61271083106126ec57612710830492506004015b606483106126fe576064830492506002015b600a831061073b5760010192915050565b612719838361274b565b612726600084848461252f565b6109215760405162461bcd60e51b815260040161086e90613574565b610fae816117f3565b6001600160a01b0382166127a15760405162461bcd60e51b815260206004820181905260248201527f4552433732313a206d696e7420746f20746865207a65726f2061646472657373604482015260640161086e565b6000818152600260205260409020546001600160a01b0316156128065760405162461bcd60e51b815260206004820152601c60248201527f4552433732313a20746f6b656e20616c7265616479206d696e74656400000000604482015260640161086e565b6000818152600260205260409020546001600160a01b03161561286b5760405162461bcd60e51b815260206004820152601c60248201527f4552433732313a20746f6b656e20616c7265616479206d696e74656400000000604482015260640161086e565b6001600160a01b038216600081815260036020908152604080832080546001019055848352600290915280822080546001600160a01b0319168417905551839291907fddf252ad1be2c89b69c2b068fc378daa952ba7f163c4a11628f55a4df523b3ef908290a45050565b6128de613663565b565b5080546128ec90612e3a565b6000825580601f106128fc575050565b601f016020900490600052602060002090810190610fae91905b8082111561292a5760008155600101612916565b5090565b6001600160e01b031981168114610fae57600080fd5b60006020828403121561295657600080fd5b8135610a758161292e565b60005b8381101561297c578181015183820152602001612964565b50506000910152565b6000815180845261299d816020860160208601612961565b601f01601f19169290920160200192915050565b602081526000610a756020830184612985565b6000602082840312156129d657600080fd5b5035919050565b80356001600160a01b0381168114610dda57600080fd5b60008060408385031215612a0757600080fd5b612a10836129dd565b946020939093013593505050565b60008083601f840112612a3057600080fd5b5081356001600160401b03811115612a4757600080fd5b602083019150836020828501011115612a5f57600080fd5b9250929050565b60008060208385031215612a7957600080fd5b82356001600160401b03811115612a8f57600080fd5b612a9b85828601612a1e565b90969095509350505050565b600080600060408486031215612abc57600080fd5b83356001600160401b03811115612ad257600080fd5b612ade86828701612a1e565b909790965060209590950135949350505050565b600080600060608486031215612b0757600080fd5b612b10846129dd565b9250612b1e602085016129dd565b9150604084013590509250925092565b634e487b7160e01b600052604160045260246000fd5b60006001600160401b0380841115612b5e57612b5e612b2e565b604051601f8501601f19908116603f01168101908282118183101715612b8657612b86612b2e565b81604052809350858152868686011115612b9f57600080fd5b858560208301376000602087830101525050509392505050565b600060208284031215612bcb57600080fd5b81356001600160401b03811115612be157600080fd5b8201601f81018413612bf257600080fd5b61120e84823560208401612b44565b600080600080600060808688031215612c1957600080fd5b85356001600160401b03811115612c2f57600080fd5b612c3b88828901612a1e565b9096509450612c4e9050602087016129dd565b94979396509394604081013594506060013592915050565b600060208284031215612c7857600080fd5b610a75826129dd565b60008060408385031215612c9457600080fd5b612c9d836129dd565b915060208301358015158114612cb257600080fd5b809150509250929050565b60008060008060808587031215612cd357600080fd5b612cdc856129dd565b9350612cea602086016129dd565b92506040850135915060608501356001600160401b03811115612d0c57600080fd5b8501601f81018713612d1d57600080fd5b612d2c87823560208401612b44565b91505092959194509250565b60008060008060408587031215612d4e57600080fd5b84356001600160401b0380821115612d6557600080fd5b612d7188838901612a1e565b90965094506020870135915080821115612d8a57600080fd5b50612d9787828801612a1e565b95989497509550505050565b60008060408385031215612db657600080fd5b612dbf836129dd565b9150612dcd602084016129dd565b90509250929050565b600060208083016020845280855180835260408601915060408160051b87010192506020870160005b82811015612e2d57603f19888603018452612e1b858351612985565b94509285019290850190600101612dff565b5092979650505050505050565b600181811c90821680612e4e57607f821691505b6020821081036117ed57634e487b7160e01b600052602260045260246000fd5b8183823760009101908152919050565b634e487b7160e01b600052601160045260246000fd5b808202811582820484141761073b5761073b612e7e565b6020808252602d908201527f4552433732313a2063616c6c6572206973206e6f7420746f6b656e206f776e6560408201526c1c881bdc88185c1c1c9bdd9959609a1b606082015260800190565b8082018082111561073b5761073b612e7e565b81835281816020850137506000828201602090810191909152601f909101601f19169091010190565b6001600160a01b0384168152604060208201819052600090612f599083018486612f0b565b95945050505050565b60008251612f74818460208701612961565b9190910192915050565b601f821115610921576000816000526020600020601f850160051c81016020861015612fa75750805b601f850160051c820191505b81811015612fc657828155600101612fb3565b505050505050565b600019600383901b1c191660019190911b1790565b6001600160401b03831115612ffa57612ffa612b2e565b61300e836130088354612e3a565b83612f7e565b6000601f84116001811461303c576000851561302a5750838201355b6130348682612fce565b845550613096565b600083815260209020601f19861690835b8281101561306d578685013582556020948501946001909201910161304d565b508682101561308a5760001960f88860031b161c19848701351681555b505060018560011b0183555b5050505050565b6001600160a01b03861681526060602082018190526000906130c29083018688612f0b565b82810360408401526130d5818587612f0b565b98975050505050505050565b600083516130f3818460208801612961565b835190830190613107818360208801612961565b01949350505050565b60208152600061120e602083018486612f0b565b6000815461313181612e3a565b60018281168015613149576001811461315e5761318d565b60ff198416875282151583028701945061318d565b8560005260208060002060005b858110156131845781548a82015290840190820161316b565b50505082870194505b5050505092915050565b828482376000838201601760f91b81526131b46001820185613124565b9695505050505050565b60006131ca8286613124565b84516131da818360208901612961565b6131e681830186613124565b979650505050505050565b693d913730b6b2911d101160b11b8152835160009061321781600a850160208901612961565b7f222c20226465736372697074696f6e223a20224120646f6d61696e206f6e2074600a918401918201527f68652043726f737356616c7565436861696e20446f6d61696e206e616d652073602a8201527f657276696365222c2022696d616765223a2022646174613a696d6167652f7376604a8201526c19cade1b5b0ed8985cd94d8d0b609a1b606a82015284516132b6816077840160208901612961565b6b1116113632b733ba34111d1160a11b6077929091019182015283516132e3816083840160208801612961565b61227d60f01b6083929091019182015260850195945050505050565b7f646174613a6170706c69636174696f6e2f6a736f6e3b6261736536342c00000081526000825161333781601d850160208701612961565b91909101601d0192915050565b634e487b7160e01b600052603260045260246000fd5b60006001820161336c5761336c612e7e565b5060010190565b60208082526025908201527f4552433732313a207472616e736665722066726f6d20696e636f72726563742060408201526437bbb732b960d91b606082015260800190565b6000610a758284613124565b8181038181111561073b5761073b612e7e565b8181036133e2575050565b6133ec8254612e3a565b6001600160401b0381111561340357613403612b2e565b613417816134118454612e3a565b84612f7e565b6000601f82116001811461344557600083156134335750848201545b61343d8482612fce565b855550613096565b600085815260209020601f19841690600086815260209020845b8381101561347f578286015482556001958601959091019060200161345f565b508583101561349d5781850154600019600388901b60f8161c191681555b5050505050600190811b01905550565b634e487b7160e01b600052603160045260246000fd5b81516001600160401b038111156134dc576134dc612b2e565b6134ea816134118454612e3a565b602080601f83116001811461351957600084156135075750858301515b6135118582612fce565b865550612fc6565b600085815260208120601f198616915b8281101561354857888601518255948401946001909101908401613529565b508582101561349d57939096015160001960f8600387901b161c19169092555050600190811b01905550565b60208082526032908201527f4552433732313a207472616e7366657220746f206e6f6e20455243373231526560408201527131b2b4bb32b91034b6b83632b6b2b73a32b960711b606082015260800190565b6000826135e357634e487b7160e01b600052601260045260246000fd5b500490565b6060815260006135fb6060830186612985565b84602084015282810360408401526131b48185612985565b6001600160a01b03858116825284166020820152604081018390526080606082018190526000906131b490830184612985565b60006020828403121561365857600080fd5b8151610a758161292e565b634e487b7160e01b600052605160045260246000fdfe4142434445464748494a4b4c4d4e4f505152535455565758595a6162636465666768696a6b6c6d6e6f707172737475767778797a303132333435363738392b2fa26469706673582212207f12e675fe5e8429811ee378f95d4c870921263fa84c665cb79392efd9f3d7af64736f6c634300081800333c73766720786d6c6e733d22687474703a2f2f7777772e77332e6f72672f323030302f737667222077696474683d2232373022206865696768743d22323730222066696c6c3d226e6f6e65223e3c706174682066696c6c3d2275726c282342292220643d224d302030683237307632373048307a222f3e3c646566733e3c66696c7465722069643d22412220636f6c6f722d696e746572706f6c6174696f6e2d66696c746572733d2273524742222066696c746572556e6974733d227573657253706163654f6e55736522206865696768743d22323730222077696474683d22323730223e3c666544726f70536861646f772064783d2230222064793d22312220737464446576696174696f6e3d22322220666c6f6f642d6f7061636974793d222e323235222077696474683d223230302522206865696768743d2232303025222f3e3c2f66696c7465723e3c2f646566733e3c7061746820643d224d37322e3836332034322e393439632d2e3636382d2e3338372d312e3432362d2e35392d322e3139372d2e3539732d312e3532392e3230342d322e3139372e35396c2d31302e30383120362e3033322d362e383520332e3933342d31302e30383120362e303332632d2e3636382e3338372d312e3432362e35392d322e3139372e3539732d312e3532392d2e3230342d322e3139372d2e35396c2d382e3031332d342e37323161342e353220342e35322030203020312d312e3538392d312e363136632d2e3338342d2e3636352d2e3539342d312e3431382d2e3630382d322e313837762d392e3331632d2e3031332d2e3737352e3138352d312e3533382e3537322d322e32303861342e323520342e323520302030203120312e3632352d312e3539356c372e3838342d342e3539632e3636382d2e33383720312e3432362d2e353920322e3139372d2e353973312e3532392e32303420322e3139372e35396c372e38383420342e353961342e353220342e353220302030203120312e35383920312e363136632e3338342e3636352e35393420312e3431382e36303820322e31383776362e3033326c362e38352d342e303635762d362e303332632e3031332d2e3737352d2e3138352d312e3533382d2e3537322d322e32303861342e323520342e32352030203020302d312e3632352d312e3539354c34312e3435362032342e3539632d2e3636382d2e3338372d312e3432362d2e35392d322e3139372d2e3539732d312e3532392e3230342d322e3139372e35396c2d31342e38363420382e36353561342e323520342e32352030203020302d312e36323520312e353935632d2e3338372e36372d2e35383520312e3433342d2e35373220322e3230387631372e343431632d2e3031332e3737352e31383520312e3533382e35373220322e32303861342e323520342e323520302030203020312e36323520312e3539356c31342e38363420382e363535632e3636382e33383720312e3432362e353920322e3139372e353973312e3532392d2e32303420322e3139372d2e35396c31302e3038312d352e39303120362e38352d342e3036352031302e3038312d352e393031632e3636382d2e33383720312e3432362d2e353920322e3139372d2e353973312e3532392e32303420322e3139372e35396c372e38383420342e353961342e353220342e353220302030203120312e35383920312e363136632e3338342e3636352e35393420312e3431382e36303820322e31383776392e333131632e3031332e3737352d2e31383520312e3533382d2e35373220322e32303861342e323520342e32352030203020312d312e36323520312e3539356c2d372e38383420342e373231632d2e3636382e3338372d312e3432362e35392d322e3139372e3539732d312e3532392d2e3230342d322e3139372d2e35396c2d372e3838342d342e353961342e353220342e35322030203020312d312e3538392d312e363136632d2e3338352d2e3636352d2e3539342d312e3431382d2e3630382d322e313837762d362e3033326c2d362e383520342e30363576362e303332632d2e3031332e3737352e31383520312e3533382e35373220322e32303861342e323520342e323520302030203020312e36323520312e3539356c31342e38363420382e363535632e3636382e33383720312e3432362e353920322e3139372e353973312e3532392d2e32303420322e3139372d2e35396c31342e3836342d382e363535632e3635372d2e33393420312e3230342d2e393520312e3538392d312e363136732e3539342d312e3431382e3630392d322e3138375635352e353338632e3031332d2e3737352d2e3138352d312e3533382d2e3537322d322e32303861342e323520342e32352030203020302d312e3632352d312e3539356c2d31342e3939332d382e3738367a222066696c6c3d2223666666222f3e3c646566733e3c6c696e6561724772616469656e742069643d2242222078313d2230222079313d2230222078323d22323730222079323d2232373022206772616469656e74556e6974733d227573657253706163654f6e557365223e3c73746f702073746f702d636f6c6f723d2223636235656565222f3e3c73746f70206f66667365743d2231222073746f702d636f6c6f723d2223306364376534222073746f702d6f7061636974793d222e3939222f3e3c2f6c696e6561724772616469656e743e3c2f646566733e3c7465787420783d2233322e352220793d223233312220666f6e742d73697a653d223237222066696c6c3d2223666666222066696c7465723d2275726c282341292220666f6e742d66616d696c793d22506c7573204a616b617274612053616e732c44656a6156752053616e732c4e6f746f20436f6c6f7220456d6f6a692c4170706c6520436f6c6f7220456d6f6a692c73616e732d73657269662220666f6e742d7765696768743d22626f6c64223e43726f737356616c7565436861696e20446f6d61696e204e616d652053657276696365",
  "devdoc": {
    "events": {
      "Approval(address,address,uint256)": {
        "details": "Emitted when `owner` enables `approved` to manage the `tokenId` token."
      },
      "ApprovalForAll(address,address,bool)": {
        "details": "Emitted when `owner` enables or disables (`approved`) `operator` to manage all of its assets."
      },
      "BatchMetadataUpdate(uint256,uint256)": {
        "details": "This event emits when the metadata of a range of tokens is changed. So that the third-party platforms such as NFT market could timely update the images and related attributes of the NFTs."
      },
      "MetadataUpdate(uint256)": {
        "details": "This event emits when the metadata of a token is changed. So that the third-party platforms such as NFT market could timely update the images and related attributes of the NFT."
      },
      "Transfer(address,address,uint256)": {
        "details": "Emitted when `tokenId` token is transferred from `from` to `to`."
      }
    },
    "kind": "dev",
    "methods": {
      "approve(address,uint256)": {
        "details": "See {IERC721-approve}."
      },
      "balanceOf(address)": {
        "details": "See {IERC721-balanceOf}."
      },
      "constructor": {
        "params": {
          "_tld": ""
        }
      },
      "getAddress(string)": {
        "params": {
          "name": ""
        }
      },
      "getApproved(uint256)": {
        "details": "See {IERC721-getApproved}."
      },
      "getRecord(string)": {
        "params": {
          "name": ""
        }
      },
      "isApprovedForAll(address,address)": {
        "details": "See {IERC721-isApprovedForAll}."
      },
      "name()": {
        "details": "See {IERC721Metadata-name}."
      },
      "ownerOf(uint256)": {
        "details": "See {IERC721-ownerOf}."
      },
      "price(string,uint256)": {
        "params": {
          "_years": "()",
          "name": ""
        }
      },
      "register(string,uint256)": {
        "params": {
          "_years": "()",
          "name": ""
        }
      },
      "safeTransferFrom(address,address,uint256)": {
        "details": "See {IERC721-safeTransferFrom}."
      },
      "safeTransferFrom(address,address,uint256,bytes)": {
        "details": "See {IERC721-safeTransferFrom}."
      },
      "setApprovalForAll(address,bool)": {
        "details": "See {IERC721-setApprovalForAll}."
      },
      "setRecord(string,string)": {
        "params": {
          "name": "",
          "record": "ENS"
        }
      },
      "supportsInterface(bytes4)": {
        "details": "See {IERC165-supportsInterface}"
      },
      "symbol()": {
        "details": "See {IERC721Metadata-symbol}."
      },
      "tokenURI(uint256)": {
        "details": "See {IERC721Metadata-tokenURI}."
      },
      "transferFrom(address,address,uint256)": {
        "details": "See {IERC721-transferFrom}."
      }
    },
    "version": 1
  },
  "userdoc": {
    "kind": "user",
    "methods": {
      "checkExpiration(uint256)": {
        "notice": "burn"
      },
      "checkRegistered(string)": {
        "notice": "checkRegistered "
      },
      "constructor": {
        "notice": ""
      },
      "getAddress(string)": {
        "notice": ""
      },
      "getAllNames()": {
        "notice": ""
      },
      "getDomainsByOwner(address)": {
        "notice": ""
      },
      "getRecord(string)": {
        "notice": "ENS"
      },
      "isOwner()": {
        "notice": "owner address"
      },
      "price(string,uint256)": {
        "notice": ""
      },
      "register(string,uint256)": {
        "notice": ""
      },
      "setRecord(string,string)": {
        "notice": ""
      },
      "updateAddress(string,address,uint256,uint256)": {
        "notice": "  "
      },
      "withdraw()": {
        "notice": ""
      }
    },
    "notice": "Domains Cotract",
    "version": 1
  },
  "storageLayout": {
    "storage": [
      {
        "astId": 144,
        "contract": "contracts/Domains.sol:Domains",
        "label": "_name",
        "offset": 0,
        "slot": "0",
        "type": "t_string_storage"
      },
      {
        "astId": 146,
        "contract": "contracts/Domains.sol:Domains",
        "label": "_symbol",
        "offset": 0,
        "slot": "1",
        "type": "t_string_storage"
      },
      {
        "astId": 150,
        "contract": "contracts/Domains.sol:Domains",
        "label": "_owners",
        "offset": 0,
        "slot": "2",
        "type": "t_mapping(t_uint256,t_address)"
      },
      {
        "astId": 154,
        "contract": "contracts/Domains.sol:Domains",
        "label": "_balances",
        "offset": 0,
        "slot": "3",
        "type": "t_mapping(t_address,t_uint256)"
      },
      {
        "astId": 158,
        "contract": "contracts/Domains.sol:Domains",
        "label": "_tokenApprovals",
        "offset": 0,
        "slot": "4",
        "type": "t_mapping(t_uint256,t_address)"
      },
      {
        "astId": 164,
        "contract": "contracts/Domains.sol:Domains",
        "label": "_operatorApprovals",
        "offset": 0,
        "slot": "5",
        "type": "t_mapping(t_address,t_mapping(t_address,t_bool))"
      },
      {
        "astId": 1195,
        "contract": "contracts/Domains.sol:Domains",
        "label": "_tokenURIs",
        "offset": 0,
        "slot": "6",
        "type": "t_mapping(t_uint256,t_string_storage)"
      },
      {
        "astId": 3047,
        "contract": "contracts/Domains.sol:Domains",
        "label": "_tokenIds",
        "offset": 0,
        "slot": "7",
        "type": "t_struct(Counter)1720_storage"
      },
      {
        "astId": 3050,
        "contract": "contracts/Domains.sol:Domains",
        "label": "svgPartOne",
        "offset": 0,
        "slot": "8",
        "type": "t_string_storage"
      },
      {
        "astId": 3053,
        "contract": "contracts/Domains.sol:Domains",
        "label": "svgPartTwo",
        "offset": 0,
        "slot": "9",
        "type": "t_string_storage"
      },
      {
        "astId": 3055,
        "contract": "contracts/Domains.sol:Domains",
        "label": "marketplaceAddress",
        "offset": 0,
        "slot": "10",
        "type": "t_address"
      },
      {
        "astId": 3057,
        "contract": "contracts/Domains.sol:Domains",
        "label": "tld",
        "offset": 0,
        "slot": "11",
        "type": "t_string_storage"
      },
      {
        "astId": 3059,
        "contract": "contracts/Domains.sol:Domains",
        "label": "owner",
        "offset": 0,
        "slot": "12",
        "type": "t_address_payable"
      },
      {
        "astId": 3063,
        "contract": "contracts/Domains.sol:Domains",
        "label": "domains",
        "offset": 0,
        "slot": "13",
        "type": "t_mapping(t_string_memory_ptr,t_address)"
      },
      {
        "astId": 3067,
        "contract": "contracts/Domains.sol:Domains",
        "label": "records",
        "offset": 0,
        "slot": "14",
        "type": "t_mapping(t_string_memory_ptr,t_string_storage)"
      },
      {
        "astId": 3071,
        "contract": "contracts/Domains.sol:Domains",
        "label": "names",
        "offset": 0,
        "slot": "15",
        "type": "t_mapping(t_uint256,t_string_storage)"
      },
      {
        "astId": 3076,
        "contract": "contracts/Domains.sol:Domains",
        "label": "ownerDomains",
        "offset": 0,
        "slot": "16",
        "type": "t_mapping(t_address,t_array(t_string_storage)dyn_storage)"
      },
      {
        "astId": 3080,
        "contract": "contracts/Domains.sol:Domains",
        "label": "expirationDates",
        "offset": 0,
        "slot": "17",
        "type": "t_mapping(t_uint256,t_uint256)"
      }
    ],
    "types": {
      "t_address": {
        "encoding": "inplace",
        "label": "address",
        "numberOfBytes": "20"
      },
      "t_address_payable": {
        "encoding": "inplace",
        "label": "address payable",
        "numberOfBytes": "20"
      },
      "t_array(t_string_storage)dyn_storage": {
        "base": "t_string_storage",
        "encoding": "dynamic_array",
        "label": "string[]",
        "numberOfBytes": "32"
      },
      "t_bool": {
        "encoding": "inplace",
        "label": "bool",
        "numberOfBytes": "1"
      },
      "t_mapping(t_address,t_array(t_string_storage)dyn_storage)": {
        "encoding": "mapping",
        "key": "t_address",
        "label": "mapping(address => string[])",
        "numberOfBytes": "32",
        "value": "t_array(t_string_storage)dyn_storage"
      },
      "t_mapping(t_address,t_bool)": {
        "encoding": "mapping",
        "key": "t_address",
        "label": "mapping(address => bool)",
        "numberOfBytes": "32",
        "value": "t_bool"
      },
      "t_mapping(t_address,t_mapping(t_address,t_bool))": {
        "encoding": "mapping",
        "key": "t_address",
        "label": "mapping(address => mapping(address => bool))",
        "numberOfBytes": "32",
        "value": "t_mapping(t_address,t_bool)"
      },
      "t_mapping(t_address,t_uint256)": {
        "encoding": "mapping",
        "key": "t_address",
        "label": "mapping(address => uint256)",
        "numberOfBytes": "32",
        "value": "t_uint256"
      },
      "t_mapping(t_string_memory_ptr,t_address)": {
        "encoding": "mapping",
        "key": "t_string_memory_ptr",
        "label": "mapping(string => address)",
        "numberOfBytes": "32",
        "value": "t_address"
      },
      "t_mapping(t_string_memory_ptr,t_string_storage)": {
        "encoding": "mapping",
        "key": "t_string_memory_ptr",
        "label": "mapping(string => string)",
        "numberOfBytes": "32",
        "value": "t_string_storage"
      },
      "t_mapping(t_uint256,t_address)": {
        "encoding": "mapping",
        "key": "t_uint256",
        "label": "mapping(uint256 => address)",
        "numberOfBytes": "32",
        "value": "t_address"
      },
      "t_mapping(t_uint256,t_string_storage)": {
        "encoding": "mapping",
        "key": "t_uint256",
        "label": "mapping(uint256 => string)",
        "numberOfBytes": "32",
        "value": "t_string_storage"
      },
      "t_mapping(t_uint256,t_uint256)": {
        "encoding": "mapping",
        "key": "t_uint256",
        "label": "mapping(uint256 => uint256)",
        "numberOfBytes": "32",
        "value": "t_uint256"
      },
      "t_string_memory_ptr": {
        "encoding": "bytes",
        "label": "string",
        "numberOfBytes": "32"
      },
      "t_string_storage": {
        "encoding": "bytes",
        "label": "string",
        "numberOfBytes": "32"
      },
      "t_struct(Counter)1720_storage": {
        "encoding": "inplace",
        "label": "struct Counters.Counter",
        "members": [
          {
            "astId": 1719,
            "contract": "contracts/Domains.sol:Domains",
            "label": "_value",
            "offset": 0,
            "slot": "0",
            "type": "t_uint256"
          }
        ],
        "numberOfBytes": "32"
      },
      "t_uint256": {
        "encoding": "inplace",
        "label": "uint256",
        "numberOfBytes": "32"
      }
    }
  }
}