{
  "address": "0xb2531b6730084CafE595d4579251b9983FADc717",
  "abi": [
    {
      "inputs": [
        {
          "internalType": "string",
          "name": "name",
          "type": "string"
        },
        {
          "internalType": "string",
          "name": "symbol",
          "type": "string"
        },
        {
          "internalType": "address",
          "name": "_erc6551Registry",
          "type": "address"
        },
        {
          "internalType": "address",
          "name": "_erc6551Account",
          "type": "address"
        }
      ],
      "stateMutability": "nonpayable",
      "type": "constructor"
    },
    {
      "inputs": [
        {
          "internalType": "address",
          "name": "owner",
          "type": "address"
        }
      ],
      "name": "AlreadyOwnsNFT",
      "type": "error"
    },
    {
      "inputs": [],
      "name": "ERC721EnumerableForbiddenBatchMint",
      "type": "error"
    },
    {
      "inputs": [
        {
          "internalType": "address",
          "name": "sender",
          "type": "address"
        },
        {
          "internalType": "uint256",
          "name": "tokenId",
          "type": "uint256"
        },
        {
          "internalType": "address",
          "name": "owner",
          "type": "address"
        }
      ],
      "name": "ERC721IncorrectOwner",
      "type": "error"
    },
    {
      "inputs": [
        {
          "internalType": "address",
          "name": "operator",
          "type": "address"
        },
        {
          "internalType": "uint256",
          "name": "tokenId",
          "type": "uint256"
        }
      ],
      "name": "ERC721InsufficientApproval",
      "type": "error"
    },
    {
      "inputs": [
        {
          "internalType": "address",
          "name": "approver",
          "type": "address"
        }
      ],
      "name": "ERC721InvalidApprover",
      "type": "error"
    },
    {
      "inputs": [
        {
          "internalType": "address",
          "name": "operator",
          "type": "address"
        }
      ],
      "name": "ERC721InvalidOperator",
      "type": "error"
    },
    {
      "inputs": [
        {
          "internalType": "address",
          "name": "owner",
          "type": "address"
        }
      ],
      "name": "ERC721InvalidOwner",
      "type": "error"
    },
    {
      "inputs": [
        {
          "internalType": "address",
          "name": "receiver",
          "type": "address"
        }
      ],
      "name": "ERC721InvalidReceiver",
      "type": "error"
    },
    {
      "inputs": [
        {
          "internalType": "address",
          "name": "sender",
          "type": "address"
        }
      ],
      "name": "ERC721InvalidSender",
      "type": "error"
    },
    {
      "inputs": [
        {
          "internalType": "uint256",
          "name": "tokenId",
          "type": "uint256"
        }
      ],
      "name": "ERC721NonexistentToken",
      "type": "error"
    },
    {
      "inputs": [
        {
          "internalType": "address",
          "name": "owner",
          "type": "address"
        },
        {
          "internalType": "uint256",
          "name": "index",
          "type": "uint256"
        }
      ],
      "name": "ERC721OutOfBoundsIndex",
      "type": "error"
    },
    {
      "inputs": [
        {
          "internalType": "uint256",
          "name": "fieldNumber",
          "type": "uint256"
        }
      ],
      "name": "FieldNameAlreadyExists",
      "type": "error"
    },
    {
      "inputs": [
        {
          "internalType": "uint256",
          "name": "fieldNumber",
          "type": "uint256"
        }
      ],
      "name": "FieldNameDoesNotExist",
      "type": "error"
    },
    {
      "inputs": [
        {
          "internalType": "string",
          "name": "fieldName",
          "type": "string"
        }
      ],
      "name": "InvalidFieldName",
      "type": "error"
    },
    {
      "inputs": [
        {
          "internalType": "uint256",
          "name": "tokenId",
          "type": "uint256"
        },
        {
          "internalType": "uint256",
          "name": "fieldNumber",
          "type": "uint256"
        }
      ],
      "name": "MetadataAlreadyExists",
      "type": "error"
    },
    {
      "inputs": [
        {
          "internalType": "uint256",
          "name": "tokenId",
          "type": "uint256"
        },
        {
          "internalType": "uint256",
          "name": "fieldNumber",
          "type": "uint256"
        }
      ],
      "name": "MetadataDoesNotExist",
      "type": "error"
    },
    {
      "inputs": [
        {
          "internalType": "uint256",
          "name": "fieldNumber",
          "type": "uint256"
        },
        {
          "internalType": "address",
          "name": "invalidOwner",
          "type": "address"
        },
        {
          "internalType": "address",
          "name": "fieldOwner",
          "type": "address"
        }
      ],
      "name": "NotFieldOwner",
      "type": "error"
    },
    {
      "inputs": [
        {
          "internalType": "uint256",
          "name": "tokenId",
          "type": "uint256"
        }
      ],
      "name": "NotTokenOwnerOrPermitted",
      "type": "error"
    },
    {
      "inputs": [],
      "name": "SoulboundToken",
      "type": "error"
    },
    {
      "inputs": [],
      "name": "UnauthorizedCaller",
      "type": "error"
    },
    {
      "anonymous": false,
      "inputs": [
        {
          "indexed": true,
          "internalType": "address",
          "name": "owner",
          "type": "address"
        },
        {
          "indexed": true,
          "internalType": "address",
          "name": "approved",
          "type": "address"
        },
        {
          "indexed": true,
          "internalType": "uint256",
          "name": "tokenId",
          "type": "uint256"
        }
      ],
      "name": "Approval",
      "type": "event"
    },
    {
      "anonymous": false,
      "inputs": [
        {
          "indexed": true,
          "internalType": "address",
          "name": "owner",
          "type": "address"
        },
        {
          "indexed": true,
          "internalType": "address",
          "name": "operator",
          "type": "address"
        },
        {
          "indexed": false,
          "internalType": "bool",
          "name": "approved",
          "type": "bool"
        }
      ],
      "name": "ApprovalForAll",
      "type": "event"
    },
    {
      "anonymous": false,
      "inputs": [
        {
          "indexed": true,
          "internalType": "uint256",
          "name": "tokenId",
          "type": "uint256"
        },
        {
          "indexed": true,
          "internalType": "address",
          "name": "editor",
          "type": "address"
        },
        {
          "indexed": false,
          "internalType": "bool",
          "name": "permission",
          "type": "bool"
        }
      ],
      "name": "EditorPermissionChanged",
      "type": "event"
    },
    {
      "anonymous": false,
      "inputs": [
        {
          "indexed": true,
          "internalType": "uint256",
          "name": "tokenId",
          "type": "uint256"
        },
        {
          "indexed": false,
          "internalType": "uint256",
          "name": "fieldNumber",
          "type": "uint256"
        },
        {
          "indexed": false,
          "internalType": "string",
          "name": "fieldValue",
          "type": "string"
        }
      ],
      "name": "MetadataAdded",
      "type": "event"
    },
    {
      "anonymous": false,
      "inputs": [
        {
          "indexed": true,
          "internalType": "uint256",
          "name": "tokenId",
          "type": "uint256"
        },
        {
          "indexed": false,
          "internalType": "uint256",
          "name": "fieldNumber",
          "type": "uint256"
        },
        {
          "indexed": false,
          "internalType": "string",
          "name": "newValue",
          "type": "string"
        }
      ],
      "name": "MetadataUpdated",
      "type": "event"
    },
    {
      "anonymous": false,
      "inputs": [
        {
          "indexed": true,
          "internalType": "address",
          "name": "from",
          "type": "address"
        },
        {
          "indexed": true,
          "internalType": "address",
          "name": "to",
          "type": "address"
        },
        {
          "indexed": true,
          "internalType": "uint256",
          "name": "tokenId",
          "type": "uint256"
        }
      ],
      "name": "Transfer",
      "type": "event"
    },
    {
      "inputs": [
        {
          "internalType": "uint256",
          "name": "tokenId",
          "type": "uint256"
        },
        {
          "internalType": "uint256",
          "name": "fieldNumber",
          "type": "uint256"
        },
        {
          "internalType": "string",
          "name": "fieldValue",
          "type": "string"
        }
      ],
      "name": "addMetadata",
      "outputs": [],
      "stateMutability": "nonpayable",
      "type": "function"
    },
    {
      "inputs": [
        {
          "internalType": "address",
          "name": "to",
          "type": "address"
        },
        {
          "internalType": "uint256",
          "name": "tokenId",
          "type": "uint256"
        }
      ],
      "name": "approve",
      "outputs": [],
      "stateMutability": "pure",
      "type": "function"
    },
    {
      "inputs": [
        {
          "internalType": "address",
          "name": "owner",
          "type": "address"
        }
      ],
      "name": "balanceOf",
      "outputs": [
        {
          "internalType": "uint256",
          "name": "",
          "type": "uint256"
        }
      ],
      "stateMutability": "view",
      "type": "function"
    },
    {
      "inputs": [
        {
          "internalType": "uint256",
          "name": "tokenId",
          "type": "uint256"
        }
      ],
      "name": "burn",
      "outputs": [],
      "stateMutability": "nonpayable",
      "type": "function"
    },
    {
      "inputs": [],
      "name": "chainId",
      "outputs": [
        {
          "internalType": "uint256",
          "name": "",
          "type": "uint256"
        }
      ],
      "stateMutability": "view",
      "type": "function"
    },
    {
      "inputs": [
        {
          "internalType": "address",
          "name": "",
          "type": "address"
        }
      ],
      "name": "eoaToTbaAccount",
      "outputs": [
        {
          "internalType": "address",
          "name": "",
          "type": "address"
        }
      ],
      "stateMutability": "view",
      "type": "function"
    },
    {
      "inputs": [
        {
          "internalType": "address",
          "name": "",
          "type": "address"
        }
      ],
      "name": "eoaToTokenId",
      "outputs": [
        {
          "internalType": "uint256",
          "name": "",
          "type": "uint256"
        }
      ],
      "stateMutability": "view",
      "type": "function"
    },
    {
      "inputs": [],
      "name": "erc6551Account",
      "outputs": [
        {
          "internalType": "address",
          "name": "",
          "type": "address"
        }
      ],
      "stateMutability": "view",
      "type": "function"
    },
    {
      "inputs": [],
      "name": "erc6551Registry",
      "outputs": [
        {
          "internalType": "address",
          "name": "",
          "type": "address"
        }
      ],
      "stateMutability": "view",
      "type": "function"
    },
    {
      "inputs": [
        {
          "internalType": "uint256",
          "name": "",
          "type": "uint256"
        }
      ],
      "name": "fieldNames",
      "outputs": [
        {
          "internalType": "string",
          "name": "",
          "type": "string"
        }
      ],
      "stateMutability": "view",
      "type": "function"
    },
    {
      "inputs": [
        {
          "internalType": "uint256",
          "name": "",
          "type": "uint256"
        }
      ],
      "name": "fieldOwners",
      "outputs": [
        {
          "internalType": "address",
          "name": "",
          "type": "address"
        }
      ],
      "stateMutability": "view",
      "type": "function"
    },
    {
      "inputs": [
        {
          "internalType": "uint256",
          "name": "",
          "type": "uint256"
        }
      ],
      "name": "fields",
      "outputs": [
        {
          "internalType": "string",
          "name": "name",
          "type": "string"
        },
        {
          "internalType": "uint256",
          "name": "number",
          "type": "uint256"
        },
        {
          "internalType": "address",
          "name": "owner",
          "type": "address"
        }
      ],
      "stateMutability": "view",
      "type": "function"
    },
    {
      "inputs": [
        {
          "internalType": "uint256",
          "name": "tokenId",
          "type": "uint256"
        }
      ],
      "name": "getApproved",
      "outputs": [
        {
          "internalType": "address",
          "name": "",
          "type": "address"
        }
      ],
      "stateMutability": "view",
      "type": "function"
    },
    {
      "inputs": [
        {
          "internalType": "uint256",
          "name": "amount",
          "type": "uint256"
        },
        {
          "internalType": "uint256",
          "name": "from",
          "type": "uint256"
        }
      ],
      "name": "getFields",
      "outputs": [
        {
          "components": [
            {
              "internalType": "string",
              "name": "name",
              "type": "string"
            },
            {
              "internalType": "uint256",
              "name": "number",
              "type": "uint256"
            },
            {
              "internalType": "address",
              "name": "owner",
              "type": "address"
            }
          ],
          "internalType": "struct ICDH.Field[]",
          "name": "",
          "type": "tuple[]"
        }
      ],
      "stateMutability": "view",
      "type": "function"
    },
    {
      "inputs": [
        {
          "internalType": "uint256",
          "name": "tokenId",
          "type": "uint256"
        },
        {
          "internalType": "uint256",
          "name": "fieldNumber",
          "type": "uint256"
        }
      ],
      "name": "getMetadata",
      "outputs": [
        {
          "internalType": "string",
          "name": "",
          "type": "string"
        }
      ],
      "stateMutability": "view",
      "type": "function"
    },
    {
      "inputs": [
        {
          "internalType": "uint256",
          "name": "amount",
          "type": "uint256"
        },
        {
          "internalType": "uint256",
          "name": "from",
          "type": "uint256"
        }
      ],
      "name": "getOwners",
      "outputs": [
        {
          "internalType": "address[]",
          "name": "",
          "type": "address[]"
        },
        {
          "internalType": "address[]",
          "name": "",
          "type": "address[]"
        }
      ],
      "stateMutability": "view",
      "type": "function"
    },
    {
      "inputs": [
        {
          "internalType": "address",
          "name": "owner",
          "type": "address"
        },
        {
          "internalType": "address",
          "name": "operator",
          "type": "address"
        }
      ],
      "name": "isApprovedForAll",
      "outputs": [
        {
          "internalType": "bool",
          "name": "",
          "type": "bool"
        }
      ],
      "stateMutability": "view",
      "type": "function"
    },
    {
      "inputs": [
        {
          "internalType": "uint256",
          "name": "",
          "type": "uint256"
        },
        {
          "internalType": "uint256",
          "name": "",
          "type": "uint256"
        }
      ],
      "name": "metadatas",
      "outputs": [
        {
          "internalType": "string",
          "name": "",
          "type": "string"
        }
      ],
      "stateMutability": "view",
      "type": "function"
    },
    {
      "inputs": [],
      "name": "name",
      "outputs": [
        {
          "internalType": "string",
          "name": "",
          "type": "string"
        }
      ],
      "stateMutability": "view",
      "type": "function"
    },
    {
      "inputs": [
        {
          "internalType": "uint256",
          "name": "tokenId",
          "type": "uint256"
        }
      ],
      "name": "ownerOf",
      "outputs": [
        {
          "internalType": "address",
          "name": "",
          "type": "address"
        }
      ],
      "stateMutability": "view",
      "type": "function"
    },
    {
      "inputs": [
        {
          "internalType": "uint256",
          "name": "",
          "type": "uint256"
        },
        {
          "internalType": "address",
          "name": "",
          "type": "address"
        },
        {
          "internalType": "uint256",
          "name": "",
          "type": "uint256"
        }
      ],
      "name": "permittedEditors",
      "outputs": [
        {
          "internalType": "bool",
          "name": "",
          "type": "bool"
        }
      ],
      "stateMutability": "view",
      "type": "function"
    },
    {
      "inputs": [
        {
          "internalType": "uint256",
          "name": "fieldNumber",
          "type": "uint256"
        },
        {
          "internalType": "string",
          "name": "fieldName",
          "type": "string"
        }
      ],
      "name": "registerFieldName",
      "outputs": [],
      "stateMutability": "nonpayable",
      "type": "function"
    },
    {
      "inputs": [
        {
          "internalType": "address",
          "name": "to",
          "type": "address"
        },
        {
          "internalType": "string",
          "name": "uri",
          "type": "string"
        }
      ],
      "name": "safeMint",
      "outputs": [],
      "stateMutability": "nonpayable",
      "type": "function"
    },
    {
      "inputs": [
        {
          "internalType": "address",
          "name": "from",
          "type": "address"
        },
        {
          "internalType": "address",
          "name": "to",
          "type": "address"
        },
        {
          "internalType": "uint256",
          "name": "tokenId",
          "type": "uint256"
        }
      ],
      "name": "safeTransferFrom",
      "outputs": [],
      "stateMutability": "nonpayable",
      "type": "function"
    },
    {
      "inputs": [
        {
          "internalType": "address",
          "name": "from",
          "type": "address"
        },
        {
          "internalType": "address",
          "name": "to",
          "type": "address"
        },
        {
          "internalType": "uint256",
          "name": "tokenId",
          "type": "uint256"
        },
        {
          "internalType": "bytes",
          "name": "_data",
          "type": "bytes"
        }
      ],
      "name": "safeTransferFrom",
      "outputs": [],
      "stateMutability": "pure",
      "type": "function"
    },
    {
      "inputs": [
        {
          "internalType": "address",
          "name": "operator",
          "type": "address"
        },
        {
          "internalType": "bool",
          "name": "approved",
          "type": "bool"
        }
      ],
      "name": "setApprovalForAll",
      "outputs": [],
      "stateMutability": "pure",
      "type": "function"
    },
    {
      "inputs": [
        {
          "internalType": "uint256",
          "name": "tokenId",
          "type": "uint256"
        },
        {
          "internalType": "address",
          "name": "editor",
          "type": "address"
        },
        {
          "internalType": "uint256",
          "name": "fieldNumber",
          "type": "uint256"
        },
        {
          "internalType": "bool",
          "name": "permission",
          "type": "bool"
        }
      ],
      "name": "setPermittedEditor",
      "outputs": [],
      "stateMutability": "nonpayable",
      "type": "function"
    },
    {
      "inputs": [
        {
          "internalType": "bytes4",
          "name": "interfaceId",
          "type": "bytes4"
        }
      ],
      "name": "supportsInterface",
      "outputs": [
        {
          "internalType": "bool",
          "name": "",
          "type": "bool"
        }
      ],
      "stateMutability": "view",
      "type": "function"
    },
    {
      "inputs": [],
      "name": "symbol",
      "outputs": [
        {
          "internalType": "string",
          "name": "",
          "type": "string"
        }
      ],
      "stateMutability": "view",
      "type": "function"
    },
    {
      "inputs": [
        {
          "internalType": "uint256",
          "name": "index",
          "type": "uint256"
        }
      ],
      "name": "tokenByIndex",
      "outputs": [
        {
          "internalType": "uint256",
          "name": "",
          "type": "uint256"
        }
      ],
      "stateMutability": "view",
      "type": "function"
    },
    {
      "inputs": [
        {
          "internalType": "uint256",
          "name": "",
          "type": "uint256"
        }
      ],
      "name": "tokenIdToTbaAccount",
      "outputs": [
        {
          "internalType": "address",
          "name": "",
          "type": "address"
        }
      ],
      "stateMutability": "view",
      "type": "function"
    },
    {
      "inputs": [
        {
          "internalType": "uint256",
          "name": "",
          "type": "uint256"
        }
      ],
      "name": "tokenMetadatas",
      "outputs": [
        {
          "internalType": "string",
          "name": "",
          "type": "string"
        }
      ],
      "stateMutability": "view",
      "type": "function"
    },
    {
      "inputs": [
        {
          "internalType": "address",
          "name": "owner",
          "type": "address"
        },
        {
          "internalType": "uint256",
          "name": "index",
          "type": "uint256"
        }
      ],
      "name": "tokenOfOwnerByIndex",
      "outputs": [
        {
          "internalType": "uint256",
          "name": "",
          "type": "uint256"
        }
      ],
      "stateMutability": "view",
      "type": "function"
    },
    {
      "inputs": [
        {
          "internalType": "uint256",
          "name": "tokenId",
          "type": "uint256"
        }
      ],
      "name": "tokenURI",
      "outputs": [
        {
          "internalType": "string",
          "name": "",
          "type": "string"
        }
      ],
      "stateMutability": "view",
      "type": "function"
    },
    {
      "inputs": [],
      "name": "totalSupply",
      "outputs": [
        {
          "internalType": "uint256",
          "name": "",
          "type": "uint256"
        }
      ],
      "stateMutability": "view",
      "type": "function"
    },
    {
      "inputs": [
        {
          "internalType": "address",
          "name": "from",
          "type": "address"
        },
        {
          "internalType": "address",
          "name": "to",
          "type": "address"
        },
        {
          "internalType": "uint256",
          "name": "tokenId",
          "type": "uint256"
        }
      ],
      "name": "transferFrom",
      "outputs": [],
      "stateMutability": "pure",
      "type": "function"
    },
    {
      "inputs": [
        {
          "internalType": "uint256",
          "name": "fieldNumber",
          "type": "uint256"
        },
        {
          "internalType": "string",
          "name": "newFieldName",
          "type": "string"
        }
      ],
      "name": "updateFieldName",
      "outputs": [],
      "stateMutability": "nonpayable",
      "type": "function"
    },
    {
      "inputs": [
        {
          "internalType": "uint256",
          "name": "tokenId",
          "type": "uint256"
        },
        {
          "internalType": "uint256",
          "name": "fieldNumber",
          "type": "uint256"
        },
        {
          "internalType": "string",
          "name": "newValue",
          "type": "string"
        }
      ],
      "name": "updateMetadata",
      "outputs": [],
      "stateMutability": "nonpayable",
      "type": "function"
    }
  ],
  "transactionHash": "0x807ed9210ea2aa27f9041e0bb94e7fd19fdcf1f3bb9f408a6a34b325cc46615c",
  "args": [
    "CDH NFT",
    "CDH",
    "0x9A898F020Db575A5Dd951189B8D44f6e4d84FF5B",
    "0x95a8eD5026AC829C4F02c051C2553891c9fD98C7"
  ],
  "numDeployments": 11,
  "solcInputHash": "02019c9523377f78545a8507d8f99f5e",
  "bytecode": "0x60806040523480156200001157600080fd5b50604051620034d6380380620034d6833981016040819052620000349162000179565b8383600062000044838262000299565b50600162000053828262000299565b5050600c80546001600160a01b039485166001600160a01b031991821617909155600b80549390941692169190911790915550506115b3600d555062000365565b634e487b7160e01b600052604160045260246000fd5b600082601f830112620000bc57600080fd5b81516001600160401b0380821115620000d957620000d962000094565b604051601f8301601f19908116603f0116810190828211818310171562000104576200010462000094565b81604052838152602092508660208588010111156200012257600080fd5b600091505b8382101562000146578582018301518183018401529082019062000127565b6000602085830101528094505050505092915050565b80516001600160a01b03811681146200017457600080fd5b919050565b600080600080608085870312156200019057600080fd5b84516001600160401b0380821115620001a857600080fd5b620001b688838901620000aa565b95506020870151915080821115620001cd57600080fd5b50620001dc87828801620000aa565b935050620001ed604086016200015c565b9150620001fd606086016200015c565b905092959194509250565b600181811c908216806200021d57607f821691505b6020821081036200023e57634e487b7160e01b600052602260045260246000fd5b50919050565b601f82111562000294576000816000526020600020601f850160051c810160208610156200026f5750805b601f850160051c820191505b8181101562000290578281556001016200027b565b5050505b505050565b81516001600160401b03811115620002b557620002b562000094565b620002cd81620002c6845462000208565b8462000244565b602080601f831160018114620003055760008415620002ec5750858301515b600019600386901b1c1916600185901b17855562000290565b600085815260208120601f198616915b82811015620003365788860151825594840194600190910190840162000315565b5085821015620003555787850151600019600388901b60f8161c191681555b5050505050600190811b01905550565b61316180620003756000396000f3fe608060405234801561001057600080fd5b50600436106102325760003560e01c8063629bca6711610130578063a22cb465116100b8578063c87b56dd1161007c578063c87b56dd14610543578063d060105a14610556578063d204c45e14610576578063e985e9c514610589578063ff09a1a41461059c57600080fd5b8063a22cb465146104e1578063add96d9f146104ef578063b2d3dd6614610502578063b88d4fde14610515578063c07650851461052357600080fd5b80637477efa4116100ff5780637477efa414610481578063827dec44146104945780638ffdc678146104bd57806395d89b41146104d05780639a8a0592146104d857600080fd5b8063629bca67146104355780636352211e146104485780636b5631451461045b57806370a082311461046e57600080fd5b80631b298394116101be57806342842e0e1161018257806342842e0e146103d657806342966c68146103e957806342bf2dee146103fc57806344c6f01f1461040f5780634f6ccce71461042257600080fd5b80631b2983941461034557806323add49b1461036e57806323b872dd146103a25780632f745c59146103b05780633b9ede15146103c357600080fd5b8063077101f311610205578063077101f3146102c0578063081812fc146102e9578063095ea7b3146102fc57806318160ddd14610311578063191378561461032357600080fd5b806301ffc9a714610237578063048220581461025f578063056d5afe1461028057806306fdde03146102ab575b600080fd5b61024a6102453660046125f0565b6105af565b60405190151581526020015b60405180910390f35b61027261026d366004612614565b6105c0565b60405161025692919061267b565b600c54610293906001600160a01b031681565b6040516001600160a01b039091168152602001610256565b6102b3610749565b60405161025691906126f9565b6102936102ce36600461270c565b6011602052600090815260409020546001600160a01b031681565b6102936102f736600461270c565b6107db565b61030f61030a36600461273a565b610804565b005b6008545b604051908152602001610256565b61033661033136600461270c565b61081d565b60405161025693929190612766565b610293610353366004612799565b6016602052600090815260409020546001600160a01b031681565b61024a61037c3660046127b6565b600f60209081526000938452604080852082529284528284209052825290205460ff1681565b61030f61030a3660046127ee565b6103156103be36600461273a565b6108e9565b61030f6103d13660046128c9565b610953565b61030f6103e43660046127ee565b610a77565b61030f6103f736600461270c565b610a97565b6102b361040a366004612614565b610aa7565b600b54610293906001600160a01b031681565b61031561043036600461270c565b610b4c565b6102b361044336600461270c565b610ba5565b61029361045636600461270c565b610bbe565b61030f610469366004612928565b610bc9565b61031561047c366004612799565b610c6e565b6102b361048f366004612614565b610cb6565b6102936104a236600461270c565b6015602052600090815260409020546001600160a01b031681565b61030f6104cb366004612970565b610d64565b6102b3610e86565b610315600d5481565b61030f61030a3660046129eb565b61030f6104fd366004612970565b610e95565b6102b361051036600461270c565b610faf565b61030f61030a366004612a20565b610315610531366004612799565b60146020526000908152604090205481565b6102b361055136600461270c565b610fc8565b610569610564366004612614565b61106a565b6040516102569190612a9f565b61030f610584366004612b2b565b611296565b61024a610597366004612b7a565b611443565b61030f6105aa3660046128c9565b611471565b60006105ba8261157d565b92915050565b60608060006105ce60085490565b90508084106105f6575050604080516000808252602082019081528183019092529150610742565b6000816106038787612bc9565b1161060e5785610618565b6106188583612bdc565b90506000816001600160401b038111156106345761063461281e565b60405190808252806020026020018201604052801561065d578160200160208202803683370190505b5090506000826001600160401b0381111561067a5761067a61281e565b6040519080825280602002602001820160405280156106a3578160200160208202803683370190505b50905060005b838110156107395760006106c0610456838b612bc9565b9050808483815181106106d5576106d5612bef565b6001600160a01b03928316602091820292909201810191909152828216600090815260169091526040902054845191169084908490811061071857610718612bef565b6001600160a01b0390921660209283029190910190910152506001016106a9565b50909450925050505b9250929050565b60606000805461075890612c05565b80601f016020809104026020016040519081016040528092919081815260200182805461078490612c05565b80156107d15780601f106107a6576101008083540402835291602001916107d1565b820191906000526020600020905b8154815290600101906020018083116107b457829003601f168201915b5050505050905090565b60006107e6826115a2565b506000828152600460205260409020546001600160a01b03166105ba565b604051636e10574960e01b815260040160405180910390fd5b6012818154811061082d57600080fd5b906000526020600020906003020160009150905080600001805461085090612c05565b80601f016020809104026020016040519081016040528092919081815260200182805461087c90612c05565b80156108c95780601f1061089e576101008083540402835291602001916108c9565b820191906000526020600020905b8154815290600101906020018083116108ac57829003601f168201915b5050505060018301546002909301549192916001600160a01b0316905083565b60006108f483610c6e565b821061092a5760405163295f44f760e21b81526001600160a01b0384166004820152602481018390526044015b60405180910390fd5b506001600160a01b03919091166000908152600660209081526040808320938352929052205490565b82823361095f83610bbe565b6001600160a01b03161415801561099857506000828152600f60209081526040808320338452825280832084845290915290205460ff16155b156109b957604051636790209b60e01b815260048101839052602401610921565b6000858152600e60209081526040808320878452909152902080546109dd90612c05565b159050610a0757604051631d9b543b60e01b81526004810186905260248101859052604401610921565b6000858152600e602090815260408083208784529091529020610a2a8482612c87565b50610a368585856115db565b847f7a022d975c0dae0c636c689ab501992711b27820f19d842dc0742a715fd7eaf28585604051610a68929190612d46565b60405180910390a25050505050565b610a9283838360405180602001604052806000815250610804565b505050565b610aa360008233611733565b5050565b600e60209081526000928352604080842090915290825290208054610acb90612c05565b80601f0160208091040260200160405190810160405280929190818152602001828054610af790612c05565b8015610b445780601f10610b1957610100808354040283529160200191610b44565b820191906000526020600020905b815481529060010190602001808311610b2757829003601f168201915b505050505081565b6000610b5760085490565b8210610b805760405163295f44f760e21b81526000600482015260248101839052604401610921565b60088281548110610b9357610b93612bef565b90600052602060002001549050919050565b60136020526000908152604090208054610acb90612c05565b60006105ba826115a2565b33610bd385610bbe565b6001600160a01b031614610bfa57604051635c427cd960e01b815260040160405180910390fd5b6000848152600f602090815260408083206001600160a01b038716808552908352818420868552835292819020805460ff1916851515908117909155905190815286917f5c7776c268f44fac4ad955cec2d6638288e2695da53b5cdaab9ff389d1ef48c9910160405180910390a350505050565b60006001600160a01b038216610c9a576040516322718ad960e21b815260006004820152602401610921565b506001600160a01b031660009081526003602052604090205490565b6000828152600e602090815260408083208484529091529020805460609190610cde90612c05565b80601f0160208091040260200160405190810160405280929190818152602001828054610d0a90612c05565b8015610d575780601f10610d2c57610100808354040283529160200191610d57565b820191906000526020600020905b815481529060010190602001808311610d3a57829003601f168201915b5050505050905092915050565b60008381526010602052604090208054610d7d90612c05565b159050610da05760405163072f7ecd60e21b815260048101849052602401610921565b6000838152601060205260409020610db9828483612d5f565b5060008381526011602090815260409182902080546001600160a01b0319163317905581516080601f8501839004909202810182019092526060820183815260129291829190869086908190850183828082843760009201829052509385525050506020808301889052336040909301929092528354600181018555938152208151919260030201908190610e4e9082612c87565b5060208201516001820155604090910151600290910180546001600160a01b0319166001600160a01b03909216919091179055505050565b60606001805461075890612c05565b60008381526011602052604090205483906001600160a01b03163314610ef757600081815260116020526040908190205490516316cdf54f60e01b8152600481018390523360248201526001600160a01b039091166044820152606401610921565b60008481526010602052604090208054610f1090612c05565b9050600003610f3557604051631484efdd60e21b815260048101859052602401610921565b6000829003610f5b57828260405163624bd42f60e01b8152600401610921929190612e1e565b6000848152601060205260409020610f74838583612d5f565b50828260128681548110610f8a57610f8a612bef565b90600052602060002090600302016000019182610fa8929190612d5f565b5050505050565b60106020526000908152604090208054610acb90612c05565b6000818152601360205260409020805460609190610fe590612c05565b80601f016020809104026020016040519081016040528092919081815260200182805461101190612c05565b801561105e5780601f106110335761010080835404028352916020019161105e565b820191906000526020600020905b81548152906001019060200180831161104157829003601f168201915b50505050509050919050565b6012546060908083106110d65760408051600080825260208201909252906110cd565b6110ba6040518060600160405280606081526020016000815260200160006001600160a01b031681525090565b81526020019060019003908161108d5790505b509150506105ba565b6000816110e38686612bc9565b116110ee57846110f8565b6110f88483612bdc565b90506000816001600160401b038111156111145761111461281e565b60405190808252806020026020018201604052801561117257816020015b61115f6040518060600160405280606081526020016000815260200160006001600160a01b031681525090565b8152602001906001900390816111325790505b50905060005b8281101561128c57601261118c8288612bc9565b8154811061119c5761119c612bef565b90600052602060002090600302016040518060600160405290816000820180546111c590612c05565b80601f01602080910402602001604051908101604052809291908181526020018280546111f190612c05565b801561123e5780601f106112135761010080835404028352916020019161123e565b820191906000526020600020905b81548152906001019060200180831161122157829003601f168201915b5050509183525050600182015460208201526002909101546001600160a01b0316604090910152825183908390811061127957611279612bef565b6020908102919091010152600101611178565b5095945050505050565b8160006112a282610c6e565b11156112cc5760405163149d80a360e11b81526001600160a01b0382166004820152602401610921565b600a8054600091826112dd83612e4d565b9190505590506112ed8482611748565b600c54600b54600d54604051638a54c52f60e01b81526001600160a01b039283166004820152602481018590526044810191909152306064820152608481018490526000929190911690638a54c52f9060a4016020604051808303816000875af115801561135f573d6000803e3d6000fd5b505050506040513d601f19601f820116820180604052508101906113839190612e66565b600083815260156020908152604080832080546001600160a01b038087166001600160a01b031992831681179093558b16855260168452828520805490911690911790556014909152902083905590506114056113df83611762565b856040516020016113f1929190612e83565b6040516020818303038152906040526117f4565b6040516020016114159190612f16565b60408051601f1981840301815291815260008481526013602052209061143b9082612c87565b505050505050565b6001600160a01b03918216600090815260056020908152604080832093909416825291909152205460ff1690565b82823361147d83610bbe565b6001600160a01b0316141580156114b657506000828152600f60209081526040808320338452825280832084845290915290205460ff16155b156114d757604051636790209b60e01b815260048101839052602401610921565b6000858152600e60209081526040808320878452909152902080546114fb90612c05565b905060000361152757604051631638220360e31b81526004810186905260248101859052604401610921565b6000858152600e60209081526040808320878452909152902061154a8482612c87565b50847f8a9307e5e4fabae00de1b406aebeef87de6d231e52fe8251c01ff274b8f79bbc8585604051610a68929190612d46565b60006001600160e01b0319821663780e9d6360e01b14806105ba57506105ba82611953565b6000818152600260205260408120546001600160a01b0316806105ba57604051637e27328960e01b815260048101849052602401610921565b6000838152601360205260408120805461167c91906115f990612c05565b80601f016020809104026020016040519081016040528092919081815260200182805461162590612c05565b80156116725780601f1061164757610100808354040283529160200191611672565b820191906000526020600020905b81548152906001019060200180831161165557829003601f168201915b50505050506119a3565b90506000819050600081600183516116949190612bdc565b815181106116a4576116a4612bef565b60200101906001600160f81b031916908160001a9053506000816116c786611762565b856040516020016116da93929190612f5b565b60405160208183030381529060405290506116f4816117f4565b6040516020016117049190612f16565b60408051601f1981840301815291815260008881526013602052209061172a9082612c87565b50505050505050565b6000611740848484611cbb565b949350505050565b610aa3828260405180602001604052806000815250611d88565b6060600061176f83611d9f565b60010190506000816001600160401b0381111561178e5761178e61281e565b6040519080825280601f01601f1916602001820160405280156117b8576020820181803683370190505b5090508181016020015b600019016f181899199a1a9b1b9c1cb0b131b232b360811b600a86061a8153600a85049450846117c257509392505050565b6060815160000361181357505060408051602081019091526000815290565b60006040518060600160405280604081526020016130ec60409139905060006003845160026118429190612bc9565b61184c9190612fe4565b611857906004612ff8565b6001600160401b0381111561186e5761186e61281e565b6040519080825280601f01601f191660200182016040528015611898576020820181803683370190505b50905060018201602082018586518701602081018051600082525b8284101561190e576003840193508351603f8160121c168701518653600186019550603f81600c1c168701518653600186019550603f8160061c168701518653600186019550603f81168701518653506001850194506118b3565b905250508551600390066001811461192d576002811461194057611948565b603d6001830353603d6002830353611948565b603d60018303535b509195945050505050565b60006001600160e01b031982166380ac58cd60e01b148061198457506001600160e01b03198216635b5e139f60e01b145b806105ba57506301ffc9a760e01b6001600160e01b03198316146105ba565b6060600482516119b3919061300f565b15611a005760405162461bcd60e51b815260206004820152601860248201527f4c656e677468206e6f74206d756c7469706c65206f66203400000000000000006044820152606401610921565b6000829050600080600060048451611a189190612fe4565b611a23906003612ff8565b90506000816001600160401b03811115611a3f57611a3f61281e565b6040519080825280601f01601f191660200182016040528015611a69576020820181803683370190505b5090505b8451841015611bca57611b20858581518110611a8b57611a8b612bef565b01602001516001600160f81b03191686611aa6876001612bc9565b81518110611ab657611ab6612bef565b01602001516001600160f81b03191687611ad1886002612bc9565b81518110611ae157611ae1612bef565b01602001516001600160f81b03191688611afc896003612bc9565b81518110611b0c57611b0c612bef565b01602001516001600160f81b031916611e77565b838681518110611b3257611b32612bef565b0160200184611b42886001612bc9565b81518110611b5257611b52612bef565b0160200185611b62896002612bc9565b81518110611b7257611b72612bef565b6001600160f81b0319851660001a9101602001536001600160f81b0319841660001a90536001600160f81b0319841660001a9053505050600383611bb69190612bc9565b9250611bc3600485612bc9565b9350611a6d565b80611bd484613023565b93508381518110611be757611be7612bef565b01602001516001600160f81b03191615611bca576000611c08846001612bc9565b6001600160401b03811115611c1f57611c1f61281e565b6040519080825280601f01601f191660200182016040528015611c49576020820181803683370190505b509050600094505b838511611cb057818581518110611c6a57611c6a612bef565b602001015160f81c60f81b818681518110611c8757611c87612bef565b60200101906001600160f81b031916908160001a90535084611ca881612e4d565b955050611c51565b979650505050505050565b600080611cc9858585611f07565b90506001600160a01b038116611d2657611d2184600880546000838152600960205260408120829055600182018355919091527ff3f7a9fe364faab93b216da50a3214154f22a0a2b415b23a84c8169e8b636ee30155565b611d49565b846001600160a01b0316816001600160a01b031614611d4957611d498185612000565b6001600160a01b038516611d6557611d6084612091565b611740565b846001600160a01b0316816001600160a01b031614611740576117408585612140565b611d928383612190565b610a9260008484846121f5565b60008072184f03e93ff9f4daa797ed6e38ed64bf6a1f0160401b8310611dde5772184f03e93ff9f4daa797ed6e38ed64bf6a1f0160401b830492506040015b6d04ee2d6d415b85acef81000000008310611e0a576d04ee2d6d415b85acef8100000000830492506020015b662386f26fc100008310611e2857662386f26fc10000830492506010015b6305f5e1008310611e40576305f5e100830492506008015b6127108310611e5457612710830492506004015b60648310611e66576064830492506002015b600a83106105ba5760010192915050565b600080600080611e868861231d565b90506000611e938861231d565b905060006040611ea28961231d565b611eac919061300f565b905060006040611ebb8961231d565b611ec5919061300f565b9050600483901c600285901b1760f81b9650600282901c600484600f16901b1760f81b955080600683600316901b1760f81b9450505050509450945094915050565b6000828152600260205260408120546001600160a01b0390811690831615611f3457611f3481848661240a565b6001600160a01b03811615611f7257611f5160008560008061246e565b6001600160a01b038116600090815260036020526040902080546000190190555b6001600160a01b03851615611fa1576001600160a01b0385166000908152600360205260409020805460010190555b60008481526002602052604080822080546001600160a01b0319166001600160a01b0389811691821790925591518793918516917fddf252ad1be2c89b69c2b068fc378daa952ba7f163c4a11628f55a4df523b3ef91a4949350505050565b600061200b83610c6e565b60008381526007602052604090205490915080821461205e576001600160a01b03841660009081526006602090815260408083208584528252808320548484528184208190558352600790915290208190555b5060009182526007602090815260408084208490556001600160a01b039094168352600681528383209183525290812055565b6008546000906120a390600190612bdc565b600083815260096020526040812054600880549394509092849081106120cb576120cb612bef565b9060005260206000200154905080600883815481106120ec576120ec612bef565b60009182526020808320909101929092558281526009909152604080822084905585825281205560088054806121245761212461303a565b6001900381819060005260206000200160009055905550505050565b6000600161214d84610c6e565b6121579190612bdc565b6001600160a01b039093166000908152600660209081526040808320868452825280832085905593825260079052919091209190915550565b6001600160a01b0382166121ba57604051633250574960e11b815260006004820152602401610921565b60006121c883836000611733565b90506001600160a01b03811615610a92576040516339e3563760e11b815260006004820152602401610921565b6001600160a01b0383163b1561231757604051630a85bd0160e11b81526001600160a01b0384169063150b7a0290612237903390889087908790600401613050565b6020604051808303816000875af1925050508015612272575060408051601f3d908101601f1916820190925261226f9181019061308d565b60015b6122db573d8080156122a0576040519150601f19603f3d011682016040523d82523d6000602084013e6122a5565b606091505b5080516000036122d357604051633250574960e11b81526001600160a01b0385166004820152602401610921565b805181602001fd5b6001600160e01b03198116630a85bd0160e11b14610fa857604051633250574960e11b81526001600160a01b0385166004820152602401610921565b50505050565b60005b816001600160f81b0319166040518060800160405280604181526020016130ab60419139828151811061235557612355612bef565b01602001516001600160f81b0319161461237b578061237381612e4d565b915050612320565b816001600160f81b0319166040518060800160405280604181526020016130ab6041913982815181106123b0576123b0612bef565b01602001516001600160f81b031916146124055760405162461bcd60e51b8152602060048201526016602482015275496c6c6567616c206368617220696e20737472696e6760501b6044820152606401610921565b919050565b612415838383612574565b610a92576001600160a01b03831661244357604051637e27328960e01b815260048101829052602401610921565b60405163177e802f60e01b81526001600160a01b038316600482015260248101829052604401610921565b808061248257506001600160a01b03821615155b15612544576000612492846115a2565b90506001600160a01b038316158015906124be5750826001600160a01b0316816001600160a01b031614155b80156124d157506124cf8184611443565b155b156124fa5760405163a9fbf51f60e01b81526001600160a01b0384166004820152602401610921565b81156125425783856001600160a01b0316826001600160a01b03167f8c5be1e5ebec7d5bd14f71427d1e84f3dd0314c0f7b2291e5b200ac8c7c3b92560405160405180910390a45b505b5050600090815260046020526040902080546001600160a01b0319166001600160a01b0392909216919091179055565b60006001600160a01b038316158015906117405750826001600160a01b0316846001600160a01b031614806125ae57506125ae8484611443565b806117405750506000908152600460205260409020546001600160a01b03908116911614919050565b6001600160e01b0319811681146125ed57600080fd5b50565b60006020828403121561260257600080fd5b813561260d816125d7565b9392505050565b6000806040838503121561262757600080fd5b50508035926020909101359150565b60008151808452602080850194506020840160005b838110156126705781516001600160a01b03168752958201959082019060010161264b565b509495945050505050565b60408152600061268e6040830185612636565b82810360208401526126a08185612636565b95945050505050565b60005b838110156126c45781810151838201526020016126ac565b50506000910152565b600081518084526126e58160208601602086016126a9565b601f01601f19169290920160200192915050565b60208152600061260d60208301846126cd565b60006020828403121561271e57600080fd5b5035919050565b6001600160a01b03811681146125ed57600080fd5b6000806040838503121561274d57600080fd5b823561275881612725565b946020939093013593505050565b60608152600061277960608301866126cd565b6020830194909452506001600160a01b0391909116604090910152919050565b6000602082840312156127ab57600080fd5b813561260d81612725565b6000806000606084860312156127cb57600080fd5b8335925060208401356127dd81612725565b929592945050506040919091013590565b60008060006060848603121561280357600080fd5b833561280e81612725565b925060208401356127dd81612725565b634e487b7160e01b600052604160045260246000fd5b60006001600160401b038084111561284e5761284e61281e565b604051601f8501601f19908116603f011681019082821181831017156128765761287661281e565b8160405280935085815286868601111561288f57600080fd5b858560208301376000602087830101525050509392505050565b600082601f8301126128ba57600080fd5b61260d83833560208501612834565b6000806000606084860312156128de57600080fd5b833592506020840135915060408401356001600160401b0381111561290257600080fd5b61290e868287016128a9565b9150509250925092565b8035801515811461240557600080fd5b6000806000806080858703121561293e57600080fd5b84359350602085013561295081612725565b92506040850135915061296560608601612918565b905092959194509250565b60008060006040848603121561298557600080fd5b8335925060208401356001600160401b03808211156129a357600080fd5b818601915086601f8301126129b757600080fd5b8135818111156129c657600080fd5b8760208285010111156129d857600080fd5b6020830194508093505050509250925092565b600080604083850312156129fe57600080fd5b8235612a0981612725565b9150612a1760208401612918565b90509250929050565b60008060008060808587031215612a3657600080fd5b8435612a4181612725565b93506020850135612a5181612725565b92506040850135915060608501356001600160401b03811115612a7357600080fd5b8501601f81018713612a8457600080fd5b612a9387823560208401612834565b91505092959194509250565b600060208083018184528085518083526040925060408601915060408160051b87010184880160005b83811015612b1d57603f19898403018552815160608151818652612aee828701826126cd565b838b0151878c0152928901516001600160a01b0316958901959095525094870194925090860190600101612ac8565b509098975050505050505050565b60008060408385031215612b3e57600080fd5b8235612b4981612725565b915060208301356001600160401b03811115612b6457600080fd5b612b70858286016128a9565b9150509250929050565b60008060408385031215612b8d57600080fd5b8235612b9881612725565b91506020830135612ba881612725565b809150509250929050565b634e487b7160e01b600052601160045260246000fd5b808201808211156105ba576105ba612bb3565b818103818111156105ba576105ba612bb3565b634e487b7160e01b600052603260045260246000fd5b600181811c90821680612c1957607f821691505b602082108103612c3957634e487b7160e01b600052602260045260246000fd5b50919050565b601f821115610a92576000816000526020600020601f850160051c81016020861015612c685750805b601f850160051c820191505b8181101561143b57828155600101612c74565b81516001600160401b03811115612ca057612ca061281e565b612cb481612cae8454612c05565b84612c3f565b602080601f831160018114612ce95760008415612cd15750858301515b600019600386901b1c1916600185901b17855561143b565b600085815260208120601f198616915b82811015612d1857888601518255948401946001909101908401612cf9565b5085821015612d365787850151600019600388901b60f8161c191681555b5050505050600190811b01905550565b82815260406020820152600061174060408301846126cd565b6001600160401b03831115612d7657612d7661281e565b612d8a83612d848354612c05565b83612c3f565b6000601f841160018114612dbe5760008515612da65750838201355b600019600387901b1c1916600186901b178355610fa8565b600083815260209020601f19861690835b82811015612def5786850135825560209485019460019092019101612dcf565b5086821015612e0c5760001960f88860031b161c19848701351681555b505060018560011b0183555050505050565b60208152816020820152818360408301376000818301604090810191909152601f909201601f19160101919050565b600060018201612e5f57612e5f612bb3565b5060010190565b600060208284031215612e7857600080fd5b815161260d81612725565b6e7b226e616d65223a2022434448202360881b81528251600090612eae81600f8501602088016126a9565b7f222c20226465736372697074696f6e223a2022434448204e4654222c2022696d600f918401918201526630b3b2911d101160c91b602f8201528351612efb8160368401602088016126a9565b61227d60f01b60369290910191820152603801949350505050565b7f646174613a6170706c69636174696f6e2f6a736f6e3b6261736536342c000000815260008251612f4e81601d8501602087016126a9565b91909101601d0192915050565b60008451612f6d8184602089016126a9565b6216101160e91b9083019081528451612f8d8160038401602089016126a9565b63111d101160e11b600392909101918201528351612fb28160078401602088016126a9565b61227d60f01b6007929091019182015260090195945050505050565b634e487b7160e01b600052601260045260246000fd5b600082612ff357612ff3612fce565b500490565b80820281158282048414176105ba576105ba612bb3565b60008261301e5761301e612fce565b500690565b60008161303257613032612bb3565b506000190190565b634e487b7160e01b600052603160045260246000fd5b6001600160a01b0385811682528416602082015260408101839052608060608201819052600090613083908301846126cd565b9695505050505050565b60006020828403121561309f57600080fd5b815161260d816125d756fe4142434445464748494a4b4c4d4e4f505152535455565758595a6162636465666768696a6b6c6d6e6f707172737475767778797a303132333435363738392d5f3d4142434445464748494a4b4c4d4e4f505152535455565758595a6162636465666768696a6b6c6d6e6f707172737475767778797a303132333435363738392b2fa2646970667358221220e177760645f9728c8ef89cfcc99d9f0767c9d6ecde9d2c17e2e0786dd7950e8864736f6c63430008170033",
  "devdoc": {
    "errors": {
      "ERC721EnumerableForbiddenBatchMint()": [
        {
          "details": "Batch mint is not allowed."
        }
      ],
      "ERC721IncorrectOwner(address,uint256,address)": [
        {
          "details": "Indicates an error related to the ownership over a particular token. Used in transfers.",
          "params": {
            "owner": "Address of the current owner of a token.",
            "sender": "Address whose tokens are being transferred.",
            "tokenId": "Identifier number of a token."
          }
        }
      ],
      "ERC721InsufficientApproval(address,uint256)": [
        {
          "details": "Indicates a failure with the `operator`s approval. Used in transfers.",
          "params": {
            "operator": "Address that may be allowed to operate on tokens without being their owner.",
            "tokenId": "Identifier number of a token."
          }
        }
      ],
      "ERC721InvalidApprover(address)": [
        {
          "details": "Indicates a failure with the `approver` of a token to be approved. Used in approvals.",
          "params": {
            "approver": "Address initiating an approval operation."
          }
        }
      ],
      "ERC721InvalidOperator(address)": [
        {
          "details": "Indicates a failure with the `operator` to be approved. Used in approvals.",
          "params": {
            "operator": "Address that may be allowed to operate on tokens without being their owner."
          }
        }
      ],
      "ERC721InvalidOwner(address)": [
        {
          "details": "Indicates that an address can't be an owner. For example, `address(0)` is a forbidden owner in EIP-20. Used in balance queries.",
          "params": {
            "owner": "Address of the current owner of a token."
          }
        }
      ],
      "ERC721InvalidReceiver(address)": [
        {
          "details": "Indicates a failure with the token `receiver`. Used in transfers.",
          "params": {
            "receiver": "Address to which tokens are being transferred."
          }
        }
      ],
      "ERC721InvalidSender(address)": [
        {
          "details": "Indicates a failure with the token `sender`. Used in transfers.",
          "params": {
            "sender": "Address whose tokens are being transferred."
          }
        }
      ],
      "ERC721NonexistentToken(uint256)": [
        {
          "details": "Indicates a `tokenId` whose `owner` is the zero address.",
          "params": {
            "tokenId": "Identifier number of a token."
          }
        }
      ],
      "ERC721OutOfBoundsIndex(address,uint256)": [
        {
          "details": "An `owner`'s token query was out of bounds for `index`. NOTE: The owner being `address(0)` indicates a global out of bounds index."
        }
      ]
    },
    "events": {
      "Approval(address,address,uint256)": {
        "details": "Emitted when `owner` enables `approved` to manage the `tokenId` token."
      },
      "ApprovalForAll(address,address,bool)": {
        "details": "Emitted when `owner` enables or disables (`approved`) `operator` to manage all of its assets."
      },
      "Transfer(address,address,uint256)": {
        "details": "Emitted when `tokenId` token is transferred from `from` to `to`."
      }
    },
    "kind": "dev",
    "methods": {
      "addMetadata(uint256,uint256,string)": {
        "params": {
          "fieldNumber": "field number",
          "fieldValue": "field value",
          "tokenId": "token id"
        }
      },
      "balanceOf(address)": {
        "details": "See {IERC721-balanceOf}."
      },
      "burn(uint256)": {
        "details": "Burns `tokenId`. See {ERC721-_burn}. Requirements: - The caller must own `tokenId` or be an approved operator."
      },
      "getApproved(uint256)": {
        "details": "See {IERC721-getApproved}."
      },
      "getMetadata(uint256,uint256)": {
        "params": {
          "fieldNumber": "field number",
          "tokenId": "token id"
        }
      },
      "getOwners(uint256,uint256)": {
        "params": {
          "amount": "amount",
          "from": "starting index"
        }
      },
      "isApprovedForAll(address,address)": {
        "details": "See {IERC721-isApprovedForAll}."
      },
      "name()": {
        "details": "See {IERC721Metadata-name}."
      },
      "ownerOf(uint256)": {
        "details": "See {IERC721-ownerOf}."
      },
      "registerFieldName(uint256,string)": {
        "params": {
          "fieldName": "field name",
          "fieldNumber": "field number"
        }
      },
      "safeMint(address,string)": {
        "params": {
          "to": "to",
          "uri": "uri"
        }
      },
      "safeTransferFrom(address,address,uint256)": {
        "details": "See {IERC721-safeTransferFrom}."
      },
      "setPermittedEditor(uint256,address,uint256,bool)": {
        "params": {
          "editor": "editor address",
          "fieldNumber": "field number",
          "permission": "permission",
          "tokenId": "token id"
        }
      },
      "supportsInterface(bytes4)": {
        "params": {
          "interfaceId": "interface id"
        }
      },
      "symbol()": {
        "details": "See {IERC721Metadata-symbol}."
      },
      "tokenByIndex(uint256)": {
        "details": "See {IERC721Enumerable-tokenByIndex}."
      },
      "tokenOfOwnerByIndex(address,uint256)": {
        "details": "See {IERC721Enumerable-tokenOfOwnerByIndex}."
      },
      "tokenURI(uint256)": {
        "params": {
          "tokenId": "token id"
        }
      },
      "totalSupply()": {
        "details": "See {IERC721Enumerable-totalSupply}."
      },
      "updateFieldName(uint256,string)": {
        "params": {
          "fieldNumber": "field number",
          "newFieldName": "new field name"
        }
      },
      "updateMetadata(uint256,uint256,string)": {
        "params": {
          "fieldNumber": "field number",
          "newValue": "new value",
          "tokenId": "token id"
        }
      }
    },
    "version": 1
  },
  "userdoc": {
    "kind": "user",
    "methods": {
      "addMetadata(uint256,uint256,string)": {
        "notice": "add metadata"
      },
      "getMetadata(uint256,uint256)": {
        "notice": "get metadata"
      },
      "getOwners(uint256,uint256)": {
        "notice": "get owners"
      },
      "registerFieldName(uint256,string)": {
        "notice": "register field name"
      },
      "safeMint(address,string)": {
        "notice": "safe mint"
      },
      "setApprovalForAll(address,bool)": {
        "notice": "Override to disable transfer functionality"
      },
      "setPermittedEditor(uint256,address,uint256,bool)": {
        "notice": "set permitted editor"
      },
      "supportsInterface(bytes4)": {
        "notice": "supports interface"
      },
      "tokenURI(uint256)": {
        "notice": "token uri"
      },
      "updateFieldName(uint256,string)": {
        "notice": "update field name"
      },
      "updateMetadata(uint256,uint256,string)": {
        "notice": "update metadata"
      }
    },
    "version": 1
  },
  "storageLayout": {
    "storage": [
      {
        "astId": 169,
        "contract": "contracts/CDH.sol:CDH",
        "label": "_name",
        "offset": 0,
        "slot": "0",
        "type": "t_string_storage"
      },
      {
        "astId": 171,
        "contract": "contracts/CDH.sol:CDH",
        "label": "_symbol",
        "offset": 0,
        "slot": "1",
        "type": "t_string_storage"
      },
      {
        "astId": 175,
        "contract": "contracts/CDH.sol:CDH",
        "label": "_owners",
        "offset": 0,
        "slot": "2",
        "type": "t_mapping(t_uint256,t_address)"
      },
      {
        "astId": 179,
        "contract": "contracts/CDH.sol:CDH",
        "label": "_balances",
        "offset": 0,
        "slot": "3",
        "type": "t_mapping(t_address,t_uint256)"
      },
      {
        "astId": 183,
        "contract": "contracts/CDH.sol:CDH",
        "label": "_tokenApprovals",
        "offset": 0,
        "slot": "4",
        "type": "t_mapping(t_uint256,t_address)"
      },
      {
        "astId": 189,
        "contract": "contracts/CDH.sol:CDH",
        "label": "_operatorApprovals",
        "offset": 0,
        "slot": "5",
        "type": "t_mapping(t_address,t_mapping(t_address,t_bool))"
      },
      {
        "astId": 1328,
        "contract": "contracts/CDH.sol:CDH",
        "label": "_ownedTokens",
        "offset": 0,
        "slot": "6",
        "type": "t_mapping(t_address,t_mapping(t_uint256,t_uint256))"
      },
      {
        "astId": 1332,
        "contract": "contracts/CDH.sol:CDH",
        "label": "_ownedTokensIndex",
        "offset": 0,
        "slot": "7",
        "type": "t_mapping(t_uint256,t_uint256)"
      },
      {
        "astId": 1335,
        "contract": "contracts/CDH.sol:CDH",
        "label": "_allTokens",
        "offset": 0,
        "slot": "8",
        "type": "t_array(t_uint256)dyn_storage"
      },
      {
        "astId": 1339,
        "contract": "contracts/CDH.sol:CDH",
        "label": "_allTokensIndex",
        "offset": 0,
        "slot": "9",
        "type": "t_mapping(t_uint256,t_uint256)"
      },
      {
        "astId": 3310,
        "contract": "contracts/CDH.sol:CDH",
        "label": "_nextTokenId",
        "offset": 0,
        "slot": "10",
        "type": "t_uint256"
      },
      {
        "astId": 3312,
        "contract": "contracts/CDH.sol:CDH",
        "label": "erc6551Account",
        "offset": 0,
        "slot": "11",
        "type": "t_address"
      },
      {
        "astId": 3314,
        "contract": "contracts/CDH.sol:CDH",
        "label": "erc6551Registry",
        "offset": 0,
        "slot": "12",
        "type": "t_address"
      },
      {
        "astId": 3316,
        "contract": "contracts/CDH.sol:CDH",
        "label": "chainId",
        "offset": 0,
        "slot": "13",
        "type": "t_uint256"
      },
      {
        "astId": 3323,
        "contract": "contracts/CDH.sol:CDH",
        "label": "metadatas",
        "offset": 0,
        "slot": "14",
        "type": "t_mapping(t_uint256,t_mapping(t_uint256,t_string_storage))"
      },
      {
        "astId": 3332,
        "contract": "contracts/CDH.sol:CDH",
        "label": "permittedEditors",
        "offset": 0,
        "slot": "15",
        "type": "t_mapping(t_uint256,t_mapping(t_address,t_mapping(t_uint256,t_bool)))"
      },
      {
        "astId": 3337,
        "contract": "contracts/CDH.sol:CDH",
        "label": "fieldNames",
        "offset": 0,
        "slot": "16",
        "type": "t_mapping(t_uint256,t_string_storage)"
      },
      {
        "astId": 3342,
        "contract": "contracts/CDH.sol:CDH",
        "label": "fieldOwners",
        "offset": 0,
        "slot": "17",
        "type": "t_mapping(t_uint256,t_address)"
      },
      {
        "astId": 3346,
        "contract": "contracts/CDH.sol:CDH",
        "label": "fields",
        "offset": 0,
        "slot": "18",
        "type": "t_array(t_struct(Field)4597_storage)dyn_storage"
      },
      {
        "astId": 3351,
        "contract": "contracts/CDH.sol:CDH",
        "label": "tokenMetadatas",
        "offset": 0,
        "slot": "19",
        "type": "t_mapping(t_uint256,t_string_storage)"
      },
      {
        "astId": 3356,
        "contract": "contracts/CDH.sol:CDH",
        "label": "eoaToTokenId",
        "offset": 0,
        "slot": "20",
        "type": "t_mapping(t_address,t_uint256)"
      },
      {
        "astId": 3361,
        "contract": "contracts/CDH.sol:CDH",
        "label": "tokenIdToTbaAccount",
        "offset": 0,
        "slot": "21",
        "type": "t_mapping(t_uint256,t_address)"
      },
      {
        "astId": 3366,
        "contract": "contracts/CDH.sol:CDH",
        "label": "eoaToTbaAccount",
        "offset": 0,
        "slot": "22",
        "type": "t_mapping(t_address,t_address)"
      }
    ],
    "types": {
      "t_address": {
        "encoding": "inplace",
        "label": "address",
        "numberOfBytes": "20"
      },
      "t_array(t_struct(Field)4597_storage)dyn_storage": {
        "base": "t_struct(Field)4597_storage",
        "encoding": "dynamic_array",
        "label": "struct ICDH.Field[]",
        "numberOfBytes": "32"
      },
      "t_array(t_uint256)dyn_storage": {
        "base": "t_uint256",
        "encoding": "dynamic_array",
        "label": "uint256[]",
        "numberOfBytes": "32"
      },
      "t_bool": {
        "encoding": "inplace",
        "label": "bool",
        "numberOfBytes": "1"
      },
      "t_mapping(t_address,t_address)": {
        "encoding": "mapping",
        "key": "t_address",
        "label": "mapping(address => address)",
        "numberOfBytes": "32",
        "value": "t_address"
      },
      "t_mapping(t_address,t_bool)": {
        "encoding": "mapping",
        "key": "t_address",
        "label": "mapping(address => bool)",
        "numberOfBytes": "32",
        "value": "t_bool"
      },
      "t_mapping(t_address,t_mapping(t_address,t_bool))": {
        "encoding": "mapping",
        "key": "t_address",
        "label": "mapping(address => mapping(address => bool))",
        "numberOfBytes": "32",
        "value": "t_mapping(t_address,t_bool)"
      },
      "t_mapping(t_address,t_mapping(t_uint256,t_bool))": {
        "encoding": "mapping",
        "key": "t_address",
        "label": "mapping(address => mapping(uint256 => bool))",
        "numberOfBytes": "32",
        "value": "t_mapping(t_uint256,t_bool)"
      },
      "t_mapping(t_address,t_mapping(t_uint256,t_uint256))": {
        "encoding": "mapping",
        "key": "t_address",
        "label": "mapping(address => mapping(uint256 => uint256))",
        "numberOfBytes": "32",
        "value": "t_mapping(t_uint256,t_uint256)"
      },
      "t_mapping(t_address,t_uint256)": {
        "encoding": "mapping",
        "key": "t_address",
        "label": "mapping(address => uint256)",
        "numberOfBytes": "32",
        "value": "t_uint256"
      },
      "t_mapping(t_uint256,t_address)": {
        "encoding": "mapping",
        "key": "t_uint256",
        "label": "mapping(uint256 => address)",
        "numberOfBytes": "32",
        "value": "t_address"
      },
      "t_mapping(t_uint256,t_bool)": {
        "encoding": "mapping",
        "key": "t_uint256",
        "label": "mapping(uint256 => bool)",
        "numberOfBytes": "32",
        "value": "t_bool"
      },
      "t_mapping(t_uint256,t_mapping(t_address,t_mapping(t_uint256,t_bool)))": {
        "encoding": "mapping",
        "key": "t_uint256",
        "label": "mapping(uint256 => mapping(address => mapping(uint256 => bool)))",
        "numberOfBytes": "32",
        "value": "t_mapping(t_address,t_mapping(t_uint256,t_bool))"
      },
      "t_mapping(t_uint256,t_mapping(t_uint256,t_string_storage))": {
        "encoding": "mapping",
        "key": "t_uint256",
        "label": "mapping(uint256 => mapping(uint256 => string))",
        "numberOfBytes": "32",
        "value": "t_mapping(t_uint256,t_string_storage)"
      },
      "t_mapping(t_uint256,t_string_storage)": {
        "encoding": "mapping",
        "key": "t_uint256",
        "label": "mapping(uint256 => string)",
        "numberOfBytes": "32",
        "value": "t_string_storage"
      },
      "t_mapping(t_uint256,t_uint256)": {
        "encoding": "mapping",
        "key": "t_uint256",
        "label": "mapping(uint256 => uint256)",
        "numberOfBytes": "32",
        "value": "t_uint256"
      },
      "t_string_storage": {
        "encoding": "bytes",
        "label": "string",
        "numberOfBytes": "32"
      },
      "t_struct(Field)4597_storage": {
        "encoding": "inplace",
        "label": "struct ICDH.Field",
        "members": [
          {
            "astId": 4592,
            "contract": "contracts/CDH.sol:CDH",
            "label": "name",
            "offset": 0,
            "slot": "0",
            "type": "t_string_storage"
          },
          {
            "astId": 4594,
            "contract": "contracts/CDH.sol:CDH",
            "label": "number",
            "offset": 0,
            "slot": "1",
            "type": "t_uint256"
          },
          {
            "astId": 4596,
            "contract": "contracts/CDH.sol:CDH",
            "label": "owner",
            "offset": 0,
            "slot": "2",
            "type": "t_address"
          }
        ],
        "numberOfBytes": "96"
      },
      "t_uint256": {
        "encoding": "inplace",
        "label": "uint256",
        "numberOfBytes": "32"
      }
    }
  }
}