{
  "address": "0x84EB70E21C30128908A9F2d50124E9b4e56D8393",
  "abi": [
    {
      "inputs": [
        {
          "internalType": "address",
          "name": "to",
          "type": "address"
        },
        {
          "internalType": "uint256",
          "name": "value",
          "type": "uint256"
        },
        {
          "internalType": "bytes",
          "name": "data",
          "type": "bytes"
        },
        {
          "internalType": "uint8",
          "name": "operation",
          "type": "uint8"
        }
      ],
      "name": "execute",
      "outputs": [
        {
          "internalType": "bytes",
          "name": "result",
          "type": "bytes"
        }
      ],
      "stateMutability": "payable",
      "type": "function"
    },
    {
      "inputs": [
        {
          "internalType": "bytes32",
          "name": "hash",
          "type": "bytes32"
        },
        {
          "internalType": "bytes",
          "name": "signature",
          "type": "bytes"
        }
      ],
      "name": "isValidSignature",
      "outputs": [
        {
          "internalType": "bytes4",
          "name": "magicValue",
          "type": "bytes4"
        }
      ],
      "stateMutability": "view",
      "type": "function"
    },
    {
      "inputs": [
        {
          "internalType": "address",
          "name": "signer",
          "type": "address"
        },
        {
          "internalType": "bytes",
          "name": "",
          "type": "bytes"
        }
      ],
      "name": "isValidSigner",
      "outputs": [
        {
          "internalType": "bytes4",
          "name": "",
          "type": "bytes4"
        }
      ],
      "stateMutability": "view",
      "type": "function"
    },
    {
      "inputs": [
        {
          "internalType": "address",
          "name": "operator",
          "type": "address"
        },
        {
          "internalType": "address",
          "name": "from",
          "type": "address"
        },
        {
          "internalType": "uint256[]",
          "name": "ids",
          "type": "uint256[]"
        },
        {
          "internalType": "uint256[]",
          "name": "values",
          "type": "uint256[]"
        },
        {
          "internalType": "bytes",
          "name": "data",
          "type": "bytes"
        }
      ],
      "name": "onERC1155BatchReceived",
      "outputs": [
        {
          "internalType": "bytes4",
          "name": "",
          "type": "bytes4"
        }
      ],
      "stateMutability": "pure",
      "type": "function"
    },
    {
      "inputs": [
        {
          "internalType": "address",
          "name": "operator",
          "type": "address"
        },
        {
          "internalType": "address",
          "name": "from",
          "type": "address"
        },
        {
          "internalType": "uint256",
          "name": "id",
          "type": "uint256"
        },
        {
          "internalType": "uint256",
          "name": "value",
          "type": "uint256"
        },
        {
          "internalType": "bytes",
          "name": "data",
          "type": "bytes"
        }
      ],
      "name": "onERC1155Received",
      "outputs": [
        {
          "internalType": "bytes4",
          "name": "",
          "type": "bytes4"
        }
      ],
      "stateMutability": "pure",
      "type": "function"
    },
    {
      "inputs": [
        {
          "internalType": "address",
          "name": "operator",
          "type": "address"
        },
        {
          "internalType": "address",
          "name": "from",
          "type": "address"
        },
        {
          "internalType": "uint256",
          "name": "tokenId",
          "type": "uint256"
        },
        {
          "internalType": "bytes",
          "name": "data",
          "type": "bytes"
        }
      ],
      "name": "onERC721Received",
      "outputs": [
        {
          "internalType": "bytes4",
          "name": "",
          "type": "bytes4"
        }
      ],
      "stateMutability": "pure",
      "type": "function"
    },
    {
      "inputs": [],
      "name": "owner",
      "outputs": [
        {
          "internalType": "address",
          "name": "",
          "type": "address"
        }
      ],
      "stateMutability": "view",
      "type": "function"
    },
    {
      "inputs": [],
      "name": "state",
      "outputs": [
        {
          "internalType": "uint256",
          "name": "",
          "type": "uint256"
        }
      ],
      "stateMutability": "view",
      "type": "function"
    },
    {
      "inputs": [
        {
          "internalType": "bytes4",
          "name": "interfaceId",
          "type": "bytes4"
        }
      ],
      "name": "supportsInterface",
      "outputs": [
        {
          "internalType": "bool",
          "name": "",
          "type": "bool"
        }
      ],
      "stateMutability": "view",
      "type": "function"
    },
    {
      "inputs": [],
      "name": "token",
      "outputs": [
        {
          "internalType": "uint256",
          "name": "",
          "type": "uint256"
        },
        {
          "internalType": "address",
          "name": "",
          "type": "address"
        },
        {
          "internalType": "uint256",
          "name": "",
          "type": "uint256"
        }
      ],
      "stateMutability": "view",
      "type": "function"
    },
    {
      "stateMutability": "payable",
      "type": "receive"
    }
  ],
  "transactionHash": "0x3f5312094a0755371318b448d7fda18648009d6bb4ae03d44d3cc62a6828bbb0",
  "args": [],
  "numDeployments": 1,
  "solcInputHash": "e0bf5d2ceede82ca9772e44d7e51d243",
  "bytecode": "0x6080604052348015600f57600080fd5b50610d5a8061001f6000396000f3fe6080604052600436106100955760003560e01c80638da5cb5b116100595780638da5cb5b1461017b578063bc197c81146101a8578063c19d93fb146101d7578063f23a6e61146101fb578063fc0c546a1461022857600080fd5b806301ffc9a7146100a1578063150b7a02146100d65780631626ba7e1461011b578063519454471461013b578063523e32601461015b57600080fd5b3661009c57005b600080fd5b3480156100ad57600080fd5b506100c16100bc3660046107aa565b610260565b60405190151581526020015b60405180910390f35b3480156100e257600080fd5b506101026100f1366004610835565b630a85bd0160e11b95945050505050565b6040516001600160e01b031990911681526020016100cd565b34801561012757600080fd5b506101026101363660046108be565b6102b2565b61014e610149366004610979565b6102e9565b6040516100cd9190610a43565b34801561016757600080fd5b50610102610176366004610a56565b610422565b34801561018757600080fd5b50610190610443565b6040516001600160a01b0390911681526020016100cd565b3480156101b457600080fd5b506101026101c3366004610af0565b63bc197c8160e01b98975050505050505050565b3480156101e357600080fd5b506101ed60005481565b6040519081526020016100cd565b34801561020757600080fd5b50610102610216366004610baf565b63f23a6e6160e01b9695505050505050565b34801561023457600080fd5b5061023d6104d9565b604080519384526001600160a01b039092166020840152908201526060016100cd565b60006001600160e01b031982166301ffc9a760e01b148061029157506001600160e01b03198216636faff5f160e01b145b806102ac57506001600160e01b03198216635194544760e01b145b92915050565b6000806102c76102c0610443565b858561052c565b905080156102df5750630b135d3f60e11b90506102ac565b5060009392505050565b60606102f43361058e565b6103365760405162461bcd60e51b815260206004820152600e60248201526d24b73b30b634b21039b4b3b732b960911b60448201526064015b60405180910390fd5b60ff8216156103925760405162461bcd60e51b815260206004820152602260248201527f4f6e6c792063616c6c206f7065726174696f6e732061726520737570706f7274604482015261195960f21b606482015260840161032d565b60008081546103a090610c2b565b919050819055506000866001600160a01b03168686866040516103c4929190610c52565b60006040518083038185875af1925050503d8060008114610401576040519150601f19603f3d011682016040523d82523d6000602084013e610406565b606091505b50925090508061041857815160208301fd5b5095945050505050565b600061042d8461058e565b156102df5750630291f19360e51b5b9392505050565b6000806000806104516104d9565b925092509250468314610468576000935050505090565b6040516331a9108f60e11b8152600481018290526001600160a01b03831690636352211e90602401602060405180830381865afa1580156104ad573d6000803e3d6000fd5b505050506040513d601f19601f820116820180604052508101906104d19190610c62565b935050505090565b60408051606080825260808201909252600091829182918291906020820181803683370190505090506060604d60208301303c808060200190518101906105209190610c7f565b93509350935050909192565b600080600061053b85856105b3565b509092509050600081600381111561055557610555610cb8565b1480156105735750856001600160a01b0316826001600160a01b0316145b806105845750610584868686610600565b9695505050505050565b6000610598610443565b6001600160a01b0316826001600160a01b0316149050919050565b600080600083516041036105ed5760208401516040850151606086015160001a6105df888285856106db565b9550955095505050506105f9565b50508151600091506002905b9250925092565b6000806000856001600160a01b03168585604051602401610622929190610cce565b60408051601f198184030181529181526020820180516001600160e01b0316630b135d3f60e11b179052516106579190610cef565b600060405180830381855afa9150503d8060008114610692576040519150601f19603f3d011682016040523d82523d6000602084013e610697565b606091505b50915091508180156106ab57506020815110155b801561058457508051630b135d3f60e11b906106d09083016020908101908401610d0b565b149695505050505050565b600080807f7fffffffffffffffffffffffffffffff5d576e7357a4501ddfe92f46681b20a084111561071657506000915060039050826107a0565b604080516000808252602082018084528a905260ff891692820192909252606081018790526080810186905260019060a0016020604051602081039080840390855afa15801561076a573d6000803e3d6000fd5b5050604051601f1901519150506001600160a01b038116610796575060009250600191508290506107a0565b9250600091508190505b9450945094915050565b6000602082840312156107bc57600080fd5b81356001600160e01b03198116811461043c57600080fd5b6001600160a01b03811681146107e957600080fd5b50565b60008083601f8401126107fe57600080fd5b50813567ffffffffffffffff81111561081657600080fd5b60208301915083602082850101111561082e57600080fd5b9250929050565b60008060008060006080868803121561084d57600080fd5b8535610858816107d4565b94506020860135610868816107d4565b935060408601359250606086013567ffffffffffffffff81111561088b57600080fd5b610897888289016107ec565b969995985093965092949392505050565b634e487b7160e01b600052604160045260246000fd5b600080604083850312156108d157600080fd5b82359150602083013567ffffffffffffffff808211156108f057600080fd5b818501915085601f83011261090457600080fd5b813581811115610916576109166108a8565b604051601f8201601f19908116603f0116810190838211818310171561093e5761093e6108a8565b8160405282815288602084870101111561095757600080fd5b8260208601602083013760006020848301015280955050505050509250929050565b60008060008060006080868803121561099157600080fd5b853561099c816107d4565b945060208601359350604086013567ffffffffffffffff8111156109bf57600080fd5b6109cb888289016107ec565b909450925050606086013560ff811681146109e557600080fd5b809150509295509295909350565b60005b83811015610a0e5781810151838201526020016109f6565b50506000910152565b60008151808452610a2f8160208601602086016109f3565b601f01601f19169290920160200192915050565b60208152600061043c6020830184610a17565b600080600060408486031215610a6b57600080fd5b8335610a76816107d4565b9250602084013567ffffffffffffffff811115610a9257600080fd5b610a9e868287016107ec565b9497909650939450505050565b60008083601f840112610abd57600080fd5b50813567ffffffffffffffff811115610ad557600080fd5b6020830191508360208260051b850101111561082e57600080fd5b60008060008060008060008060a0898b031215610b0c57600080fd5b8835610b17816107d4565b97506020890135610b27816107d4565b9650604089013567ffffffffffffffff80821115610b4457600080fd5b610b508c838d01610aab565b909850965060608b0135915080821115610b6957600080fd5b610b758c838d01610aab565b909650945060808b0135915080821115610b8e57600080fd5b50610b9b8b828c016107ec565b999c989b5096995094979396929594505050565b60008060008060008060a08789031215610bc857600080fd5b8635610bd3816107d4565b95506020870135610be3816107d4565b94506040870135935060608701359250608087013567ffffffffffffffff811115610c0d57600080fd5b610c1989828a016107ec565b979a9699509497509295939492505050565b600060018201610c4b57634e487b7160e01b600052601160045260246000fd5b5060010190565b8183823760009101908152919050565b600060208284031215610c7457600080fd5b815161043c816107d4565b600080600060608486031215610c9457600080fd5b835192506020840151610ca6816107d4565b80925050604084015190509250925092565b634e487b7160e01b600052602160045260246000fd5b828152604060208201526000610ce76040830184610a17565b949350505050565b60008251610d018184602087016109f3565b9190910192915050565b600060208284031215610d1d57600080fd5b505191905056fea2646970667358221220758511eec0d1a222cd1560597d0e4204376a215eda9417dfad1abf25839b90e564736f6c63430008190033",
  "devdoc": {
    "kind": "dev",
    "methods": {
      "isValidSignature(bytes32,bytes)": {
        "details": "Should return whether the signature provided is valid for the provided data",
        "params": {
          "hash": "Hash of the data to be signed",
          "signature": "Signature byte array associated with _data"
        }
      },
      "onERC1155BatchReceived(address,address,uint256[],uint256[],bytes)": {
        "details": "Handles the receipt of a multiple ERC1155 token types. This function is called at the end of a `safeBatchTransferFrom` after the balances have been updated. NOTE: To accept the transfer(s), this must return `bytes4(keccak256(\"onERC1155BatchReceived(address,address,uint256[],uint256[],bytes)\"))` (i.e. 0xbc197c81, or its own function selector).",
        "params": {
          "data": "Additional data with no specified format",
          "from": "The address which previously owned the token",
          "ids": "An array containing ids of each token being transferred (order and length must match values array)",
          "operator": "The address which initiated the batch transfer (i.e. msg.sender)",
          "values": "An array containing amounts of each token being transferred (order and length must match ids array)"
        },
        "returns": {
          "_0": "`bytes4(keccak256(\"onERC1155BatchReceived(address,address,uint256[],uint256[],bytes)\"))` if transfer is allowed"
        }
      },
      "onERC1155Received(address,address,uint256,uint256,bytes)": {
        "details": "Handles the receipt of a single ERC1155 token type. This function is called at the end of a `safeTransferFrom` after the balance has been updated. NOTE: To accept the transfer, this must return `bytes4(keccak256(\"onERC1155Received(address,address,uint256,uint256,bytes)\"))` (i.e. 0xf23a6e61, or its own function selector).",
        "params": {
          "data": "Additional data with no specified format",
          "from": "The address which previously owned the token",
          "id": "The ID of the token being transferred",
          "operator": "The address which initiated the transfer (i.e. msg.sender)",
          "value": "The amount of tokens being transferred"
        },
        "returns": {
          "_0": "`bytes4(keccak256(\"onERC1155Received(address,address,uint256,uint256,bytes)\"))` if transfer is allowed"
        }
      },
      "onERC721Received(address,address,uint256,bytes)": {
        "details": "Whenever an {IERC721} `tokenId` token is transferred to this contract via {IERC721-safeTransferFrom} by `operator` from `from`, this function is called. It must return its Solidity selector to confirm the token transfer. If any other value is returned or the interface is not implemented by the recipient, the transfer will be reverted. The selector can be obtained in Solidity with `IERC721Receiver.onERC721Received.selector`."
      },
      "supportsInterface(bytes4)": {
        "details": "Returns true if this contract implements the interface defined by `interfaceId`. See the corresponding https://eips.ethereum.org/EIPS/eip-165#how-interfaces-are-identified[EIP section] to learn more about how these ids are created. This function call must use less than 30 000 gas."
      }
    },
    "version": 1
  },
  "userdoc": {
    "kind": "user",
    "methods": {},
    "version": 1
  },
  "storageLayout": {
    "storage": [
      {
        "astId": 8132,
        "contract": "contracts/ERC6551Account.sol:ERC6551Account",
        "label": "state",
        "offset": 0,
        "slot": "0",
        "type": "t_uint256"
      }
    ],
    "types": {
      "t_uint256": {
        "encoding": "inplace",
        "label": "uint256",
        "numberOfBytes": "32"
      }
    }
  }
}