{
  "address": "0x95a8eD5026AC829C4F02c051C2553891c9fD98C7",
  "abi": [
    {
      "inputs": [
        {
          "internalType": "address",
          "name": "to",
          "type": "address"
        },
        {
          "internalType": "uint256",
          "name": "value",
          "type": "uint256"
        },
        {
          "internalType": "bytes",
          "name": "data",
          "type": "bytes"
        },
        {
          "internalType": "uint8",
          "name": "operation",
          "type": "uint8"
        }
      ],
      "name": "execute",
      "outputs": [
        {
          "internalType": "bytes",
          "name": "result",
          "type": "bytes"
        }
      ],
      "stateMutability": "payable",
      "type": "function"
    },
    {
      "inputs": [
        {
          "internalType": "bytes32",
          "name": "hash",
          "type": "bytes32"
        },
        {
          "internalType": "bytes",
          "name": "signature",
          "type": "bytes"
        }
      ],
      "name": "isValidSignature",
      "outputs": [
        {
          "internalType": "bytes4",
          "name": "magicValue",
          "type": "bytes4"
        }
      ],
      "stateMutability": "view",
      "type": "function"
    },
    {
      "inputs": [
        {
          "internalType": "address",
          "name": "signer",
          "type": "address"
        },
        {
          "internalType": "bytes",
          "name": "",
          "type": "bytes"
        }
      ],
      "name": "isValidSigner",
      "outputs": [
        {
          "internalType": "bytes4",
          "name": "",
          "type": "bytes4"
        }
      ],
      "stateMutability": "view",
      "type": "function"
    },
    {
      "inputs": [],
      "name": "owner",
      "outputs": [
        {
          "internalType": "address",
          "name": "",
          "type": "address"
        }
      ],
      "stateMutability": "view",
      "type": "function"
    },
    {
      "inputs": [],
      "name": "state",
      "outputs": [
        {
          "internalType": "uint256",
          "name": "",
          "type": "uint256"
        }
      ],
      "stateMutability": "view",
      "type": "function"
    },
    {
      "inputs": [
        {
          "internalType": "bytes4",
          "name": "interfaceId",
          "type": "bytes4"
        }
      ],
      "name": "supportsInterface",
      "outputs": [
        {
          "internalType": "bool",
          "name": "",
          "type": "bool"
        }
      ],
      "stateMutability": "view",
      "type": "function"
    },
    {
      "inputs": [],
      "name": "token",
      "outputs": [
        {
          "internalType": "uint256",
          "name": "",
          "type": "uint256"
        },
        {
          "internalType": "address",
          "name": "",
          "type": "address"
        },
        {
          "internalType": "uint256",
          "name": "",
          "type": "uint256"
        }
      ],
      "stateMutability": "view",
      "type": "function"
    },
    {
      "stateMutability": "payable",
      "type": "receive"
    }
  ],
  "transactionHash": "0xe03e0dd30486a1bf14cc2be31c26615cf093d853554f6c540bedcc1d8c099e65",
  "args": [],
  "numDeployments": 1,
  "solcInputHash": "3b05f4497c40b0bcd563e9fa8dd85033",
  "bytecode": "0x608060405234801561001057600080fd5b50610abe806100206000396000f3fe6080604052600436106100745760003560e01c8063523e32601161004e578063523e32601461010e5780638da5cb5b1461012e578063c19d93fb1461015b578063fc0c546a1461017f57600080fd5b806301ffc9a7146100805780631626ba7e146100b557806351945447146100ee57600080fd5b3661007b57005b600080fd5b34801561008c57600080fd5b506100a061009b366004610701565b6101b7565b60405190151581526020015b60405180910390f35b3480156100c157600080fd5b506100d56100d0366004610741565b610209565b6040516001600160e01b031990911681526020016100ac565b6101016100fc36600461085d565b610240565b6040516100ac9190610927565b34801561011a57600080fd5b506100d561012936600461093a565b610379565b34801561013a57600080fd5b5061014361039a565b6040516001600160a01b0390911681526020016100ac565b34801561016757600080fd5b5061017160005481565b6040519081526020016100ac565b34801561018b57600080fd5b50610194610430565b604080519384526001600160a01b039092166020840152908201526060016100ac565b60006001600160e01b031982166301ffc9a760e01b14806101e857506001600160e01b03198216636faff5f160e01b145b8061020357506001600160e01b03198216635194544760e01b145b92915050565b60008061021e61021761039a565b8585610483565b905080156102365750630b135d3f60e11b9050610203565b5060009392505050565b606061024b336104e5565b61028d5760405162461bcd60e51b815260206004820152600e60248201526d24b73b30b634b21039b4b3b732b960911b60448201526064015b60405180910390fd5b60ff8216156102e95760405162461bcd60e51b815260206004820152602260248201527f4f6e6c792063616c6c206f7065726174696f6e732061726520737570706f7274604482015261195960f21b6064820152608401610284565b60008081546102f79061098f565b919050819055506000866001600160a01b031686868660405161031b9291906109b6565b60006040518083038185875af1925050503d8060008114610358576040519150601f19603f3d011682016040523d82523d6000602084013e61035d565b606091505b50925090508061036f57815160208301fd5b5095945050505050565b6000610384846104e5565b156102365750630291f19360e51b5b9392505050565b6000806000806103a8610430565b9250925092504683146103bf576000935050505090565b6040516331a9108f60e11b8152600481018290526001600160a01b03831690636352211e90602401602060405180830381865afa158015610404573d6000803e3d6000fd5b505050506040513d601f19601f8201168201806040525081019061042891906109c6565b935050505090565b60408051606080825260808201909252600091829182918291906020820181803683370190505090506060604d60208301303c8080602001905181019061047791906109e3565b93509350935050909192565b6000806000610492858561050a565b50909250905060008160038111156104ac576104ac610a1c565b1480156104ca5750856001600160a01b0316826001600160a01b0316145b806104db57506104db868686610557565b9695505050505050565b60006104ef61039a565b6001600160a01b0316826001600160a01b0316149050919050565b600080600083516041036105445760208401516040850151606086015160001a61053688828585610632565b955095509550505050610550565b50508151600091506002905b9250925092565b6000806000856001600160a01b03168585604051602401610579929190610a32565b60408051601f198184030181529181526020820180516001600160e01b0316630b135d3f60e11b179052516105ae9190610a53565b600060405180830381855afa9150503d80600081146105e9576040519150601f19603f3d011682016040523d82523d6000602084013e6105ee565b606091505b509150915081801561060257506020815110155b80156104db57508051630b135d3f60e11b906106279083016020908101908401610a6f565b149695505050505050565b600080807f7fffffffffffffffffffffffffffffff5d576e7357a4501ddfe92f46681b20a084111561066d57506000915060039050826106f7565b604080516000808252602082018084528a905260ff891692820192909252606081018790526080810186905260019060a0016020604051602081039080840390855afa1580156106c1573d6000803e3d6000fd5b5050604051601f1901519150506001600160a01b0381166106ed575060009250600191508290506106f7565b9250600091508190505b9450945094915050565b60006020828403121561071357600080fd5b81356001600160e01b03198116811461039357600080fd5b634e487b7160e01b600052604160045260246000fd5b6000806040838503121561075457600080fd5b82359150602083013567ffffffffffffffff8082111561077357600080fd5b818501915085601f83011261078757600080fd5b8135818111156107995761079961072b565b604051601f8201601f19908116603f011681019083821181831017156107c1576107c161072b565b816040528281528860208487010111156107da57600080fd5b8260208601602083013760006020848301015280955050505050509250929050565b6001600160a01b038116811461081157600080fd5b50565b60008083601f84011261082657600080fd5b50813567ffffffffffffffff81111561083e57600080fd5b60208301915083602082850101111561085657600080fd5b9250929050565b60008060008060006080868803121561087557600080fd5b8535610880816107fc565b945060208601359350604086013567ffffffffffffffff8111156108a357600080fd5b6108af88828901610814565b909450925050606086013560ff811681146108c957600080fd5b809150509295509295909350565b60005b838110156108f25781810151838201526020016108da565b50506000910152565b600081518084526109138160208601602086016108d7565b601f01601f19169290920160200192915050565b60208152600061039360208301846108fb565b60008060006040848603121561094f57600080fd5b833561095a816107fc565b9250602084013567ffffffffffffffff81111561097657600080fd5b61098286828701610814565b9497909650939450505050565b6000600182016109af57634e487b7160e01b600052601160045260246000fd5b5060010190565b8183823760009101908152919050565b6000602082840312156109d857600080fd5b8151610393816107fc565b6000806000606084860312156109f857600080fd5b835192506020840151610a0a816107fc565b80925050604084015190509250925092565b634e487b7160e01b600052602160045260246000fd5b828152604060208201526000610a4b60408301846108fb565b949350505050565b60008251610a658184602087016108d7565b9190910192915050565b600060208284031215610a8157600080fd5b505191905056fea26469706673582212204cd835e7a1963c0e02a1a01cfd5a969f3dd8414096224f2c7e64addbd1b6991d64736f6c63430008170033",
  "devdoc": {
    "kind": "dev",
    "methods": {
      "isValidSignature(bytes32,bytes)": {
        "details": "Should return whether the signature provided is valid for the provided data",
        "params": {
          "hash": "Hash of the data to be signed",
          "signature": "Signature byte array associated with _data"
        }
      },
      "supportsInterface(bytes4)": {
        "details": "Returns true if this contract implements the interface defined by `interfaceId`. See the corresponding https://eips.ethereum.org/EIPS/eip-165#how-interfaces-are-identified[EIP section] to learn more about how these ids are created. This function call must use less than 30 000 gas."
      }
    },
    "version": 1
  },
  "userdoc": {
    "kind": "user",
    "methods": {},
    "version": 1
  },
  "storageLayout": {
    "storage": [
      {
        "astId": 4521,
        "contract": "contracts/ERC6551Account.sol:ERC6551Account",
        "label": "state",
        "offset": 0,
        "slot": "0",
        "type": "t_uint256"
      }
    ],
    "types": {
      "t_uint256": {
        "encoding": "inplace",
        "label": "uint256",
        "numberOfBytes": "32"
      }
    }
  }
}