{
  "address": "0xEc756B6ef29f5cba4871a11b6f745d3555BBE655",
  "abi": [
    {
      "inputs": [
        {
          "internalType": "address",
          "name": "initialOwner",
          "type": "address"
        },
        {
          "internalType": "string",
          "name": "baseUri",
          "type": "string"
        }
      ],
      "stateMutability": "nonpayable",
      "type": "constructor"
    },
    {
      "inputs": [
        {
          "internalType": "address",
          "name": "sender",
          "type": "address"
        },
        {
          "internalType": "uint256",
          "name": "balance",
          "type": "uint256"
        },
        {
          "internalType": "uint256",
          "name": "needed",
          "type": "uint256"
        },
        {
          "internalType": "uint256",
          "name": "tokenId",
          "type": "uint256"
        }
      ],
      "name": "ERC1155InsufficientBalance",
      "type": "error"
    },
    {
      "inputs": [
        {
          "internalType": "address",
          "name": "approver",
          "type": "address"
        }
      ],
      "name": "ERC1155InvalidApprover",
      "type": "error"
    },
    {
      "inputs": [
        {
          "internalType": "uint256",
          "name": "idsLength",
          "type": "uint256"
        },
        {
          "internalType": "uint256",
          "name": "valuesLength",
          "type": "uint256"
        }
      ],
      "name": "ERC1155InvalidArrayLength",
      "type": "error"
    },
    {
      "inputs": [
        {
          "internalType": "address",
          "name": "operator",
          "type": "address"
        }
      ],
      "name": "ERC1155InvalidOperator",
      "type": "error"
    },
    {
      "inputs": [
        {
          "internalType": "address",
          "name": "receiver",
          "type": "address"
        }
      ],
      "name": "ERC1155InvalidReceiver",
      "type": "error"
    },
    {
      "inputs": [
        {
          "internalType": "address",
          "name": "sender",
          "type": "address"
        }
      ],
      "name": "ERC1155InvalidSender",
      "type": "error"
    },
    {
      "inputs": [
        {
          "internalType": "address",
          "name": "operator",
          "type": "address"
        },
        {
          "internalType": "address",
          "name": "owner",
          "type": "address"
        }
      ],
      "name": "ERC1155MissingApprovalForAll",
      "type": "error"
    },
    {
      "inputs": [
        {
          "internalType": "address",
          "name": "owner",
          "type": "address"
        }
      ],
      "name": "OwnableInvalidOwner",
      "type": "error"
    },
    {
      "inputs": [
        {
          "internalType": "address",
          "name": "account",
          "type": "address"
        }
      ],
      "name": "OwnableUnauthorizedAccount",
      "type": "error"
    },
    {
      "anonymous": false,
      "inputs": [
        {
          "indexed": true,
          "internalType": "address",
          "name": "account",
          "type": "address"
        },
        {
          "indexed": true,
          "internalType": "address",
          "name": "operator",
          "type": "address"
        },
        {
          "indexed": false,
          "internalType": "bool",
          "name": "approved",
          "type": "bool"
        }
      ],
      "name": "ApprovalForAll",
      "type": "event"
    },
    {
      "anonymous": false,
      "inputs": [
        {
          "indexed": true,
          "internalType": "address",
          "name": "previousOwner",
          "type": "address"
        },
        {
          "indexed": true,
          "internalType": "address",
          "name": "newOwner",
          "type": "address"
        }
      ],
      "name": "OwnershipTransferred",
      "type": "event"
    },
    {
      "anonymous": false,
      "inputs": [
        {
          "indexed": true,
          "internalType": "address",
          "name": "operator",
          "type": "address"
        },
        {
          "indexed": true,
          "internalType": "address",
          "name": "from",
          "type": "address"
        },
        {
          "indexed": true,
          "internalType": "address",
          "name": "to",
          "type": "address"
        },
        {
          "indexed": false,
          "internalType": "uint256[]",
          "name": "ids",
          "type": "uint256[]"
        },
        {
          "indexed": false,
          "internalType": "uint256[]",
          "name": "values",
          "type": "uint256[]"
        }
      ],
      "name": "TransferBatch",
      "type": "event"
    },
    {
      "anonymous": false,
      "inputs": [
        {
          "indexed": true,
          "internalType": "address",
          "name": "operator",
          "type": "address"
        },
        {
          "indexed": true,
          "internalType": "address",
          "name": "from",
          "type": "address"
        },
        {
          "indexed": true,
          "internalType": "address",
          "name": "to",
          "type": "address"
        },
        {
          "indexed": false,
          "internalType": "uint256",
          "name": "id",
          "type": "uint256"
        },
        {
          "indexed": false,
          "internalType": "uint256",
          "name": "value",
          "type": "uint256"
        }
      ],
      "name": "TransferSingle",
      "type": "event"
    },
    {
      "anonymous": false,
      "inputs": [
        {
          "indexed": false,
          "internalType": "string",
          "name": "value",
          "type": "string"
        },
        {
          "indexed": true,
          "internalType": "uint256",
          "name": "id",
          "type": "uint256"
        }
      ],
      "name": "URI",
      "type": "event"
    },
    {
      "inputs": [
        {
          "internalType": "address",
          "name": "account",
          "type": "address"
        },
        {
          "internalType": "uint256",
          "name": "id",
          "type": "uint256"
        }
      ],
      "name": "balanceOf",
      "outputs": [
        {
          "internalType": "uint256",
          "name": "",
          "type": "uint256"
        }
      ],
      "stateMutability": "view",
      "type": "function"
    },
    {
      "inputs": [
        {
          "internalType": "address[]",
          "name": "accounts",
          "type": "address[]"
        },
        {
          "internalType": "uint256[]",
          "name": "ids",
          "type": "uint256[]"
        }
      ],
      "name": "balanceOfBatch",
      "outputs": [
        {
          "internalType": "uint256[]",
          "name": "",
          "type": "uint256[]"
        }
      ],
      "stateMutability": "view",
      "type": "function"
    },
    {
      "inputs": [
        {
          "internalType": "address",
          "name": "account",
          "type": "address"
        },
        {
          "internalType": "uint256",
          "name": "id",
          "type": "uint256"
        },
        {
          "internalType": "uint256",
          "name": "value",
          "type": "uint256"
        }
      ],
      "name": "burn",
      "outputs": [],
      "stateMutability": "nonpayable",
      "type": "function"
    },
    {
      "inputs": [
        {
          "internalType": "address",
          "name": "account",
          "type": "address"
        },
        {
          "internalType": "uint256[]",
          "name": "ids",
          "type": "uint256[]"
        },
        {
          "internalType": "uint256[]",
          "name": "values",
          "type": "uint256[]"
        }
      ],
      "name": "burnBatch",
      "outputs": [],
      "stateMutability": "nonpayable",
      "type": "function"
    },
    {
      "inputs": [
        {
          "internalType": "uint256",
          "name": "id",
          "type": "uint256"
        }
      ],
      "name": "exists",
      "outputs": [
        {
          "internalType": "bool",
          "name": "",
          "type": "bool"
        }
      ],
      "stateMutability": "view",
      "type": "function"
    },
    {
      "inputs": [
        {
          "internalType": "address",
          "name": "account",
          "type": "address"
        },
        {
          "internalType": "address",
          "name": "operator",
          "type": "address"
        }
      ],
      "name": "isApprovedForAll",
      "outputs": [
        {
          "internalType": "bool",
          "name": "",
          "type": "bool"
        }
      ],
      "stateMutability": "view",
      "type": "function"
    },
    {
      "inputs": [
        {
          "internalType": "address",
          "name": "account",
          "type": "address"
        },
        {
          "internalType": "uint256",
          "name": "id",
          "type": "uint256"
        },
        {
          "internalType": "uint256",
          "name": "amount",
          "type": "uint256"
        }
      ],
      "name": "mint",
      "outputs": [],
      "stateMutability": "nonpayable",
      "type": "function"
    },
    {
      "inputs": [
        {
          "internalType": "address",
          "name": "to",
          "type": "address"
        },
        {
          "internalType": "uint256[]",
          "name": "ids",
          "type": "uint256[]"
        },
        {
          "internalType": "uint256[]",
          "name": "amounts",
          "type": "uint256[]"
        },
        {
          "internalType": "bytes",
          "name": "data",
          "type": "bytes"
        }
      ],
      "name": "mintBatch",
      "outputs": [],
      "stateMutability": "nonpayable",
      "type": "function"
    },
    {
      "inputs": [],
      "name": "owner",
      "outputs": [
        {
          "internalType": "address",
          "name": "",
          "type": "address"
        }
      ],
      "stateMutability": "view",
      "type": "function"
    },
    {
      "inputs": [],
      "name": "renounceOwnership",
      "outputs": [],
      "stateMutability": "nonpayable",
      "type": "function"
    },
    {
      "inputs": [
        {
          "internalType": "address",
          "name": "from",
          "type": "address"
        },
        {
          "internalType": "address",
          "name": "to",
          "type": "address"
        },
        {
          "internalType": "uint256[]",
          "name": "ids",
          "type": "uint256[]"
        },
        {
          "internalType": "uint256[]",
          "name": "values",
          "type": "uint256[]"
        },
        {
          "internalType": "bytes",
          "name": "data",
          "type": "bytes"
        }
      ],
      "name": "safeBatchTransferFrom",
      "outputs": [],
      "stateMutability": "nonpayable",
      "type": "function"
    },
    {
      "inputs": [
        {
          "internalType": "address",
          "name": "from",
          "type": "address"
        },
        {
          "internalType": "address",
          "name": "to",
          "type": "address"
        },
        {
          "internalType": "uint256",
          "name": "id",
          "type": "uint256"
        },
        {
          "internalType": "uint256",
          "name": "value",
          "type": "uint256"
        },
        {
          "internalType": "bytes",
          "name": "data",
          "type": "bytes"
        }
      ],
      "name": "safeTransferFrom",
      "outputs": [],
      "stateMutability": "nonpayable",
      "type": "function"
    },
    {
      "inputs": [
        {
          "internalType": "address",
          "name": "operator",
          "type": "address"
        },
        {
          "internalType": "bool",
          "name": "approved",
          "type": "bool"
        }
      ],
      "name": "setApprovalForAll",
      "outputs": [],
      "stateMutability": "nonpayable",
      "type": "function"
    },
    {
      "inputs": [
        {
          "internalType": "string",
          "name": "newuri",
          "type": "string"
        }
      ],
      "name": "setURI",
      "outputs": [],
      "stateMutability": "nonpayable",
      "type": "function"
    },
    {
      "inputs": [
        {
          "internalType": "bytes4",
          "name": "interfaceId",
          "type": "bytes4"
        }
      ],
      "name": "supportsInterface",
      "outputs": [
        {
          "internalType": "bool",
          "name": "",
          "type": "bool"
        }
      ],
      "stateMutability": "view",
      "type": "function"
    },
    {
      "inputs": [],
      "name": "totalSupply",
      "outputs": [
        {
          "internalType": "uint256",
          "name": "",
          "type": "uint256"
        }
      ],
      "stateMutability": "view",
      "type": "function"
    },
    {
      "inputs": [
        {
          "internalType": "uint256",
          "name": "id",
          "type": "uint256"
        }
      ],
      "name": "totalSupply",
      "outputs": [
        {
          "internalType": "uint256",
          "name": "",
          "type": "uint256"
        }
      ],
      "stateMutability": "view",
      "type": "function"
    },
    {
      "inputs": [
        {
          "internalType": "address",
          "name": "newOwner",
          "type": "address"
        }
      ],
      "name": "transferOwnership",
      "outputs": [],
      "stateMutability": "nonpayable",
      "type": "function"
    },
    {
      "inputs": [
        {
          "internalType": "uint256",
          "name": "tokenId",
          "type": "uint256"
        }
      ],
      "name": "uri",
      "outputs": [
        {
          "internalType": "string",
          "name": "",
          "type": "string"
        }
      ],
      "stateMutability": "view",
      "type": "function"
    }
  ],
  "transactionHash": "0xb1cc597cdfbe8ad54ed173bc6cb2c324b74420be3dc91fa16255656c32105cb6",
  "args": [
    "0xAe451f1873B4C4D7263631Bf0ea141D54Ba39eEa",
    "https://res.cloudinary.com/dplp5wtzk/image/upload/v1715440386/token-monster/"
  ],
  "numDeployments": 4,
  "solcInputHash": "0feec4a2e38b7800d5de4b1de2c68143",
  "bytecode": "0x608060405234801561001057600080fd5b5060405161218c38038061218c83398101604081905261002f916100ff565b818161003a81610087565b506001600160a01b03811661006957604051631e4fbdf760e01b81526000600482015260240160405180910390fd5b61007281610097565b50600661007f8282610273565b505050610332565b60026100938282610273565b5050565b600380546001600160a01b038381166001600160a01b0319831681179093556040519116919082907f8be0079c531659141344cd1fd0a4f28419497f9722a3daafe3b4186f6b6457e090600090a35050565b634e487b7160e01b600052604160045260246000fd5b6000806040838503121561011257600080fd5b82516001600160a01b038116811461012957600080fd5b602084810151919350906001600160401b038082111561014857600080fd5b818601915086601f83011261015c57600080fd5b81518181111561016e5761016e6100e9565b604051601f8201601f19908116603f01168101908382118183101715610196576101966100e9565b8160405282815289868487010111156101ae57600080fd5b600093505b828410156101d057848401860151818501870152928501926101b3565b60008684830101528096505050505050509250929050565b600181811c908216806101fc57607f821691505b60208210810361021c57634e487b7160e01b600052602260045260246000fd5b50919050565b601f82111561026e576000816000526020600020601f850160051c8101602086101561024b5750805b601f850160051c820191505b8181101561026a57828155600101610257565b5050505b505050565b81516001600160401b0381111561028c5761028c6100e9565b6102a08161029a84546101e8565b84610222565b602080601f8311600181146102d557600084156102bd5750858301515b600019600386901b1c1916600185901b17855561026a565b600085815260208120601f198616915b82811015610304578886015182559484019460019091019084016102e5565b50858210156103225787850151600019600388901b60f8161c191681555b5050505050600190811b01905550565b611e4b806103416000396000f3fe608060405234801561001057600080fd5b50600436106101205760003560e01c80634f558e79116100ad578063bd85b03911610071578063bd85b0391461026f578063e985e9c51461028f578063f242432a146102a2578063f2fde38b146102b5578063f5298aca146102c857600080fd5b80634f558e79146102045780636b20c45414610226578063715018a6146102395780638da5cb5b14610241578063a22cb4651461025c57600080fd5b8063156e29f6116100f4578063156e29f6146101a357806318160ddd146101b65780631f7fdffa146101be5780632eb2c2d6146101d15780634e1273f4146101e457600080fd5b8062fdd58e1461012557806301ffc9a71461014b57806302fe53051461016e5780630e89341c14610183575b600080fd5b6101386101333660046112fe565b6102db565b6040519081526020015b60405180910390f35b61015e61015936600461133e565b610303565b6040519015158152602001610142565b61018161017c3660046113ff565b610353565b005b61019661019136600461144f565b61036b565b60405161014291906114b8565b6101816101b13660046114cb565b610415565b600554610138565b6101816101cc3660046115b0565b610435565b6101816101df366004611648565b61044f565b6101f76101f23660046116f1565b6104bb565b60405161014291906117ec565b61015e61021236600461144f565b600090815260046020526040902054151590565b6101816102343660046117ff565b610587565b6101816105e6565b6003546040516001600160a01b039091168152602001610142565b61018161026a366004611872565b6105fa565b61013861027d36600461144f565b60009081526004602052604090205490565b61015e61029d3660046118ae565b610605565b6101816102b03660046118e1565b610633565b6101816102c3366004611945565b610692565b6101816102d63660046114cb565b6106d0565b6000818152602081815260408083206001600160a01b03861684529091529020545b92915050565b60006001600160e01b03198216636cdb3d1360e11b148061033457506001600160e01b031982166303a24d0760e21b145b806102fd57506301ffc9a760e01b6001600160e01b03198316146102fd565b61035b610706565b600661036782826119e2565b5050565b6060600061037a600584611ab7565b90506000600661038983610733565b60405160200161039a929190611acb565b604051602081830303815290604052905060006103b685610733565b6103bf86610733565b836040516020016103d293929190611b61565b60405160208183030381529060405290506103ec816107c5565b6040516020016103fc9190611c38565b6040516020818303038152906040529350505050919050565b61043083838360405180602001604052806000815250610924565b505050565b61043d610706565b61044984848484610981565b50505050565b336001600160a01b0386168114801590610470575061046e8682610605565b155b156104a65760405163711bec9160e11b81526001600160a01b038083166004830152871660248201526044015b60405180910390fd5b6104b386868686866109b9565b505050505050565b606081518351146104ec5781518351604051635b05999160e01b81526004810192909252602482015260440161049d565b600083516001600160401b0381111561050757610507611362565b604051908082528060200260200182016040528015610530578160200160208202803683370190505b50905060005b845181101561057f5760208082028601015161055a906020808402870101516102db565b82828151811061056c5761056c611c7d565b6020908102919091010152600101610536565b509392505050565b6001600160a01b03831633148015906105a757506105a58333610605565b155b156105db57335b60405163711bec9160e11b81526001600160a01b039182166004820152908416602482015260440161049d565b610430838383610a20565b6105ee610706565b6105f86000610a66565b565b610367338383610ab8565b6001600160a01b03918216600090815260016020908152604080832093909416825291909152205460ff1690565b336001600160a01b038616811480159061065457506106528682610605565b155b156106855760405163711bec9160e11b81526001600160a01b0380831660048301528716602482015260440161049d565b6104b38686868686610b4e565b61069a610706565b6001600160a01b0381166106c457604051631e4fbdf760e01b81526000600482015260240161049d565b6106cd81610a66565b50565b6001600160a01b03831633148015906106f057506106ee8333610605565b155b156106fb57336105ae565b610430838383610bdc565b6003546001600160a01b031633146105f85760405163118cdaa760e01b815233600482015260240161049d565b6060600061074083610c44565b60010190506000816001600160401b0381111561075f5761075f611362565b6040519080825280601f01601f191660200182016040528015610789576020820181803683370190505b5090508181016020015b600019016f181899199a1a9b1b9c1cb0b131b232b360811b600a86061a8153600a850494508461079357509392505050565b606081516000036107e457505060408051602081019091526000815290565b6000604051806060016040528060408152602001611dd660409139905060006003845160026108139190611ca9565b61081d9190611cbc565b610828906004611cd0565b6001600160401b0381111561083f5761083f611362565b6040519080825280601f01601f191660200182016040528015610869576020820181803683370190505b50905060018201602082018586518701602081018051600082525b828410156108df576003840193508351603f8160121c168701518653600186019550603f81600c1c168701518653600186019550603f8160061c168701518653600186019550603f8116870151865350600185019450610884565b90525050855160039006600181146108fe576002811461091157610919565b603d6001830353603d6002830353610919565b603d60018303535b509195945050505050565b6001600160a01b03841661094e57604051632bfa23e760e11b81526000600482015260240161049d565b604080516001808252602082018690528183019081526060820185905260808201909252906104b3600087848487610d1c565b6001600160a01b0384166109ab57604051632bfa23e760e11b81526000600482015260240161049d565b610449600085858585610d1c565b6001600160a01b0384166109e357604051632bfa23e760e11b81526000600482015260240161049d565b6001600160a01b038516610a0c57604051626a0d4560e21b81526000600482015260240161049d565b610a198585858585610d1c565b5050505050565b6001600160a01b038316610a4957604051626a0d4560e21b81526000600482015260240161049d565b610430836000848460405180602001604052806000815250610d1c565b600380546001600160a01b038381166001600160a01b0319831681179093556040519116919082907f8be0079c531659141344cd1fd0a4f28419497f9722a3daafe3b4186f6b6457e090600090a35050565b6001600160a01b038216610ae15760405162ced3e160e81b81526000600482015260240161049d565b6001600160a01b03838116600081815260016020908152604080832094871680845294825291829020805460ff191686151590811790915591519182527f17307eab39ab6107e8899845ad3d59bd9653f200f220920489ca2b5937696c31910160405180910390a3505050565b6001600160a01b038416610b7857604051632bfa23e760e11b81526000600482015260240161049d565b6001600160a01b038516610ba157604051626a0d4560e21b81526000600482015260240161049d565b60408051600180825260208201869052818301908152606082018590526080820190925290610bd38787848487610d1c565b50505050505050565b6001600160a01b038316610c0557604051626a0d4560e21b81526000600482015260240161049d565b604080516001808252602082018590528183019081526060820184905260a08201909252600060808201818152919291610a1991879185908590610d1c565b60008072184f03e93ff9f4daa797ed6e38ed64bf6a1f0160401b8310610c835772184f03e93ff9f4daa797ed6e38ed64bf6a1f0160401b830492506040015b6d04ee2d6d415b85acef81000000008310610caf576d04ee2d6d415b85acef8100000000830492506020015b662386f26fc100008310610ccd57662386f26fc10000830492506010015b6305f5e1008310610ce5576305f5e100830492506008015b6127108310610cf957612710830492506004015b60648310610d0b576064830492506002015b600a83106102fd5760010192915050565b610d2885858585610d6f565b6001600160a01b03841615610a195782513390600103610d615760208481015190840151610d5a838989858589610d7b565b50506104b3565b6104b3818787878787610e9f565b61044984848484610f88565b6001600160a01b0384163b156104b35760405163f23a6e6160e01b81526001600160a01b0385169063f23a6e6190610dbf9089908990889088908890600401611ce7565b6020604051808303816000875af1925050508015610dfa575060408051601f3d908101601f19168201909252610df791810190611d2c565b60015b610e63573d808015610e28576040519150601f19603f3d011682016040523d82523d6000602084013e610e2d565b606091505b508051600003610e5b57604051632bfa23e760e11b81526001600160a01b038616600482015260240161049d565b805181602001fd5b6001600160e01b0319811663f23a6e6160e01b14610bd357604051632bfa23e760e11b81526001600160a01b038616600482015260240161049d565b6001600160a01b0384163b156104b35760405163bc197c8160e01b81526001600160a01b0385169063bc197c8190610ee39089908990889088908890600401611d49565b6020604051808303816000875af1925050508015610f1e575060408051601f3d908101601f19168201909252610f1b91810190611d2c565b60015b610f4c573d808015610e28576040519150601f19603f3d011682016040523d82523d6000602084013e610e2d565b6001600160e01b0319811663bc197c8160e01b14610bd357604051632bfa23e760e11b81526001600160a01b038616600482015260240161049d565b610f94848484846110ce565b6001600160a01b03841661103e576000805b8351811015611024576000838281518110610fc357610fc3611c7d565b602002602001015190508060046000878581518110610fe457610fe4611c7d565b6020026020010151815260200190815260200160002060008282546110099190611ca9565b9091555061101990508184611ca9565b925050600101610fa6565b5080600560008282546110379190611ca9565b9091555050505b6001600160a01b038316610449576000805b83518110156110bd57600083828151811061106d5761106d611c7d565b60200260200101519050806004600087858151811061108e5761108e611c7d565b602090810291909101810151825281019190915260400160002080549190910390559190910190600101611050565b506005805491909103905550505050565b80518251146110fd5781518151604051635b05999160e01b81526004810192909252602482015260440161049d565b3360005b8351811015611203576020818102858101820151908501909101516001600160a01b038816156111b4576000828152602081815260408083206001600160a01b038c1684529091529020548181101561118d576040516303dee4c560e01b81526001600160a01b038a16600482015260248101829052604481018390526064810184905260840161049d565b6000838152602081815260408083206001600160a01b038d16845290915290209082900390555b6001600160a01b038716156111f9576000828152602081815260408083206001600160a01b038b168452909152812080548392906111f3908490611ca9565b90915550505b5050600101611101565b5082516001036112845760208301516000906020840151909150856001600160a01b0316876001600160a01b0316846001600160a01b03167fc3d58168c5ae7397731d063d5bbf3d657854427343f4c083240f7aacaa2d0f628585604051611275929190918252602082015260400190565b60405180910390a45050610a19565b836001600160a01b0316856001600160a01b0316826001600160a01b03167f4a39dc06d4c0dbc64b70af90fd698a233a518aa5d07e595d983b8c0526c8f7fb86866040516112d3929190611da7565b60405180910390a45050505050565b80356001600160a01b03811681146112f957600080fd5b919050565b6000806040838503121561131157600080fd5b61131a836112e2565b946020939093013593505050565b6001600160e01b0319811681146106cd57600080fd5b60006020828403121561135057600080fd5b813561135b81611328565b9392505050565b634e487b7160e01b600052604160045260246000fd5b604051601f8201601f191681016001600160401b03811182821017156113a0576113a0611362565b604052919050565b60006001600160401b038311156113c1576113c1611362565b6113d4601f8401601f1916602001611378565b90508281528383830111156113e857600080fd5b828260208301376000602084830101529392505050565b60006020828403121561141157600080fd5b81356001600160401b0381111561142757600080fd5b8201601f8101841361143857600080fd5b611447848235602084016113a8565b949350505050565b60006020828403121561146157600080fd5b5035919050565b60005b8381101561148357818101518382015260200161146b565b50506000910152565b600081518084526114a4816020860160208601611468565b601f01601f19169290920160200192915050565b60208152600061135b602083018461148c565b6000806000606084860312156114e057600080fd5b6114e9846112e2565b95602085013595506040909401359392505050565b60006001600160401b0382111561151757611517611362565b5060051b60200190565b600082601f83011261153257600080fd5b81356020611547611542836114fe565b611378565b8083825260208201915060208460051b87010193508684111561156957600080fd5b602086015b84811015611585578035835291830191830161156e565b509695505050505050565b600082601f8301126115a157600080fd5b61135b838335602085016113a8565b600080600080608085870312156115c657600080fd5b6115cf856112e2565b935060208501356001600160401b03808211156115eb57600080fd5b6115f788838901611521565b9450604087013591508082111561160d57600080fd5b61161988838901611521565b9350606087013591508082111561162f57600080fd5b5061163c87828801611590565b91505092959194509250565b600080600080600060a0868803121561166057600080fd5b611669866112e2565b9450611677602087016112e2565b935060408601356001600160401b038082111561169357600080fd5b61169f89838a01611521565b945060608801359150808211156116b557600080fd5b6116c189838a01611521565b935060808801359150808211156116d757600080fd5b506116e488828901611590565b9150509295509295909350565b6000806040838503121561170457600080fd5b82356001600160401b038082111561171b57600080fd5b818501915085601f83011261172f57600080fd5b8135602061173f611542836114fe565b82815260059290921b8401810191818101908984111561175e57600080fd5b948201945b8386101561178357611774866112e2565b82529482019490820190611763565b9650508601359250508082111561179957600080fd5b506117a685828601611521565b9150509250929050565b60008151808452602080850194506020840160005b838110156117e1578151875295820195908201906001016117c5565b509495945050505050565b60208152600061135b60208301846117b0565b60008060006060848603121561181457600080fd5b61181d846112e2565b925060208401356001600160401b038082111561183957600080fd5b61184587838801611521565b9350604086013591508082111561185b57600080fd5b5061186886828701611521565b9150509250925092565b6000806040838503121561188557600080fd5b61188e836112e2565b9150602083013580151581146118a357600080fd5b809150509250929050565b600080604083850312156118c157600080fd5b6118ca836112e2565b91506118d8602084016112e2565b90509250929050565b600080600080600060a086880312156118f957600080fd5b611902866112e2565b9450611910602087016112e2565b9350604086013592506060860135915060808601356001600160401b0381111561193957600080fd5b6116e488828901611590565b60006020828403121561195757600080fd5b61135b826112e2565b600181811c9082168061197457607f821691505b60208210810361199457634e487b7160e01b600052602260045260246000fd5b50919050565b601f821115610430576000816000526020600020601f850160051c810160208610156119c35750805b601f850160051c820191505b818110156104b3578281556001016119cf565b81516001600160401b038111156119fb576119fb611362565b611a0f81611a098454611960565b8461199a565b602080601f831160018114611a445760008415611a2c5750858301515b600019600386901b1c1916600185901b1785556104b3565b600085815260208120601f198616915b82811015611a7357888601518255948401946001909101908401611a54565b5085821015611a915787850151600019600388901b60f8161c191681555b5050505050600190811b01905550565b634e487b7160e01b600052601260045260246000fd5b600082611ac657611ac6611aa1565b500690565b6000808454611ad981611960565b60018281168015611af15760018114611b0657611b35565b60ff1984168752821515830287019450611b35565b8860005260208060002060005b85811015611b2c5781548a820152908401908201611b13565b50505082870194505b505050508351611b49818360208801611468565b632e706e6760e01b9101908152600401949350505050565b7f7b226e616d65223a20224344482053616d706c65204552433131353520230000815260008451611b9981601e850160208901611468565b7f222c20226465736372697074696f6e223a202254686973206973204344482053601e918401918201526e616d706c652045524331313535202360881b603e8201528451611bee81604d840160208901611468565b6c1116101134b6b0b3b2911d101160991b604d92909101918201528351611c1c81605a840160208801611468565b61227d60f01b605a9290910191820152605c0195945050505050565b7f646174613a6170706c69636174696f6e2f6a736f6e3b6261736536342c000000815260008251611c7081601d850160208701611468565b91909101601d0192915050565b634e487b7160e01b600052603260045260246000fd5b634e487b7160e01b600052601160045260246000fd5b808201808211156102fd576102fd611c93565b600082611ccb57611ccb611aa1565b500490565b80820281158282048414176102fd576102fd611c93565b6001600160a01b03868116825285166020820152604081018490526060810183905260a060808201819052600090611d219083018461148c565b979650505050505050565b600060208284031215611d3e57600080fd5b815161135b81611328565b6001600160a01b0386811682528516602082015260a060408201819052600090611d75908301866117b0565b8281036060840152611d8781866117b0565b90508281036080840152611d9b818561148c565b98975050505050505050565b604081526000611dba60408301856117b0565b8281036020840152611dcc81856117b0565b9594505050505056fe4142434445464748494a4b4c4d4e4f505152535455565758595a6162636465666768696a6b6c6d6e6f707172737475767778797a303132333435363738392b2fa26469706673582212203d711c4bbaeeebe9140642993d8790118b6dfe0efe911593970ffcdb84dae15a64736f6c63430008190033",
  "devdoc": {
    "errors": {
      "ERC1155InsufficientBalance(address,uint256,uint256,uint256)": [
        {
          "details": "Indicates an error related to the current `balance` of a `sender`. Used in transfers.",
          "params": {
            "balance": "Current balance for the interacting account.",
            "needed": "Minimum amount required to perform a transfer.",
            "sender": "Address whose tokens are being transferred.",
            "tokenId": "Identifier number of a token."
          }
        }
      ],
      "ERC1155InvalidApprover(address)": [
        {
          "details": "Indicates a failure with the `approver` of a token to be approved. Used in approvals.",
          "params": {
            "approver": "Address initiating an approval operation."
          }
        }
      ],
      "ERC1155InvalidArrayLength(uint256,uint256)": [
        {
          "details": "Indicates an array length mismatch between ids and values in a safeBatchTransferFrom operation. Used in batch transfers.",
          "params": {
            "idsLength": "Length of the array of token identifiers",
            "valuesLength": "Length of the array of token amounts"
          }
        }
      ],
      "ERC1155InvalidOperator(address)": [
        {
          "details": "Indicates a failure with the `operator` to be approved. Used in approvals.",
          "params": {
            "operator": "Address that may be allowed to operate on tokens without being their owner."
          }
        }
      ],
      "ERC1155InvalidReceiver(address)": [
        {
          "details": "Indicates a failure with the token `receiver`. Used in transfers.",
          "params": {
            "receiver": "Address to which tokens are being transferred."
          }
        }
      ],
      "ERC1155InvalidSender(address)": [
        {
          "details": "Indicates a failure with the token `sender`. Used in transfers.",
          "params": {
            "sender": "Address whose tokens are being transferred."
          }
        }
      ],
      "ERC1155MissingApprovalForAll(address,address)": [
        {
          "details": "Indicates a failure with the `operator`s approval. Used in transfers.",
          "params": {
            "operator": "Address that may be allowed to operate on tokens without being their owner.",
            "owner": "Address of the current owner of a token."
          }
        }
      ],
      "OwnableInvalidOwner(address)": [
        {
          "details": "The owner is not a valid owner account. (eg. `address(0)`)"
        }
      ],
      "OwnableUnauthorizedAccount(address)": [
        {
          "details": "The caller account is not authorized to perform an operation."
        }
      ]
    },
    "events": {
      "ApprovalForAll(address,address,bool)": {
        "details": "Emitted when `account` grants or revokes permission to `operator` to transfer their tokens, according to `approved`."
      },
      "TransferBatch(address,address,address,uint256[],uint256[])": {
        "details": "Equivalent to multiple {TransferSingle} events, where `operator`, `from` and `to` are the same for all transfers."
      },
      "TransferSingle(address,address,address,uint256,uint256)": {
        "details": "Emitted when `value` amount of tokens of type `id` are transferred from `from` to `to` by `operator`."
      },
      "URI(string,uint256)": {
        "details": "Emitted when the URI for token type `id` changes to `value`, if it is a non-programmatic URI. If an {URI} event was emitted for `id`, the standard https://eips.ethereum.org/EIPS/eip-1155#metadata-extensions[guarantees] that `value` will equal the value returned by {IERC1155MetadataURI-uri}."
      }
    },
    "kind": "dev",
    "methods": {
      "balanceOf(address,uint256)": {
        "details": "See {IERC1155-balanceOf}."
      },
      "balanceOfBatch(address[],uint256[])": {
        "details": "See {IERC1155-balanceOfBatch}. Requirements: - `accounts` and `ids` must have the same length."
      },
      "exists(uint256)": {
        "details": "Indicates whether any token exist with a given id, or not."
      },
      "isApprovedForAll(address,address)": {
        "details": "See {IERC1155-isApprovedForAll}."
      },
      "owner()": {
        "details": "Returns the address of the current owner."
      },
      "renounceOwnership()": {
        "details": "Leaves the contract without owner. It will not be possible to call `onlyOwner` functions. Can only be called by the current owner. NOTE: Renouncing ownership will leave the contract without an owner, thereby disabling any functionality that is only available to the owner."
      },
      "safeBatchTransferFrom(address,address,uint256[],uint256[],bytes)": {
        "details": "See {IERC1155-safeBatchTransferFrom}."
      },
      "safeTransferFrom(address,address,uint256,uint256,bytes)": {
        "details": "See {IERC1155-safeTransferFrom}."
      },
      "setApprovalForAll(address,bool)": {
        "details": "See {IERC1155-setApprovalForAll}."
      },
      "supportsInterface(bytes4)": {
        "details": "See {IERC165-supportsInterface}."
      },
      "totalSupply()": {
        "details": "Total value of tokens."
      },
      "totalSupply(uint256)": {
        "details": "Total value of tokens in with a given id."
      },
      "transferOwnership(address)": {
        "details": "Transfers ownership of the contract to a new account (`newOwner`). Can only be called by the current owner."
      }
    },
    "version": 1
  },
  "userdoc": {
    "kind": "user",
    "methods": {},
    "version": 1
  },
  "storageLayout": {
    "storage": [
      {
        "astId": 351,
        "contract": "contracts/nft/SampleERC1155.sol:SampleERC1155",
        "label": "_balances",
        "offset": 0,
        "slot": "0",
        "type": "t_mapping(t_uint256,t_mapping(t_address,t_uint256))"
      },
      {
        "astId": 357,
        "contract": "contracts/nft/SampleERC1155.sol:SampleERC1155",
        "label": "_operatorApprovals",
        "offset": 0,
        "slot": "1",
        "type": "t_mapping(t_address,t_mapping(t_address,t_bool))"
      },
      {
        "astId": 359,
        "contract": "contracts/nft/SampleERC1155.sol:SampleERC1155",
        "label": "_uri",
        "offset": 0,
        "slot": "2",
        "type": "t_string_storage"
      },
      {
        "astId": 8,
        "contract": "contracts/nft/SampleERC1155.sol:SampleERC1155",
        "label": "_owner",
        "offset": 0,
        "slot": "3",
        "type": "t_address"
      },
      {
        "astId": 1616,
        "contract": "contracts/nft/SampleERC1155.sol:SampleERC1155",
        "label": "_totalSupply",
        "offset": 0,
        "slot": "4",
        "type": "t_mapping(t_uint256,t_uint256)"
      },
      {
        "astId": 1618,
        "contract": "contracts/nft/SampleERC1155.sol:SampleERC1155",
        "label": "_totalSupplyAll",
        "offset": 0,
        "slot": "5",
        "type": "t_uint256"
      },
      {
        "astId": 6630,
        "contract": "contracts/nft/SampleERC1155.sol:SampleERC1155",
        "label": "_baseUri",
        "offset": 0,
        "slot": "6",
        "type": "t_string_storage"
      }
    ],
    "types": {
      "t_address": {
        "encoding": "inplace",
        "label": "address",
        "numberOfBytes": "20"
      },
      "t_bool": {
        "encoding": "inplace",
        "label": "bool",
        "numberOfBytes": "1"
      },
      "t_mapping(t_address,t_bool)": {
        "encoding": "mapping",
        "key": "t_address",
        "label": "mapping(address => bool)",
        "numberOfBytes": "32",
        "value": "t_bool"
      },
      "t_mapping(t_address,t_mapping(t_address,t_bool))": {
        "encoding": "mapping",
        "key": "t_address",
        "label": "mapping(address => mapping(address => bool))",
        "numberOfBytes": "32",
        "value": "t_mapping(t_address,t_bool)"
      },
      "t_mapping(t_address,t_uint256)": {
        "encoding": "mapping",
        "key": "t_address",
        "label": "mapping(address => uint256)",
        "numberOfBytes": "32",
        "value": "t_uint256"
      },
      "t_mapping(t_uint256,t_mapping(t_address,t_uint256))": {
        "encoding": "mapping",
        "key": "t_uint256",
        "label": "mapping(uint256 => mapping(address => uint256))",
        "numberOfBytes": "32",
        "value": "t_mapping(t_address,t_uint256)"
      },
      "t_mapping(t_uint256,t_uint256)": {
        "encoding": "mapping",
        "key": "t_uint256",
        "label": "mapping(uint256 => uint256)",
        "numberOfBytes": "32",
        "value": "t_uint256"
      },
      "t_string_storage": {
        "encoding": "bytes",
        "label": "string",
        "numberOfBytes": "32"
      },
      "t_uint256": {
        "encoding": "inplace",
        "label": "uint256",
        "numberOfBytes": "32"
      }
    }
  }
}