{
  "address": "0xFaA6b0F372f8effcc95f1581AaAaa4Afd8419ad5",
  "abi": [
    {
      "inputs": [
        {
          "internalType": "address",
          "name": "initialOwner",
          "type": "address"
        }
      ],
      "stateMutability": "nonpayable",
      "type": "constructor"
    },
    {
      "inputs": [
        {
          "internalType": "address",
          "name": "sender",
          "type": "address"
        },
        {
          "internalType": "uint256",
          "name": "balance",
          "type": "uint256"
        },
        {
          "internalType": "uint256",
          "name": "needed",
          "type": "uint256"
        },
        {
          "internalType": "uint256",
          "name": "tokenId",
          "type": "uint256"
        }
      ],
      "name": "ERC1155InsufficientBalance",
      "type": "error"
    },
    {
      "inputs": [
        {
          "internalType": "address",
          "name": "approver",
          "type": "address"
        }
      ],
      "name": "ERC1155InvalidApprover",
      "type": "error"
    },
    {
      "inputs": [
        {
          "internalType": "uint256",
          "name": "idsLength",
          "type": "uint256"
        },
        {
          "internalType": "uint256",
          "name": "valuesLength",
          "type": "uint256"
        }
      ],
      "name": "ERC1155InvalidArrayLength",
      "type": "error"
    },
    {
      "inputs": [
        {
          "internalType": "address",
          "name": "operator",
          "type": "address"
        }
      ],
      "name": "ERC1155InvalidOperator",
      "type": "error"
    },
    {
      "inputs": [
        {
          "internalType": "address",
          "name": "receiver",
          "type": "address"
        }
      ],
      "name": "ERC1155InvalidReceiver",
      "type": "error"
    },
    {
      "inputs": [
        {
          "internalType": "address",
          "name": "sender",
          "type": "address"
        }
      ],
      "name": "ERC1155InvalidSender",
      "type": "error"
    },
    {
      "inputs": [
        {
          "internalType": "address",
          "name": "operator",
          "type": "address"
        },
        {
          "internalType": "address",
          "name": "owner",
          "type": "address"
        }
      ],
      "name": "ERC1155MissingApprovalForAll",
      "type": "error"
    },
    {
      "inputs": [
        {
          "internalType": "address",
          "name": "owner",
          "type": "address"
        }
      ],
      "name": "OwnableInvalidOwner",
      "type": "error"
    },
    {
      "inputs": [
        {
          "internalType": "address",
          "name": "account",
          "type": "address"
        }
      ],
      "name": "OwnableUnauthorizedAccount",
      "type": "error"
    },
    {
      "anonymous": false,
      "inputs": [
        {
          "indexed": true,
          "internalType": "address",
          "name": "account",
          "type": "address"
        },
        {
          "indexed": true,
          "internalType": "address",
          "name": "operator",
          "type": "address"
        },
        {
          "indexed": false,
          "internalType": "bool",
          "name": "approved",
          "type": "bool"
        }
      ],
      "name": "ApprovalForAll",
      "type": "event"
    },
    {
      "anonymous": false,
      "inputs": [
        {
          "indexed": true,
          "internalType": "address",
          "name": "previousOwner",
          "type": "address"
        },
        {
          "indexed": true,
          "internalType": "address",
          "name": "newOwner",
          "type": "address"
        }
      ],
      "name": "OwnershipTransferred",
      "type": "event"
    },
    {
      "anonymous": false,
      "inputs": [
        {
          "indexed": true,
          "internalType": "address",
          "name": "operator",
          "type": "address"
        },
        {
          "indexed": true,
          "internalType": "address",
          "name": "from",
          "type": "address"
        },
        {
          "indexed": true,
          "internalType": "address",
          "name": "to",
          "type": "address"
        },
        {
          "indexed": false,
          "internalType": "uint256[]",
          "name": "ids",
          "type": "uint256[]"
        },
        {
          "indexed": false,
          "internalType": "uint256[]",
          "name": "values",
          "type": "uint256[]"
        }
      ],
      "name": "TransferBatch",
      "type": "event"
    },
    {
      "anonymous": false,
      "inputs": [
        {
          "indexed": true,
          "internalType": "address",
          "name": "operator",
          "type": "address"
        },
        {
          "indexed": true,
          "internalType": "address",
          "name": "from",
          "type": "address"
        },
        {
          "indexed": true,
          "internalType": "address",
          "name": "to",
          "type": "address"
        },
        {
          "indexed": false,
          "internalType": "uint256",
          "name": "id",
          "type": "uint256"
        },
        {
          "indexed": false,
          "internalType": "uint256",
          "name": "value",
          "type": "uint256"
        }
      ],
      "name": "TransferSingle",
      "type": "event"
    },
    {
      "anonymous": false,
      "inputs": [
        {
          "indexed": false,
          "internalType": "string",
          "name": "value",
          "type": "string"
        },
        {
          "indexed": true,
          "internalType": "uint256",
          "name": "id",
          "type": "uint256"
        }
      ],
      "name": "URI",
      "type": "event"
    },
    {
      "inputs": [
        {
          "internalType": "address",
          "name": "account",
          "type": "address"
        },
        {
          "internalType": "uint256",
          "name": "id",
          "type": "uint256"
        }
      ],
      "name": "balanceOf",
      "outputs": [
        {
          "internalType": "uint256",
          "name": "",
          "type": "uint256"
        }
      ],
      "stateMutability": "view",
      "type": "function"
    },
    {
      "inputs": [
        {
          "internalType": "address[]",
          "name": "accounts",
          "type": "address[]"
        },
        {
          "internalType": "uint256[]",
          "name": "ids",
          "type": "uint256[]"
        }
      ],
      "name": "balanceOfBatch",
      "outputs": [
        {
          "internalType": "uint256[]",
          "name": "",
          "type": "uint256[]"
        }
      ],
      "stateMutability": "view",
      "type": "function"
    },
    {
      "inputs": [
        {
          "internalType": "address",
          "name": "account",
          "type": "address"
        },
        {
          "internalType": "uint256",
          "name": "id",
          "type": "uint256"
        },
        {
          "internalType": "uint256",
          "name": "value",
          "type": "uint256"
        }
      ],
      "name": "burn",
      "outputs": [],
      "stateMutability": "nonpayable",
      "type": "function"
    },
    {
      "inputs": [
        {
          "internalType": "address",
          "name": "account",
          "type": "address"
        },
        {
          "internalType": "uint256[]",
          "name": "ids",
          "type": "uint256[]"
        },
        {
          "internalType": "uint256[]",
          "name": "values",
          "type": "uint256[]"
        }
      ],
      "name": "burnBatch",
      "outputs": [],
      "stateMutability": "nonpayable",
      "type": "function"
    },
    {
      "inputs": [
        {
          "internalType": "uint256",
          "name": "id",
          "type": "uint256"
        }
      ],
      "name": "exists",
      "outputs": [
        {
          "internalType": "bool",
          "name": "",
          "type": "bool"
        }
      ],
      "stateMutability": "view",
      "type": "function"
    },
    {
      "inputs": [
        {
          "internalType": "address",
          "name": "account",
          "type": "address"
        },
        {
          "internalType": "address",
          "name": "operator",
          "type": "address"
        }
      ],
      "name": "isApprovedForAll",
      "outputs": [
        {
          "internalType": "bool",
          "name": "",
          "type": "bool"
        }
      ],
      "stateMutability": "view",
      "type": "function"
    },
    {
      "inputs": [
        {
          "internalType": "address",
          "name": "account",
          "type": "address"
        },
        {
          "internalType": "uint256",
          "name": "id",
          "type": "uint256"
        },
        {
          "internalType": "uint256",
          "name": "amount",
          "type": "uint256"
        }
      ],
      "name": "mint",
      "outputs": [],
      "stateMutability": "nonpayable",
      "type": "function"
    },
    {
      "inputs": [
        {
          "internalType": "address",
          "name": "to",
          "type": "address"
        },
        {
          "internalType": "uint256[]",
          "name": "ids",
          "type": "uint256[]"
        },
        {
          "internalType": "uint256[]",
          "name": "amounts",
          "type": "uint256[]"
        },
        {
          "internalType": "bytes",
          "name": "data",
          "type": "bytes"
        }
      ],
      "name": "mintBatch",
      "outputs": [],
      "stateMutability": "nonpayable",
      "type": "function"
    },
    {
      "inputs": [],
      "name": "owner",
      "outputs": [
        {
          "internalType": "address",
          "name": "",
          "type": "address"
        }
      ],
      "stateMutability": "view",
      "type": "function"
    },
    {
      "inputs": [],
      "name": "renounceOwnership",
      "outputs": [],
      "stateMutability": "nonpayable",
      "type": "function"
    },
    {
      "inputs": [
        {
          "internalType": "address",
          "name": "from",
          "type": "address"
        },
        {
          "internalType": "address",
          "name": "to",
          "type": "address"
        },
        {
          "internalType": "uint256[]",
          "name": "ids",
          "type": "uint256[]"
        },
        {
          "internalType": "uint256[]",
          "name": "values",
          "type": "uint256[]"
        },
        {
          "internalType": "bytes",
          "name": "data",
          "type": "bytes"
        }
      ],
      "name": "safeBatchTransferFrom",
      "outputs": [],
      "stateMutability": "nonpayable",
      "type": "function"
    },
    {
      "inputs": [
        {
          "internalType": "address",
          "name": "from",
          "type": "address"
        },
        {
          "internalType": "address",
          "name": "to",
          "type": "address"
        },
        {
          "internalType": "uint256",
          "name": "id",
          "type": "uint256"
        },
        {
          "internalType": "uint256",
          "name": "value",
          "type": "uint256"
        },
        {
          "internalType": "bytes",
          "name": "data",
          "type": "bytes"
        }
      ],
      "name": "safeTransferFrom",
      "outputs": [],
      "stateMutability": "nonpayable",
      "type": "function"
    },
    {
      "inputs": [
        {
          "internalType": "address",
          "name": "operator",
          "type": "address"
        },
        {
          "internalType": "bool",
          "name": "approved",
          "type": "bool"
        }
      ],
      "name": "setApprovalForAll",
      "outputs": [],
      "stateMutability": "nonpayable",
      "type": "function"
    },
    {
      "inputs": [
        {
          "internalType": "string",
          "name": "newuri",
          "type": "string"
        }
      ],
      "name": "setURI",
      "outputs": [],
      "stateMutability": "nonpayable",
      "type": "function"
    },
    {
      "inputs": [
        {
          "internalType": "bytes4",
          "name": "interfaceId",
          "type": "bytes4"
        }
      ],
      "name": "supportsInterface",
      "outputs": [
        {
          "internalType": "bool",
          "name": "",
          "type": "bool"
        }
      ],
      "stateMutability": "view",
      "type": "function"
    },
    {
      "inputs": [],
      "name": "totalSupply",
      "outputs": [
        {
          "internalType": "uint256",
          "name": "",
          "type": "uint256"
        }
      ],
      "stateMutability": "view",
      "type": "function"
    },
    {
      "inputs": [
        {
          "internalType": "uint256",
          "name": "id",
          "type": "uint256"
        }
      ],
      "name": "totalSupply",
      "outputs": [
        {
          "internalType": "uint256",
          "name": "",
          "type": "uint256"
        }
      ],
      "stateMutability": "view",
      "type": "function"
    },
    {
      "inputs": [
        {
          "internalType": "address",
          "name": "newOwner",
          "type": "address"
        }
      ],
      "name": "transferOwnership",
      "outputs": [],
      "stateMutability": "nonpayable",
      "type": "function"
    },
    {
      "inputs": [
        {
          "internalType": "uint256",
          "name": "tokenId",
          "type": "uint256"
        }
      ],
      "name": "uri",
      "outputs": [
        {
          "internalType": "string",
          "name": "",
          "type": "string"
        }
      ],
      "stateMutability": "pure",
      "type": "function"
    }
  ],
  "transactionHash": "0xd7fe87375f1574d13c6531c955ed167cef1fccd24ac58aaa28ae29ffea4db7e6",
  "args": [
    "0xAe451f1873B4C4D7263631Bf0ea141D54Ba39eEa"
  ],
  "numDeployments": 3,
  "solcInputHash": "26ca61d4dea5260f7c890eec54f581a0",
  "bytecode": "0x608060405234801561001057600080fd5b50604051611e01380380611e0183398101604081905261002f916100f3565b80604051806080016040528060468152602001611dbb6046913961005281610091565b506001600160a01b03811661008157604051631e4fbdf760e01b81526000600482015260240160405180910390fd5b61008a816100a1565b5050610283565b600261009d82826101c4565b5050565b600380546001600160a01b038381166001600160a01b0319831681179093556040519116919082907f8be0079c531659141344cd1fd0a4f28419497f9722a3daafe3b4186f6b6457e090600090a35050565b60006020828403121561010557600080fd5b81516001600160a01b038116811461011c57600080fd5b9392505050565b634e487b7160e01b600052604160045260246000fd5b600181811c9082168061014d57607f821691505b60208210810361016d57634e487b7160e01b600052602260045260246000fd5b50919050565b601f8211156101bf576000816000526020600020601f850160051c8101602086101561019c5750805b601f850160051c820191505b818110156101bb578281556001016101a8565b5050505b505050565b81516001600160401b038111156101dd576101dd610123565b6101f1816101eb8454610139565b84610173565b602080601f831160018114610226576000841561020e5750858301515b600019600386901b1c1916600185901b1785556101bb565b600085815260208120601f198616915b8281101561025557888601518255948401946001909101908401610236565b50858210156102735787850151600019600388901b60f8161c191681555b5050505050600190811b01905550565b611b29806102926000396000f3fe608060405234801561001057600080fd5b50600436106101205760003560e01c80634f558e79116100ad578063bd85b03911610071578063bd85b0391461026f578063e985e9c51461028f578063f242432a146102a2578063f2fde38b146102b5578063f5298aca146102c857600080fd5b80634f558e79146102045780636b20c45414610226578063715018a6146102395780638da5cb5b14610241578063a22cb4651461025c57600080fd5b8063156e29f6116100f4578063156e29f6146101a357806318160ddd146101b65780631f7fdffa146101be5780632eb2c2d6146101d15780634e1273f4146101e457600080fd5b8062fdd58e1461012557806301ffc9a71461014b57806302fe53051461016e5780630e89341c14610183575b600080fd5b61013861013336600461117b565b6102db565b6040519081526020015b60405180910390f35b61015e6101593660046111bb565b610303565b6040519015158152602001610142565b61018161017c36600461127e565b610353565b005b6101966101913660046112cf565b610367565b6040516101429190611338565b6101816101b136600461134b565b6103c2565b600554610138565b6101816101cc366004611431565b6103e2565b6101816101df3660046114ca565b6103fc565b6101f76101f2366004611574565b610468565b6040516101429190611670565b61015e6102123660046112cf565b600090815260046020526040902054151590565b610181610234366004611683565b610535565b610181610594565b6003546040516001600160a01b039091168152602001610142565b61018161026a3660046116f7565b6105a8565b61013861027d3660046112cf565b60009081526004602052604090205490565b61015e61029d366004611733565b6105b7565b6101816102b0366004611766565b6105e5565b6101816102c33660046117cb565b610644565b6101816102d636600461134b565b61067f565b6000818152602081815260408083206001600160a01b03861684529091529020545b92915050565b60006001600160e01b03198216636cdb3d1360e11b148061033457506001600160e01b031982166303a24d0760e21b145b806102fd57506301ffc9a760e01b6001600160e01b03198316146102fd565b61035b6106b5565b610364816106e2565b50565b606060006103766005846117e6565b610381906005611808565b9050600061038d6106ee565b9050806103998361070e565b6040516020016103aa929190611829565b60405160208183030381529060405292505050919050565b6103dd838383604051806020016040528060008152506107a1565b505050565b6103ea6106b5565b6103f6848484846107fe565b50505050565b336001600160a01b038616811480159061041d575061041b86826105b7565b155b156104535760405163711bec9160e11b81526001600160a01b038083166004830152871660248201526044015b60405180910390fd5b6104608686868686610836565b505050505050565b606081518351146104995781518351604051635b05999160e01b81526004810192909252602482015260440161044a565b6000835167ffffffffffffffff8111156104b5576104b56111df565b6040519080825280602002602001820160405280156104de578160200160208202803683370190505b50905060005b845181101561052d57602080820286010151610508906020808402870101516102db565b82828151811061051a5761051a611867565b60209081029190910101526001016104e4565b509392505050565b6001600160a01b0383163314801590610555575061055383336105b7565b155b1561058957335b60405163711bec9160e11b81526001600160a01b039182166004820152908416602482015260440161044a565b6103dd83838361089d565b61059c6106b5565b6105a660006108e3565b565b6105b3338383610935565b5050565b6001600160a01b03918216600090815260016020908152604080832093909416825291909152205460ff1690565b336001600160a01b0386168114801590610606575061060486826105b7565b155b156106375760405163711bec9160e11b81526001600160a01b0380831660048301528716602482015260440161044a565b61046086868686866109cb565b61064c6106b5565b6001600160a01b03811661067657604051631e4fbdf760e01b81526000600482015260240161044a565b610364816108e3565b6001600160a01b038316331480159061069f575061069d83336105b7565b155b156106aa573361055c565b6103dd838383610a59565b6003546001600160a01b031633146105a65760405163118cdaa760e01b815233600482015260240161044a565b60026105b382826118ff565b6060604051806080016040528060468152602001611aae60469139905090565b6060600061071b83610ac1565b600101905060008167ffffffffffffffff81111561073b5761073b6111df565b6040519080825280601f01601f191660200182016040528015610765576020820181803683370190505b5090508181016020015b600019016f181899199a1a9b1b9c1cb0b131b232b360811b600a86061a8153600a850494508461076f57509392505050565b6001600160a01b0384166107cb57604051632bfa23e760e11b81526000600482015260240161044a565b60408051600180825260208201869052818301908152606082018590526080820190925290610460600087848487610b99565b6001600160a01b03841661082857604051632bfa23e760e11b81526000600482015260240161044a565b6103f6600085858585610b99565b6001600160a01b03841661086057604051632bfa23e760e11b81526000600482015260240161044a565b6001600160a01b03851661088957604051626a0d4560e21b81526000600482015260240161044a565b6108968585858585610b99565b5050505050565b6001600160a01b0383166108c657604051626a0d4560e21b81526000600482015260240161044a565b6103dd836000848460405180602001604052806000815250610b99565b600380546001600160a01b038381166001600160a01b0319831681179093556040519116919082907f8be0079c531659141344cd1fd0a4f28419497f9722a3daafe3b4186f6b6457e090600090a35050565b6001600160a01b03821661095e5760405162ced3e160e81b81526000600482015260240161044a565b6001600160a01b03838116600081815260016020908152604080832094871680845294825291829020805460ff191686151590811790915591519182527f17307eab39ab6107e8899845ad3d59bd9653f200f220920489ca2b5937696c31910160405180910390a3505050565b6001600160a01b0384166109f557604051632bfa23e760e11b81526000600482015260240161044a565b6001600160a01b038516610a1e57604051626a0d4560e21b81526000600482015260240161044a565b60408051600180825260208201869052818301908152606082018590526080820190925290610a508787848487610b99565b50505050505050565b6001600160a01b038316610a8257604051626a0d4560e21b81526000600482015260240161044a565b604080516001808252602082018590528183019081526060820184905260a0820190925260006080820181815291929161089691879185908590610b99565b60008072184f03e93ff9f4daa797ed6e38ed64bf6a1f0160401b8310610b005772184f03e93ff9f4daa797ed6e38ed64bf6a1f0160401b830492506040015b6d04ee2d6d415b85acef81000000008310610b2c576d04ee2d6d415b85acef8100000000830492506020015b662386f26fc100008310610b4a57662386f26fc10000830492506010015b6305f5e1008310610b62576305f5e100830492506008015b6127108310610b7657612710830492506004015b60648310610b88576064830492506002015b600a83106102fd5760010192915050565b610ba585858585610bec565b6001600160a01b038416156108965782513390600103610bde5760208481015190840151610bd7838989858589610bf8565b5050610460565b610460818787878787610d1c565b6103f684848484610e05565b6001600160a01b0384163b156104605760405163f23a6e6160e01b81526001600160a01b0385169063f23a6e6190610c3c90899089908890889088906004016119bf565b6020604051808303816000875af1925050508015610c77575060408051601f3d908101601f19168201909252610c7491810190611a04565b60015b610ce0573d808015610ca5576040519150601f19603f3d011682016040523d82523d6000602084013e610caa565b606091505b508051600003610cd857604051632bfa23e760e11b81526001600160a01b038616600482015260240161044a565b805181602001fd5b6001600160e01b0319811663f23a6e6160e01b14610a5057604051632bfa23e760e11b81526001600160a01b038616600482015260240161044a565b6001600160a01b0384163b156104605760405163bc197c8160e01b81526001600160a01b0385169063bc197c8190610d609089908990889088908890600401611a21565b6020604051808303816000875af1925050508015610d9b575060408051601f3d908101601f19168201909252610d9891810190611a04565b60015b610dc9573d808015610ca5576040519150601f19603f3d011682016040523d82523d6000602084013e610caa565b6001600160e01b0319811663bc197c8160e01b14610a5057604051632bfa23e760e11b81526001600160a01b038616600482015260240161044a565b610e1184848484610f4b565b6001600160a01b038416610ebb576000805b8351811015610ea1576000838281518110610e4057610e40611867565b602002602001015190508060046000878581518110610e6157610e61611867565b602002602001015181526020019081526020016000206000828254610e869190611808565b90915550610e9690508184611808565b925050600101610e23565b508060056000828254610eb49190611808565b9091555050505b6001600160a01b0383166103f6576000805b8351811015610f3a576000838281518110610eea57610eea611867565b602002602001015190508060046000878581518110610f0b57610f0b611867565b602090810291909101810151825281019190915260400160002080549190910390559190910190600101610ecd565b506005805491909103905550505050565b8051825114610f7a5781518151604051635b05999160e01b81526004810192909252602482015260440161044a565b3360005b8351811015611080576020818102858101820151908501909101516001600160a01b03881615611031576000828152602081815260408083206001600160a01b038c1684529091529020548181101561100a576040516303dee4c560e01b81526001600160a01b038a16600482015260248101829052604481018390526064810184905260840161044a565b6000838152602081815260408083206001600160a01b038d16845290915290209082900390555b6001600160a01b03871615611076576000828152602081815260408083206001600160a01b038b16845290915281208054839290611070908490611808565b90915550505b5050600101610f7e565b5082516001036111015760208301516000906020840151909150856001600160a01b0316876001600160a01b0316846001600160a01b03167fc3d58168c5ae7397731d063d5bbf3d657854427343f4c083240f7aacaa2d0f6285856040516110f2929190918252602082015260400190565b60405180910390a45050610896565b836001600160a01b0316856001600160a01b0316826001600160a01b03167f4a39dc06d4c0dbc64b70af90fd698a233a518aa5d07e595d983b8c0526c8f7fb8686604051611150929190611a7f565b60405180910390a45050505050565b80356001600160a01b038116811461117657600080fd5b919050565b6000806040838503121561118e57600080fd5b6111978361115f565b946020939093013593505050565b6001600160e01b03198116811461036457600080fd5b6000602082840312156111cd57600080fd5b81356111d8816111a5565b9392505050565b634e487b7160e01b600052604160045260246000fd5b604051601f8201601f1916810167ffffffffffffffff8111828210171561121e5761121e6111df565b604052919050565b600067ffffffffffffffff831115611240576112406111df565b611253601f8401601f19166020016111f5565b905082815283838301111561126757600080fd5b828260208301376000602084830101529392505050565b60006020828403121561129057600080fd5b813567ffffffffffffffff8111156112a757600080fd5b8201601f810184136112b857600080fd5b6112c784823560208401611226565b949350505050565b6000602082840312156112e157600080fd5b5035919050565b60005b838110156113035781810151838201526020016112eb565b50506000910152565b600081518084526113248160208601602086016112e8565b601f01601f19169290920160200192915050565b6020815260006111d8602083018461130c565b60008060006060848603121561136057600080fd5b6113698461115f565b95602085013595506040909401359392505050565b600067ffffffffffffffff821115611398576113986111df565b5060051b60200190565b600082601f8301126113b357600080fd5b813560206113c86113c38361137e565b6111f5565b8083825260208201915060208460051b8701019350868411156113ea57600080fd5b602086015b8481101561140657803583529183019183016113ef565b509695505050505050565b600082601f83011261142257600080fd5b6111d883833560208501611226565b6000806000806080858703121561144757600080fd5b6114508561115f565b9350602085013567ffffffffffffffff8082111561146d57600080fd5b611479888389016113a2565b9450604087013591508082111561148f57600080fd5b61149b888389016113a2565b935060608701359150808211156114b157600080fd5b506114be87828801611411565b91505092959194509250565b600080600080600060a086880312156114e257600080fd5b6114eb8661115f565b94506114f96020870161115f565b9350604086013567ffffffffffffffff8082111561151657600080fd5b61152289838a016113a2565b9450606088013591508082111561153857600080fd5b61154489838a016113a2565b9350608088013591508082111561155a57600080fd5b5061156788828901611411565b9150509295509295909350565b6000806040838503121561158757600080fd5b823567ffffffffffffffff8082111561159f57600080fd5b818501915085601f8301126115b357600080fd5b813560206115c36113c38361137e565b82815260059290921b840181019181810190898411156115e257600080fd5b948201945b83861015611607576115f88661115f565b825294820194908201906115e7565b9650508601359250508082111561161d57600080fd5b5061162a858286016113a2565b9150509250929050565b60008151808452602080850194506020840160005b8381101561166557815187529582019590820190600101611649565b509495945050505050565b6020815260006111d86020830184611634565b60008060006060848603121561169857600080fd5b6116a18461115f565b9250602084013567ffffffffffffffff808211156116be57600080fd5b6116ca878388016113a2565b935060408601359150808211156116e057600080fd5b506116ed868287016113a2565b9150509250925092565b6000806040838503121561170a57600080fd5b6117138361115f565b91506020830135801515811461172857600080fd5b809150509250929050565b6000806040838503121561174657600080fd5b61174f8361115f565b915061175d6020840161115f565b90509250929050565b600080600080600060a0868803121561177e57600080fd5b6117878661115f565b94506117956020870161115f565b93506040860135925060608601359150608086013567ffffffffffffffff8111156117bf57600080fd5b61156788828901611411565b6000602082840312156117dd57600080fd5b6111d88261115f565b60008261180357634e487b7160e01b600052601260045260246000fd5b500690565b808201808211156102fd57634e487b7160e01b600052601160045260246000fd5b6000835161183b8184602088016112e8565b83519083019061184f8183602088016112e8565b632e706e6760e01b9101908152600401949350505050565b634e487b7160e01b600052603260045260246000fd5b600181811c9082168061189157607f821691505b6020821081036118b157634e487b7160e01b600052602260045260246000fd5b50919050565b601f8211156103dd576000816000526020600020601f850160051c810160208610156118e05750805b601f850160051c820191505b81811015610460578281556001016118ec565b815167ffffffffffffffff811115611919576119196111df565b61192d81611927845461187d565b846118b7565b602080601f831160018114611962576000841561194a5750858301515b600019600386901b1c1916600185901b178555610460565b600085815260208120601f198616915b8281101561199157888601518255948401946001909101908401611972565b50858210156119af5787850151600019600388901b60f8161c191681555b5050505050600190811b01905550565b6001600160a01b03868116825285166020820152604081018490526060810183905260a0608082018190526000906119f99083018461130c565b979650505050505050565b600060208284031215611a1657600080fd5b81516111d8816111a5565b6001600160a01b0386811682528516602082015260a060408201819052600090611a4d90830186611634565b8281036060840152611a5f8186611634565b90508281036080840152611a73818561130c565b98975050505050505050565b604081526000611a926040830185611634565b8281036020840152611aa48185611634565b9594505050505056fe68747470733a2f2f7265732e636c6f7564696e6172792e636f6d2f64706c703577747a6b2f696d6167652f75706c6f61642f76313732313331343832332f6d6f6e737465722fa2646970667358221220a28a61029631a1cae9a70b384187b98a11c63f20430871ae73cec5bfd6efd33564736f6c6343000819003368747470733a2f2f7265732e636c6f7564696e6172792e636f6d2f64706c703577747a6b2f696d6167652f75706c6f61642f76313732313331343832332f6d6f6e737465722f",
  "devdoc": {
    "errors": {
      "ERC1155InsufficientBalance(address,uint256,uint256,uint256)": [
        {
          "details": "Indicates an error related to the current `balance` of a `sender`. Used in transfers.",
          "params": {
            "balance": "Current balance for the interacting account.",
            "needed": "Minimum amount required to perform a transfer.",
            "sender": "Address whose tokens are being transferred.",
            "tokenId": "Identifier number of a token."
          }
        }
      ],
      "ERC1155InvalidApprover(address)": [
        {
          "details": "Indicates a failure with the `approver` of a token to be approved. Used in approvals.",
          "params": {
            "approver": "Address initiating an approval operation."
          }
        }
      ],
      "ERC1155InvalidArrayLength(uint256,uint256)": [
        {
          "details": "Indicates an array length mismatch between ids and values in a safeBatchTransferFrom operation. Used in batch transfers.",
          "params": {
            "idsLength": "Length of the array of token identifiers",
            "valuesLength": "Length of the array of token amounts"
          }
        }
      ],
      "ERC1155InvalidOperator(address)": [
        {
          "details": "Indicates a failure with the `operator` to be approved. Used in approvals.",
          "params": {
            "operator": "Address that may be allowed to operate on tokens without being their owner."
          }
        }
      ],
      "ERC1155InvalidReceiver(address)": [
        {
          "details": "Indicates a failure with the token `receiver`. Used in transfers.",
          "params": {
            "receiver": "Address to which tokens are being transferred."
          }
        }
      ],
      "ERC1155InvalidSender(address)": [
        {
          "details": "Indicates a failure with the token `sender`. Used in transfers.",
          "params": {
            "sender": "Address whose tokens are being transferred."
          }
        }
      ],
      "ERC1155MissingApprovalForAll(address,address)": [
        {
          "details": "Indicates a failure with the `operator`s approval. Used in transfers.",
          "params": {
            "operator": "Address that may be allowed to operate on tokens without being their owner.",
            "owner": "Address of the current owner of a token."
          }
        }
      ],
      "OwnableInvalidOwner(address)": [
        {
          "details": "The owner is not a valid owner account. (eg. `address(0)`)"
        }
      ],
      "OwnableUnauthorizedAccount(address)": [
        {
          "details": "The caller account is not authorized to perform an operation."
        }
      ]
    },
    "events": {
      "ApprovalForAll(address,address,bool)": {
        "details": "Emitted when `account` grants or revokes permission to `operator` to transfer their tokens, according to `approved`."
      },
      "TransferBatch(address,address,address,uint256[],uint256[])": {
        "details": "Equivalent to multiple {TransferSingle} events, where `operator`, `from` and `to` are the same for all transfers."
      },
      "TransferSingle(address,address,address,uint256,uint256)": {
        "details": "Emitted when `value` amount of tokens of type `id` are transferred from `from` to `to` by `operator`."
      },
      "URI(string,uint256)": {
        "details": "Emitted when the URI for token type `id` changes to `value`, if it is a non-programmatic URI. If an {URI} event was emitted for `id`, the standard https://eips.ethereum.org/EIPS/eip-1155#metadata-extensions[guarantees] that `value` will equal the value returned by {IERC1155MetadataURI-uri}."
      }
    },
    "kind": "dev",
    "methods": {
      "balanceOf(address,uint256)": {
        "details": "See {IERC1155-balanceOf}."
      },
      "balanceOfBatch(address[],uint256[])": {
        "details": "See {IERC1155-balanceOfBatch}. Requirements: - `accounts` and `ids` must have the same length."
      },
      "exists(uint256)": {
        "details": "Indicates whether any token exist with a given id, or not."
      },
      "isApprovedForAll(address,address)": {
        "details": "See {IERC1155-isApprovedForAll}."
      },
      "owner()": {
        "details": "Returns the address of the current owner."
      },
      "renounceOwnership()": {
        "details": "Leaves the contract without owner. It will not be possible to call `onlyOwner` functions. Can only be called by the current owner. NOTE: Renouncing ownership will leave the contract without an owner, thereby disabling any functionality that is only available to the owner."
      },
      "safeBatchTransferFrom(address,address,uint256[],uint256[],bytes)": {
        "details": "See {IERC1155-safeBatchTransferFrom}."
      },
      "safeTransferFrom(address,address,uint256,uint256,bytes)": {
        "details": "See {IERC1155-safeTransferFrom}."
      },
      "setApprovalForAll(address,bool)": {
        "details": "See {IERC1155-setApprovalForAll}."
      },
      "supportsInterface(bytes4)": {
        "details": "See {IERC165-supportsInterface}."
      },
      "totalSupply()": {
        "details": "Total value of tokens."
      },
      "totalSupply(uint256)": {
        "details": "Total value of tokens in with a given id."
      },
      "transferOwnership(address)": {
        "details": "Transfers ownership of the contract to a new account (`newOwner`). Can only be called by the current owner."
      }
    },
    "version": 1
  },
  "userdoc": {
    "kind": "user",
    "methods": {},
    "version": 1
  },
  "storageLayout": {
    "storage": [
      {
        "astId": 358,
        "contract": "contracts/nft/SampleERC1155.sol:SampleERC1155",
        "label": "_balances",
        "offset": 0,
        "slot": "0",
        "type": "t_mapping(t_uint256,t_mapping(t_address,t_uint256))"
      },
      {
        "astId": 364,
        "contract": "contracts/nft/SampleERC1155.sol:SampleERC1155",
        "label": "_operatorApprovals",
        "offset": 0,
        "slot": "1",
        "type": "t_mapping(t_address,t_mapping(t_address,t_bool))"
      },
      {
        "astId": 366,
        "contract": "contracts/nft/SampleERC1155.sol:SampleERC1155",
        "label": "_uri",
        "offset": 0,
        "slot": "2",
        "type": "t_string_storage"
      },
      {
        "astId": 8,
        "contract": "contracts/nft/SampleERC1155.sol:SampleERC1155",
        "label": "_owner",
        "offset": 0,
        "slot": "3",
        "type": "t_address"
      },
      {
        "astId": 1623,
        "contract": "contracts/nft/SampleERC1155.sol:SampleERC1155",
        "label": "_totalSupply",
        "offset": 0,
        "slot": "4",
        "type": "t_mapping(t_uint256,t_uint256)"
      },
      {
        "astId": 1625,
        "contract": "contracts/nft/SampleERC1155.sol:SampleERC1155",
        "label": "_totalSupplyAll",
        "offset": 0,
        "slot": "5",
        "type": "t_uint256"
      }
    ],
    "types": {
      "t_address": {
        "encoding": "inplace",
        "label": "address",
        "numberOfBytes": "20"
      },
      "t_bool": {
        "encoding": "inplace",
        "label": "bool",
        "numberOfBytes": "1"
      },
      "t_mapping(t_address,t_bool)": {
        "encoding": "mapping",
        "key": "t_address",
        "label": "mapping(address => bool)",
        "numberOfBytes": "32",
        "value": "t_bool"
      },
      "t_mapping(t_address,t_mapping(t_address,t_bool))": {
        "encoding": "mapping",
        "key": "t_address",
        "label": "mapping(address => mapping(address => bool))",
        "numberOfBytes": "32",
        "value": "t_mapping(t_address,t_bool)"
      },
      "t_mapping(t_address,t_uint256)": {
        "encoding": "mapping",
        "key": "t_address",
        "label": "mapping(address => uint256)",
        "numberOfBytes": "32",
        "value": "t_uint256"
      },
      "t_mapping(t_uint256,t_mapping(t_address,t_uint256))": {
        "encoding": "mapping",
        "key": "t_uint256",
        "label": "mapping(uint256 => mapping(address => uint256))",
        "numberOfBytes": "32",
        "value": "t_mapping(t_address,t_uint256)"
      },
      "t_mapping(t_uint256,t_uint256)": {
        "encoding": "mapping",
        "key": "t_uint256",
        "label": "mapping(uint256 => uint256)",
        "numberOfBytes": "32",
        "value": "t_uint256"
      },
      "t_string_storage": {
        "encoding": "bytes",
        "label": "string",
        "numberOfBytes": "32"
      },
      "t_uint256": {
        "encoding": "inplace",
        "label": "uint256",
        "numberOfBytes": "32"
      }
    }
  }
}