{
  "address": "0xa7B7Cb3906a18101F5FBFd9126583A13C1A0545A",
  "abi": [
    {
      "inputs": [
        {
          "internalType": "address",
          "name": "initialOwner",
          "type": "address"
        }
      ],
      "stateMutability": "nonpayable",
      "type": "constructor"
    },
    {
      "inputs": [
        {
          "internalType": "address",
          "name": "sender",
          "type": "address"
        },
        {
          "internalType": "uint256",
          "name": "tokenId",
          "type": "uint256"
        },
        {
          "internalType": "address",
          "name": "owner",
          "type": "address"
        }
      ],
      "name": "ERC721IncorrectOwner",
      "type": "error"
    },
    {
      "inputs": [
        {
          "internalType": "address",
          "name": "operator",
          "type": "address"
        },
        {
          "internalType": "uint256",
          "name": "tokenId",
          "type": "uint256"
        }
      ],
      "name": "ERC721InsufficientApproval",
      "type": "error"
    },
    {
      "inputs": [
        {
          "internalType": "address",
          "name": "approver",
          "type": "address"
        }
      ],
      "name": "ERC721InvalidApprover",
      "type": "error"
    },
    {
      "inputs": [
        {
          "internalType": "address",
          "name": "operator",
          "type": "address"
        }
      ],
      "name": "ERC721InvalidOperator",
      "type": "error"
    },
    {
      "inputs": [
        {
          "internalType": "address",
          "name": "owner",
          "type": "address"
        }
      ],
      "name": "ERC721InvalidOwner",
      "type": "error"
    },
    {
      "inputs": [
        {
          "internalType": "address",
          "name": "receiver",
          "type": "address"
        }
      ],
      "name": "ERC721InvalidReceiver",
      "type": "error"
    },
    {
      "inputs": [
        {
          "internalType": "address",
          "name": "sender",
          "type": "address"
        }
      ],
      "name": "ERC721InvalidSender",
      "type": "error"
    },
    {
      "inputs": [
        {
          "internalType": "uint256",
          "name": "tokenId",
          "type": "uint256"
        }
      ],
      "name": "ERC721NonexistentToken",
      "type": "error"
    },
    {
      "inputs": [
        {
          "internalType": "address",
          "name": "owner",
          "type": "address"
        }
      ],
      "name": "OwnableInvalidOwner",
      "type": "error"
    },
    {
      "inputs": [
        {
          "internalType": "address",
          "name": "account",
          "type": "address"
        }
      ],
      "name": "OwnableUnauthorizedAccount",
      "type": "error"
    },
    {
      "anonymous": false,
      "inputs": [
        {
          "indexed": true,
          "internalType": "address",
          "name": "owner",
          "type": "address"
        },
        {
          "indexed": true,
          "internalType": "address",
          "name": "approved",
          "type": "address"
        },
        {
          "indexed": true,
          "internalType": "uint256",
          "name": "tokenId",
          "type": "uint256"
        }
      ],
      "name": "Approval",
      "type": "event"
    },
    {
      "anonymous": false,
      "inputs": [
        {
          "indexed": true,
          "internalType": "address",
          "name": "owner",
          "type": "address"
        },
        {
          "indexed": true,
          "internalType": "address",
          "name": "operator",
          "type": "address"
        },
        {
          "indexed": false,
          "internalType": "bool",
          "name": "approved",
          "type": "bool"
        }
      ],
      "name": "ApprovalForAll",
      "type": "event"
    },
    {
      "anonymous": false,
      "inputs": [
        {
          "indexed": false,
          "internalType": "uint256",
          "name": "_fromTokenId",
          "type": "uint256"
        },
        {
          "indexed": false,
          "internalType": "uint256",
          "name": "_toTokenId",
          "type": "uint256"
        }
      ],
      "name": "BatchMetadataUpdate",
      "type": "event"
    },
    {
      "anonymous": false,
      "inputs": [
        {
          "indexed": false,
          "internalType": "uint256",
          "name": "_tokenId",
          "type": "uint256"
        }
      ],
      "name": "MetadataUpdate",
      "type": "event"
    },
    {
      "anonymous": false,
      "inputs": [
        {
          "indexed": true,
          "internalType": "address",
          "name": "previousOwner",
          "type": "address"
        },
        {
          "indexed": true,
          "internalType": "address",
          "name": "newOwner",
          "type": "address"
        }
      ],
      "name": "OwnershipTransferred",
      "type": "event"
    },
    {
      "anonymous": false,
      "inputs": [
        {
          "indexed": true,
          "internalType": "address",
          "name": "from",
          "type": "address"
        },
        {
          "indexed": true,
          "internalType": "address",
          "name": "to",
          "type": "address"
        },
        {
          "indexed": true,
          "internalType": "uint256",
          "name": "tokenId",
          "type": "uint256"
        }
      ],
      "name": "Transfer",
      "type": "event"
    },
    {
      "inputs": [
        {
          "internalType": "address",
          "name": "to",
          "type": "address"
        },
        {
          "internalType": "uint256",
          "name": "tokenId",
          "type": "uint256"
        }
      ],
      "name": "approve",
      "outputs": [],
      "stateMutability": "nonpayable",
      "type": "function"
    },
    {
      "inputs": [
        {
          "internalType": "address",
          "name": "owner",
          "type": "address"
        }
      ],
      "name": "balanceOf",
      "outputs": [
        {
          "internalType": "uint256",
          "name": "",
          "type": "uint256"
        }
      ],
      "stateMutability": "view",
      "type": "function"
    },
    {
      "inputs": [
        {
          "internalType": "uint256",
          "name": "tokenId",
          "type": "uint256"
        }
      ],
      "name": "burn",
      "outputs": [],
      "stateMutability": "nonpayable",
      "type": "function"
    },
    {
      "inputs": [
        {
          "internalType": "uint256",
          "name": "tokenId",
          "type": "uint256"
        }
      ],
      "name": "getApproved",
      "outputs": [
        {
          "internalType": "address",
          "name": "",
          "type": "address"
        }
      ],
      "stateMutability": "view",
      "type": "function"
    },
    {
      "inputs": [
        {
          "internalType": "address",
          "name": "owner",
          "type": "address"
        },
        {
          "internalType": "address",
          "name": "operator",
          "type": "address"
        }
      ],
      "name": "isApprovedForAll",
      "outputs": [
        {
          "internalType": "bool",
          "name": "",
          "type": "bool"
        }
      ],
      "stateMutability": "view",
      "type": "function"
    },
    {
      "inputs": [
        {
          "internalType": "address",
          "name": "to",
          "type": "address"
        }
      ],
      "name": "mint",
      "outputs": [],
      "stateMutability": "nonpayable",
      "type": "function"
    },
    {
      "inputs": [],
      "name": "name",
      "outputs": [
        {
          "internalType": "string",
          "name": "",
          "type": "string"
        }
      ],
      "stateMutability": "view",
      "type": "function"
    },
    {
      "inputs": [],
      "name": "owner",
      "outputs": [
        {
          "internalType": "address",
          "name": "",
          "type": "address"
        }
      ],
      "stateMutability": "view",
      "type": "function"
    },
    {
      "inputs": [
        {
          "internalType": "uint256",
          "name": "tokenId",
          "type": "uint256"
        }
      ],
      "name": "ownerOf",
      "outputs": [
        {
          "internalType": "address",
          "name": "",
          "type": "address"
        }
      ],
      "stateMutability": "view",
      "type": "function"
    },
    {
      "inputs": [],
      "name": "renounceOwnership",
      "outputs": [],
      "stateMutability": "nonpayable",
      "type": "function"
    },
    {
      "inputs": [
        {
          "internalType": "address",
          "name": "from",
          "type": "address"
        },
        {
          "internalType": "address",
          "name": "to",
          "type": "address"
        },
        {
          "internalType": "uint256",
          "name": "tokenId",
          "type": "uint256"
        }
      ],
      "name": "safeTransferFrom",
      "outputs": [],
      "stateMutability": "nonpayable",
      "type": "function"
    },
    {
      "inputs": [
        {
          "internalType": "address",
          "name": "from",
          "type": "address"
        },
        {
          "internalType": "address",
          "name": "to",
          "type": "address"
        },
        {
          "internalType": "uint256",
          "name": "tokenId",
          "type": "uint256"
        },
        {
          "internalType": "bytes",
          "name": "data",
          "type": "bytes"
        }
      ],
      "name": "safeTransferFrom",
      "outputs": [],
      "stateMutability": "nonpayable",
      "type": "function"
    },
    {
      "inputs": [
        {
          "internalType": "address",
          "name": "operator",
          "type": "address"
        },
        {
          "internalType": "bool",
          "name": "approved",
          "type": "bool"
        }
      ],
      "name": "setApprovalForAll",
      "outputs": [],
      "stateMutability": "nonpayable",
      "type": "function"
    },
    {
      "inputs": [
        {
          "internalType": "bytes4",
          "name": "interfaceId",
          "type": "bytes4"
        }
      ],
      "name": "supportsInterface",
      "outputs": [
        {
          "internalType": "bool",
          "name": "",
          "type": "bool"
        }
      ],
      "stateMutability": "view",
      "type": "function"
    },
    {
      "inputs": [],
      "name": "symbol",
      "outputs": [
        {
          "internalType": "string",
          "name": "",
          "type": "string"
        }
      ],
      "stateMutability": "view",
      "type": "function"
    },
    {
      "inputs": [
        {
          "internalType": "uint256",
          "name": "tokenId",
          "type": "uint256"
        }
      ],
      "name": "tokenURI",
      "outputs": [
        {
          "internalType": "string",
          "name": "",
          "type": "string"
        }
      ],
      "stateMutability": "view",
      "type": "function"
    },
    {
      "inputs": [
        {
          "internalType": "address",
          "name": "from",
          "type": "address"
        },
        {
          "internalType": "address",
          "name": "to",
          "type": "address"
        },
        {
          "internalType": "uint256",
          "name": "tokenId",
          "type": "uint256"
        }
      ],
      "name": "transferFrom",
      "outputs": [],
      "stateMutability": "nonpayable",
      "type": "function"
    },
    {
      "inputs": [
        {
          "internalType": "address",
          "name": "newOwner",
          "type": "address"
        }
      ],
      "name": "transferOwnership",
      "outputs": [],
      "stateMutability": "nonpayable",
      "type": "function"
    }
  ],
  "transactionHash": "0x0eb0467803e7bfc50007413f0f8b8f61d6f17e554d521f12674cbaa2496ccf3f",
  "args": [
    "0xAe451f1873B4C4D7263631Bf0ea141D54Ba39eEa"
  ],
  "numDeployments": 4,
  "solcInputHash": "26ca61d4dea5260f7c890eec54f581a0",
  "bytecode": "0x608060405234801561001057600080fd5b5060405161177738038061177783398101604081905261002f91610122565b806040518060400160405280600c81526020016b53616d706c6545524337323160a01b81525060405180604001604052806005815260200164534537323160d81b815250816000908161008291906101f3565b50600161008f82826101f3565b5050506001600160a01b0381166100c057604051631e4fbdf760e01b81526000600482015260240160405180910390fd5b6100c9816100d0565b50506102b2565b600780546001600160a01b038381166001600160a01b0319831681179093556040519116919082907f8be0079c531659141344cd1fd0a4f28419497f9722a3daafe3b4186f6b6457e090600090a35050565b60006020828403121561013457600080fd5b81516001600160a01b038116811461014b57600080fd5b9392505050565b634e487b7160e01b600052604160045260246000fd5b600181811c9082168061017c57607f821691505b60208210810361019c57634e487b7160e01b600052602260045260246000fd5b50919050565b601f8211156101ee576000816000526020600020601f850160051c810160208610156101cb5750805b601f850160051c820191505b818110156101ea578281556001016101d7565b5050505b505050565b81516001600160401b0381111561020c5761020c610152565b6102208161021a8454610168565b846101a2565b602080601f831160018114610255576000841561023d5750858301515b600019600386901b1c1916600185901b1785556101ea565b600085815260208120601f198616915b8281101561028457888601518255948401946001909101908401610265565b50858210156102a25787850151600019600388901b60f8161c191681555b5050505050600190811b01905550565b6114b6806102c16000396000f3fe608060405234801561001057600080fd5b50600436106101165760003560e01c806370a08231116100a2578063a22cb46511610071578063a22cb46514610239578063b88d4fde1461024c578063c87b56dd1461025f578063e985e9c514610272578063f2fde38b1461028557600080fd5b806370a08231146101f7578063715018a6146102185780638da5cb5b1461022057806395d89b411461023157600080fd5b806323b872dd116100e957806323b872dd1461019857806342842e0e146101ab57806342966c68146101be5780636352211e146101d15780636a627842146101e457600080fd5b806301ffc9a71461011b57806306fdde0314610143578063081812fc14610158578063095ea7b314610183575b600080fd5b61012e610129366004610f5f565b610298565b60405190151581526020015b60405180910390f35b61014b6102a9565b60405161013a9190610fcc565b61016b610166366004610fdf565b61033b565b6040516001600160a01b03909116815260200161013a565b610196610191366004611014565b610364565b005b6101966101a636600461103e565b610373565b6101966101b936600461103e565b610403565b6101966101cc366004610fdf565b610423565b61016b6101df366004610fdf565b61042f565b6101966101f236600461107a565b61043a565b61020a61020536600461107a565b6104a0565b60405190815260200161013a565b6101966104e8565b6007546001600160a01b031661016b565b61014b6104fc565b610196610247366004611095565b61050b565b61019661025a3660046110e7565b610516565b61014b61026d366004610fdf565b61052d565b61012e6102803660046111c3565b610538565b61019661029336600461107a565b610566565b60006102a3826105a4565b92915050565b6060600080546102b8906111f6565b80601f01602080910402602001604051908101604052809291908181526020018280546102e4906111f6565b80156103315780601f1061030657610100808354040283529160200191610331565b820191906000526020600020905b81548152906001019060200180831161031457829003601f168201915b5050505050905090565b6000610346826105c9565b506000828152600460205260409020546001600160a01b03166102a3565b61036f828233610602565b5050565b6001600160a01b0382166103a257604051633250574960e11b8152600060048201526024015b60405180910390fd5b60006103af83833361060f565b9050836001600160a01b0316816001600160a01b0316146103fd576040516364283d7b60e01b81526001600160a01b0380861660048301526024820184905282166044820152606401610399565b50505050565b61041e83838360405180602001604052806000815250610516565b505050565b61036f6000823361060f565b60006102a3826105c9565b600880546000918261044b83611230565b91905055905061045b8282610708565b6000610468600583611257565b9050600061047582610722565b6040516020016104859190611279565b60405160208183030381529060405290506103fd83826107b5565b60006001600160a01b0382166104cc576040516322718ad960e21b815260006004820152602401610399565b506001600160a01b031660009081526003602052604090205490565b6104f0610805565b6104fa6000610832565b565b6060600180546102b8906111f6565b61036f338383610884565b610521848484610373565b6103fd84848484610923565b60606102a382610a4c565b6001600160a01b03918216600090815260056020908152604080832093909416825291909152205460ff1690565b61056e610805565b6001600160a01b03811661059857604051631e4fbdf760e01b815260006004820152602401610399565b6105a181610832565b50565b60006001600160e01b03198216632483248360e11b14806102a357506102a382610b50565b6000818152600260205260408120546001600160a01b0316806102a357604051637e27328960e01b815260048101849052602401610399565b61041e8383836001610ba0565b6000828152600260205260408120546001600160a01b039081169083161561063c5761063c818486610ca6565b6001600160a01b0381161561067a57610659600085600080610ba0565b6001600160a01b038116600090815260036020526040902080546000190190555b6001600160a01b038516156106a9576001600160a01b0385166000908152600360205260409020805460010190555b60008481526002602052604080822080546001600160a01b0319166001600160a01b0389811691821790925591518793918516917fddf252ad1be2c89b69c2b068fc378daa952ba7f163c4a11628f55a4df523b3ef91a4949350505050565b61036f828260405180602001604052806000815250610d0a565b6060600061072f83610d21565b600101905060008167ffffffffffffffff81111561074f5761074f6110d1565b6040519080825280601f01601f191660200182016040528015610779576020820181803683370190505b5090508181016020015b600019016f181899199a1a9b1b9c1cb0b131b232b360811b600a86061a8153600a850494508461078357509392505050565b60008281526006602052604090206107cd82826112f1565b506040518281527ff8e1a15aba9398e019f0b49df1a4fde98ee17ae345cb5f6b5e2c27f5033e8ce79060200160405180910390a15050565b6007546001600160a01b031633146104fa5760405163118cdaa760e01b8152336004820152602401610399565b600780546001600160a01b038381166001600160a01b0319831681179093556040519116919082907f8be0079c531659141344cd1fd0a4f28419497f9722a3daafe3b4186f6b6457e090600090a35050565b6001600160a01b0382166108b657604051630b61174360e31b81526001600160a01b0383166004820152602401610399565b6001600160a01b03838116600081815260056020908152604080832094871680845294825291829020805460ff191686151590811790915591519182527f17307eab39ab6107e8899845ad3d59bd9653f200f220920489ca2b5937696c31910160405180910390a3505050565b6001600160a01b0383163b156103fd57604051630a85bd0160e11b81526001600160a01b0384169063150b7a02906109659033908890879087906004016113b1565b6020604051808303816000875af19250505080156109a0575060408051601f3d908101601f1916820190925261099d918101906113ee565b60015b610a09573d8080156109ce576040519150601f19603f3d011682016040523d82523d6000602084013e6109d3565b606091505b508051600003610a0157604051633250574960e11b81526001600160a01b0385166004820152602401610399565b805181602001fd5b6001600160e01b03198116630a85bd0160e11b14610a4557604051633250574960e11b81526001600160a01b0385166004820152602401610399565b5050505050565b6060610a57826105c9565b5060008281526006602052604081208054610a71906111f6565b80601f0160208091040260200160405190810160405280929190818152602001828054610a9d906111f6565b8015610aea5780601f10610abf57610100808354040283529160200191610aea565b820191906000526020600020905b815481529060010190602001808311610acd57829003601f168201915b505050505090506000610afb610df9565b90508051600003610b0d575092915050565b815115610b3f578082604051602001610b2792919061140b565b60405160208183030381529060405292505050919050565b610b4884610e19565b949350505050565b60006001600160e01b031982166380ac58cd60e01b1480610b8157506001600160e01b03198216635b5e139f60e01b145b806102a357506301ffc9a760e01b6001600160e01b03198316146102a3565b8080610bb457506001600160a01b03821615155b15610c76576000610bc4846105c9565b90506001600160a01b03831615801590610bf05750826001600160a01b0316816001600160a01b031614155b8015610c035750610c018184610538565b155b15610c2c5760405163a9fbf51f60e01b81526001600160a01b0384166004820152602401610399565b8115610c745783856001600160a01b0316826001600160a01b03167f8c5be1e5ebec7d5bd14f71427d1e84f3dd0314c0f7b2291e5b200ac8c7c3b92560405160405180910390a45b505b5050600090815260046020526040902080546001600160a01b0319166001600160a01b0392909216919091179055565b610cb1838383610e81565b61041e576001600160a01b038316610cdf57604051637e27328960e01b815260048101829052602401610399565b60405163177e802f60e01b81526001600160a01b038316600482015260248101829052604401610399565b610d148383610ee4565b61041e6000848484610923565b60008072184f03e93ff9f4daa797ed6e38ed64bf6a1f0160401b8310610d605772184f03e93ff9f4daa797ed6e38ed64bf6a1f0160401b830492506040015b6d04ee2d6d415b85acef81000000008310610d8c576d04ee2d6d415b85acef8100000000830492506020015b662386f26fc100008310610daa57662386f26fc10000830492506010015b6305f5e1008310610dc2576305f5e100830492506008015b6127108310610dd657612710830492506004015b60648310610de8576064830492506002015b600a83106102a35760010192915050565b606060405180608001604052806046815260200161143b60469139905090565b6060610e24826105c9565b506000610e2f610df9565b90506000815111610e4f5760405180602001604052806000815250610e7a565b80610e5984610722565b604051602001610e6a92919061140b565b6040516020818303038152906040525b9392505050565b60006001600160a01b03831615801590610b485750826001600160a01b0316846001600160a01b03161480610ebb5750610ebb8484610538565b80610b485750506000908152600460205260409020546001600160a01b03908116911614919050565b6001600160a01b038216610f0e57604051633250574960e11b815260006004820152602401610399565b6000610f1c8383600061060f565b90506001600160a01b0381161561041e576040516339e3563760e11b815260006004820152602401610399565b6001600160e01b0319811681146105a157600080fd5b600060208284031215610f7157600080fd5b8135610e7a81610f49565b60005b83811015610f97578181015183820152602001610f7f565b50506000910152565b60008151808452610fb8816020860160208601610f7c565b601f01601f19169290920160200192915050565b602081526000610e7a6020830184610fa0565b600060208284031215610ff157600080fd5b5035919050565b80356001600160a01b038116811461100f57600080fd5b919050565b6000806040838503121561102757600080fd5b61103083610ff8565b946020939093013593505050565b60008060006060848603121561105357600080fd5b61105c84610ff8565b925061106a60208501610ff8565b9150604084013590509250925092565b60006020828403121561108c57600080fd5b610e7a82610ff8565b600080604083850312156110a857600080fd5b6110b183610ff8565b9150602083013580151581146110c657600080fd5b809150509250929050565b634e487b7160e01b600052604160045260246000fd5b600080600080608085870312156110fd57600080fd5b61110685610ff8565b935061111460208601610ff8565b925060408501359150606085013567ffffffffffffffff8082111561113857600080fd5b818701915087601f83011261114c57600080fd5b81358181111561115e5761115e6110d1565b604051601f8201601f19908116603f01168101908382118183101715611186576111866110d1565b816040528281528a602084870101111561119f57600080fd5b82602086016020830137600060208483010152809550505050505092959194509250565b600080604083850312156111d657600080fd5b6111df83610ff8565b91506111ed60208401610ff8565b90509250929050565b600181811c9082168061120a57607f821691505b60208210810361122a57634e487b7160e01b600052602260045260246000fd5b50919050565b60006001820161125057634e487b7160e01b600052601160045260246000fd5b5060010190565b60008261127457634e487b7160e01b600052601260045260246000fd5b500690565b6000825161128b818460208701610f7c565b632e706e6760e01b920191825250600401919050565b601f82111561041e576000816000526020600020601f850160051c810160208610156112ca5750805b601f850160051c820191505b818110156112e9578281556001016112d6565b505050505050565b815167ffffffffffffffff81111561130b5761130b6110d1565b61131f8161131984546111f6565b846112a1565b602080601f831160018114611354576000841561133c5750858301515b600019600386901b1c1916600185901b1785556112e9565b600085815260208120601f198616915b8281101561138357888601518255948401946001909101908401611364565b50858210156113a15787850151600019600388901b60f8161c191681555b5050505050600190811b01905550565b6001600160a01b03858116825284166020820152604081018390526080606082018190526000906113e490830184610fa0565b9695505050505050565b60006020828403121561140057600080fd5b8151610e7a81610f49565b6000835161141d818460208801610f7c565b835190830190611431818360208801610f7c565b0194935050505056fe68747470733a2f2f7265732e636c6f7564696e6172792e636f6d2f64706c703577747a6b2f696d6167652f75706c6f61642f76313732313331343832332f6d6f6e737465722fa2646970667358221220f04c574e3feff872023db40b80f8dd3a2e96b339e9cf85850b2c09dbd12742c664736f6c63430008190033",
  "devdoc": {
    "errors": {
      "ERC721IncorrectOwner(address,uint256,address)": [
        {
          "details": "Indicates an error related to the ownership over a particular token. Used in transfers.",
          "params": {
            "owner": "Address of the current owner of a token.",
            "sender": "Address whose tokens are being transferred.",
            "tokenId": "Identifier number of a token."
          }
        }
      ],
      "ERC721InsufficientApproval(address,uint256)": [
        {
          "details": "Indicates a failure with the `operator`s approval. Used in transfers.",
          "params": {
            "operator": "Address that may be allowed to operate on tokens without being their owner.",
            "tokenId": "Identifier number of a token."
          }
        }
      ],
      "ERC721InvalidApprover(address)": [
        {
          "details": "Indicates a failure with the `approver` of a token to be approved. Used in approvals.",
          "params": {
            "approver": "Address initiating an approval operation."
          }
        }
      ],
      "ERC721InvalidOperator(address)": [
        {
          "details": "Indicates a failure with the `operator` to be approved. Used in approvals.",
          "params": {
            "operator": "Address that may be allowed to operate on tokens without being their owner."
          }
        }
      ],
      "ERC721InvalidOwner(address)": [
        {
          "details": "Indicates that an address can't be an owner. For example, `address(0)` is a forbidden owner in EIP-20. Used in balance queries.",
          "params": {
            "owner": "Address of the current owner of a token."
          }
        }
      ],
      "ERC721InvalidReceiver(address)": [
        {
          "details": "Indicates a failure with the token `receiver`. Used in transfers.",
          "params": {
            "receiver": "Address to which tokens are being transferred."
          }
        }
      ],
      "ERC721InvalidSender(address)": [
        {
          "details": "Indicates a failure with the token `sender`. Used in transfers.",
          "params": {
            "sender": "Address whose tokens are being transferred."
          }
        }
      ],
      "ERC721NonexistentToken(uint256)": [
        {
          "details": "Indicates a `tokenId` whose `owner` is the zero address.",
          "params": {
            "tokenId": "Identifier number of a token."
          }
        }
      ],
      "OwnableInvalidOwner(address)": [
        {
          "details": "The owner is not a valid owner account. (eg. `address(0)`)"
        }
      ],
      "OwnableUnauthorizedAccount(address)": [
        {
          "details": "The caller account is not authorized to perform an operation."
        }
      ]
    },
    "events": {
      "Approval(address,address,uint256)": {
        "details": "Emitted when `owner` enables `approved` to manage the `tokenId` token."
      },
      "ApprovalForAll(address,address,bool)": {
        "details": "Emitted when `owner` enables or disables (`approved`) `operator` to manage all of its assets."
      },
      "BatchMetadataUpdate(uint256,uint256)": {
        "details": "This event emits when the metadata of a range of tokens is changed. So that the third-party platforms such as NFT market could timely update the images and related attributes of the NFTs."
      },
      "MetadataUpdate(uint256)": {
        "details": "This event emits when the metadata of a token is changed. So that the third-party platforms such as NFT market could timely update the images and related attributes of the NFT."
      },
      "Transfer(address,address,uint256)": {
        "details": "Emitted when `tokenId` token is transferred from `from` to `to`."
      }
    },
    "kind": "dev",
    "methods": {
      "approve(address,uint256)": {
        "details": "See {IERC721-approve}."
      },
      "balanceOf(address)": {
        "details": "See {IERC721-balanceOf}."
      },
      "burn(uint256)": {
        "details": "Burns `tokenId`. See {ERC721-_burn}. Requirements: - The caller must own `tokenId` or be an approved operator."
      },
      "getApproved(uint256)": {
        "details": "See {IERC721-getApproved}."
      },
      "isApprovedForAll(address,address)": {
        "details": "See {IERC721-isApprovedForAll}."
      },
      "name()": {
        "details": "See {IERC721Metadata-name}."
      },
      "owner()": {
        "details": "Returns the address of the current owner."
      },
      "ownerOf(uint256)": {
        "details": "See {IERC721-ownerOf}."
      },
      "renounceOwnership()": {
        "details": "Leaves the contract without owner. It will not be possible to call `onlyOwner` functions. Can only be called by the current owner. NOTE: Renouncing ownership will leave the contract without an owner, thereby disabling any functionality that is only available to the owner."
      },
      "safeTransferFrom(address,address,uint256)": {
        "details": "See {IERC721-safeTransferFrom}."
      },
      "safeTransferFrom(address,address,uint256,bytes)": {
        "details": "See {IERC721-safeTransferFrom}."
      },
      "setApprovalForAll(address,bool)": {
        "details": "See {IERC721-setApprovalForAll}."
      },
      "symbol()": {
        "details": "See {IERC721Metadata-symbol}."
      },
      "transferFrom(address,address,uint256)": {
        "details": "See {IERC721-transferFrom}."
      },
      "transferOwnership(address)": {
        "details": "Transfers ownership of the contract to a new account (`newOwner`). Can only be called by the current owner."
      }
    },
    "version": 1
  },
  "userdoc": {
    "kind": "user",
    "methods": {},
    "version": 1
  },
  "storageLayout": {
    "storage": [
      {
        "astId": 1833,
        "contract": "contracts/nft/SampleERC721.sol:SampleERC721",
        "label": "_name",
        "offset": 0,
        "slot": "0",
        "type": "t_string_storage"
      },
      {
        "astId": 1835,
        "contract": "contracts/nft/SampleERC721.sol:SampleERC721",
        "label": "_symbol",
        "offset": 0,
        "slot": "1",
        "type": "t_string_storage"
      },
      {
        "astId": 1839,
        "contract": "contracts/nft/SampleERC721.sol:SampleERC721",
        "label": "_owners",
        "offset": 0,
        "slot": "2",
        "type": "t_mapping(t_uint256,t_address)"
      },
      {
        "astId": 1843,
        "contract": "contracts/nft/SampleERC721.sol:SampleERC721",
        "label": "_balances",
        "offset": 0,
        "slot": "3",
        "type": "t_mapping(t_address,t_uint256)"
      },
      {
        "astId": 1847,
        "contract": "contracts/nft/SampleERC721.sol:SampleERC721",
        "label": "_tokenApprovals",
        "offset": 0,
        "slot": "4",
        "type": "t_mapping(t_uint256,t_address)"
      },
      {
        "astId": 1853,
        "contract": "contracts/nft/SampleERC721.sol:SampleERC721",
        "label": "_operatorApprovals",
        "offset": 0,
        "slot": "5",
        "type": "t_mapping(t_address,t_mapping(t_address,t_bool))"
      },
      {
        "astId": 3001,
        "contract": "contracts/nft/SampleERC721.sol:SampleERC721",
        "label": "_tokenURIs",
        "offset": 0,
        "slot": "6",
        "type": "t_mapping(t_uint256,t_string_storage)"
      },
      {
        "astId": 8,
        "contract": "contracts/nft/SampleERC721.sol:SampleERC721",
        "label": "_owner",
        "offset": 0,
        "slot": "7",
        "type": "t_address"
      },
      {
        "astId": 5082,
        "contract": "contracts/nft/SampleERC721.sol:SampleERC721",
        "label": "_nextTokenId",
        "offset": 0,
        "slot": "8",
        "type": "t_uint256"
      }
    ],
    "types": {
      "t_address": {
        "encoding": "inplace",
        "label": "address",
        "numberOfBytes": "20"
      },
      "t_bool": {
        "encoding": "inplace",
        "label": "bool",
        "numberOfBytes": "1"
      },
      "t_mapping(t_address,t_bool)": {
        "encoding": "mapping",
        "key": "t_address",
        "label": "mapping(address => bool)",
        "numberOfBytes": "32",
        "value": "t_bool"
      },
      "t_mapping(t_address,t_mapping(t_address,t_bool))": {
        "encoding": "mapping",
        "key": "t_address",
        "label": "mapping(address => mapping(address => bool))",
        "numberOfBytes": "32",
        "value": "t_mapping(t_address,t_bool)"
      },
      "t_mapping(t_address,t_uint256)": {
        "encoding": "mapping",
        "key": "t_address",
        "label": "mapping(address => uint256)",
        "numberOfBytes": "32",
        "value": "t_uint256"
      },
      "t_mapping(t_uint256,t_address)": {
        "encoding": "mapping",
        "key": "t_uint256",
        "label": "mapping(uint256 => address)",
        "numberOfBytes": "32",
        "value": "t_address"
      },
      "t_mapping(t_uint256,t_string_storage)": {
        "encoding": "mapping",
        "key": "t_uint256",
        "label": "mapping(uint256 => string)",
        "numberOfBytes": "32",
        "value": "t_string_storage"
      },
      "t_string_storage": {
        "encoding": "bytes",
        "label": "string",
        "numberOfBytes": "32"
      },
      "t_uint256": {
        "encoding": "inplace",
        "label": "uint256",
        "numberOfBytes": "32"
      }
    }
  }
}