{
  "address": "0x2665D69d173e584735E5f9D9707E892ec6EAb891",
  "abi": [
    {
      "inputs": [
        {
          "internalType": "address",
          "name": "initialOwner",
          "type": "address"
        },
        {
          "internalType": "string",
          "name": "name",
          "type": "string"
        },
        {
          "internalType": "string",
          "name": "symbol",
          "type": "string"
        },
        {
          "internalType": "string",
          "name": "baseUri",
          "type": "string"
        }
      ],
      "stateMutability": "nonpayable",
      "type": "constructor"
    },
    {
      "inputs": [
        {
          "internalType": "address",
          "name": "sender",
          "type": "address"
        },
        {
          "internalType": "uint256",
          "name": "tokenId",
          "type": "uint256"
        },
        {
          "internalType": "address",
          "name": "owner",
          "type": "address"
        }
      ],
      "name": "ERC721IncorrectOwner",
      "type": "error"
    },
    {
      "inputs": [
        {
          "internalType": "address",
          "name": "operator",
          "type": "address"
        },
        {
          "internalType": "uint256",
          "name": "tokenId",
          "type": "uint256"
        }
      ],
      "name": "ERC721InsufficientApproval",
      "type": "error"
    },
    {
      "inputs": [
        {
          "internalType": "address",
          "name": "approver",
          "type": "address"
        }
      ],
      "name": "ERC721InvalidApprover",
      "type": "error"
    },
    {
      "inputs": [
        {
          "internalType": "address",
          "name": "operator",
          "type": "address"
        }
      ],
      "name": "ERC721InvalidOperator",
      "type": "error"
    },
    {
      "inputs": [
        {
          "internalType": "address",
          "name": "owner",
          "type": "address"
        }
      ],
      "name": "ERC721InvalidOwner",
      "type": "error"
    },
    {
      "inputs": [
        {
          "internalType": "address",
          "name": "receiver",
          "type": "address"
        }
      ],
      "name": "ERC721InvalidReceiver",
      "type": "error"
    },
    {
      "inputs": [
        {
          "internalType": "address",
          "name": "sender",
          "type": "address"
        }
      ],
      "name": "ERC721InvalidSender",
      "type": "error"
    },
    {
      "inputs": [
        {
          "internalType": "uint256",
          "name": "tokenId",
          "type": "uint256"
        }
      ],
      "name": "ERC721NonexistentToken",
      "type": "error"
    },
    {
      "inputs": [
        {
          "internalType": "address",
          "name": "owner",
          "type": "address"
        }
      ],
      "name": "OwnableInvalidOwner",
      "type": "error"
    },
    {
      "inputs": [
        {
          "internalType": "address",
          "name": "account",
          "type": "address"
        }
      ],
      "name": "OwnableUnauthorizedAccount",
      "type": "error"
    },
    {
      "anonymous": false,
      "inputs": [
        {
          "indexed": true,
          "internalType": "address",
          "name": "owner",
          "type": "address"
        },
        {
          "indexed": true,
          "internalType": "address",
          "name": "approved",
          "type": "address"
        },
        {
          "indexed": true,
          "internalType": "uint256",
          "name": "tokenId",
          "type": "uint256"
        }
      ],
      "name": "Approval",
      "type": "event"
    },
    {
      "anonymous": false,
      "inputs": [
        {
          "indexed": true,
          "internalType": "address",
          "name": "owner",
          "type": "address"
        },
        {
          "indexed": true,
          "internalType": "address",
          "name": "operator",
          "type": "address"
        },
        {
          "indexed": false,
          "internalType": "bool",
          "name": "approved",
          "type": "bool"
        }
      ],
      "name": "ApprovalForAll",
      "type": "event"
    },
    {
      "anonymous": false,
      "inputs": [
        {
          "indexed": true,
          "internalType": "address",
          "name": "previousOwner",
          "type": "address"
        },
        {
          "indexed": true,
          "internalType": "address",
          "name": "newOwner",
          "type": "address"
        }
      ],
      "name": "OwnershipTransferred",
      "type": "event"
    },
    {
      "anonymous": false,
      "inputs": [
        {
          "indexed": true,
          "internalType": "address",
          "name": "from",
          "type": "address"
        },
        {
          "indexed": true,
          "internalType": "address",
          "name": "to",
          "type": "address"
        },
        {
          "indexed": true,
          "internalType": "uint256",
          "name": "tokenId",
          "type": "uint256"
        }
      ],
      "name": "Transfer",
      "type": "event"
    },
    {
      "inputs": [
        {
          "internalType": "address",
          "name": "to",
          "type": "address"
        },
        {
          "internalType": "uint256",
          "name": "tokenId",
          "type": "uint256"
        }
      ],
      "name": "approve",
      "outputs": [],
      "stateMutability": "nonpayable",
      "type": "function"
    },
    {
      "inputs": [
        {
          "internalType": "address",
          "name": "owner",
          "type": "address"
        }
      ],
      "name": "balanceOf",
      "outputs": [
        {
          "internalType": "uint256",
          "name": "",
          "type": "uint256"
        }
      ],
      "stateMutability": "view",
      "type": "function"
    },
    {
      "inputs": [
        {
          "internalType": "uint256",
          "name": "tokenId",
          "type": "uint256"
        }
      ],
      "name": "burn",
      "outputs": [],
      "stateMutability": "nonpayable",
      "type": "function"
    },
    {
      "inputs": [
        {
          "internalType": "uint256",
          "name": "tokenId",
          "type": "uint256"
        }
      ],
      "name": "getApproved",
      "outputs": [
        {
          "internalType": "address",
          "name": "",
          "type": "address"
        }
      ],
      "stateMutability": "view",
      "type": "function"
    },
    {
      "inputs": [
        {
          "internalType": "address",
          "name": "owner",
          "type": "address"
        },
        {
          "internalType": "address",
          "name": "operator",
          "type": "address"
        }
      ],
      "name": "isApprovedForAll",
      "outputs": [
        {
          "internalType": "bool",
          "name": "",
          "type": "bool"
        }
      ],
      "stateMutability": "view",
      "type": "function"
    },
    {
      "inputs": [
        {
          "internalType": "address",
          "name": "to",
          "type": "address"
        }
      ],
      "name": "mint",
      "outputs": [],
      "stateMutability": "nonpayable",
      "type": "function"
    },
    {
      "inputs": [],
      "name": "name",
      "outputs": [
        {
          "internalType": "string",
          "name": "",
          "type": "string"
        }
      ],
      "stateMutability": "view",
      "type": "function"
    },
    {
      "inputs": [],
      "name": "owner",
      "outputs": [
        {
          "internalType": "address",
          "name": "",
          "type": "address"
        }
      ],
      "stateMutability": "view",
      "type": "function"
    },
    {
      "inputs": [
        {
          "internalType": "uint256",
          "name": "tokenId",
          "type": "uint256"
        }
      ],
      "name": "ownerOf",
      "outputs": [
        {
          "internalType": "address",
          "name": "",
          "type": "address"
        }
      ],
      "stateMutability": "view",
      "type": "function"
    },
    {
      "inputs": [],
      "name": "renounceOwnership",
      "outputs": [],
      "stateMutability": "nonpayable",
      "type": "function"
    },
    {
      "inputs": [
        {
          "internalType": "address",
          "name": "from",
          "type": "address"
        },
        {
          "internalType": "address",
          "name": "to",
          "type": "address"
        },
        {
          "internalType": "uint256",
          "name": "tokenId",
          "type": "uint256"
        }
      ],
      "name": "safeTransferFrom",
      "outputs": [],
      "stateMutability": "nonpayable",
      "type": "function"
    },
    {
      "inputs": [
        {
          "internalType": "address",
          "name": "from",
          "type": "address"
        },
        {
          "internalType": "address",
          "name": "to",
          "type": "address"
        },
        {
          "internalType": "uint256",
          "name": "tokenId",
          "type": "uint256"
        },
        {
          "internalType": "bytes",
          "name": "data",
          "type": "bytes"
        }
      ],
      "name": "safeTransferFrom",
      "outputs": [],
      "stateMutability": "nonpayable",
      "type": "function"
    },
    {
      "inputs": [
        {
          "internalType": "address",
          "name": "operator",
          "type": "address"
        },
        {
          "internalType": "bool",
          "name": "approved",
          "type": "bool"
        }
      ],
      "name": "setApprovalForAll",
      "outputs": [],
      "stateMutability": "nonpayable",
      "type": "function"
    },
    {
      "inputs": [
        {
          "internalType": "string",
          "name": "baseUri",
          "type": "string"
        }
      ],
      "name": "setBaseUri",
      "outputs": [],
      "stateMutability": "nonpayable",
      "type": "function"
    },
    {
      "inputs": [
        {
          "internalType": "bytes4",
          "name": "interfaceId",
          "type": "bytes4"
        }
      ],
      "name": "supportsInterface",
      "outputs": [
        {
          "internalType": "bool",
          "name": "",
          "type": "bool"
        }
      ],
      "stateMutability": "view",
      "type": "function"
    },
    {
      "inputs": [],
      "name": "symbol",
      "outputs": [
        {
          "internalType": "string",
          "name": "",
          "type": "string"
        }
      ],
      "stateMutability": "view",
      "type": "function"
    },
    {
      "inputs": [
        {
          "internalType": "uint256",
          "name": "tokenId",
          "type": "uint256"
        }
      ],
      "name": "tokenURI",
      "outputs": [
        {
          "internalType": "string",
          "name": "",
          "type": "string"
        }
      ],
      "stateMutability": "view",
      "type": "function"
    },
    {
      "inputs": [
        {
          "internalType": "address",
          "name": "from",
          "type": "address"
        },
        {
          "internalType": "address",
          "name": "to",
          "type": "address"
        },
        {
          "internalType": "uint256",
          "name": "tokenId",
          "type": "uint256"
        }
      ],
      "name": "transferFrom",
      "outputs": [],
      "stateMutability": "nonpayable",
      "type": "function"
    },
    {
      "inputs": [
        {
          "internalType": "address",
          "name": "newOwner",
          "type": "address"
        }
      ],
      "name": "transferOwnership",
      "outputs": [],
      "stateMutability": "nonpayable",
      "type": "function"
    }
  ],
  "transactionHash": "0xe032b019734c109709fb191c8c2cfa9ca92a6cec22666cc0d3fd8e187cec3b2f",
  "args": [
    "0xAe451f1873B4C4D7263631Bf0ea141D54Ba39eEa",
    "Sample ERC721 X3X",
    "C721X3",
    "https://res.cloudinary.com/dplp5wtzk/image/upload/v1715440386/token-monster/"
  ],
  "numDeployments": 3,
  "solcInputHash": "e0bf5d2ceede82ca9772e44d7e51d243",
  "bytecode": "0x608060405234801561001057600080fd5b50604051611a16380380611a1683398101604081905261002f916101ac565b838383600061003e83826102de565b50600161004b82826102de565b5050506001600160a01b03811661007c57604051631e4fbdf760e01b81526000600482015260240160405180910390fd5b6100858161009c565b50600861009282826102de565b505050505061039d565b600680546001600160a01b038381166001600160a01b0319831681179093556040519116919082907f8be0079c531659141344cd1fd0a4f28419497f9722a3daafe3b4186f6b6457e090600090a35050565b634e487b7160e01b600052604160045260246000fd5b600082601f83011261011557600080fd5b81516001600160401b038082111561012f5761012f6100ee565b604051601f8301601f19908116603f01168101908282118183101715610157576101576100ee565b816040528381526020925086602085880101111561017457600080fd5b600091505b838210156101965785820183015181830184015290820190610179565b6000602085830101528094505050505092915050565b600080600080608085870312156101c257600080fd5b84516001600160a01b03811681146101d957600080fd5b60208601519094506001600160401b03808211156101f657600080fd5b61020288838901610104565b9450604087015191508082111561021857600080fd5b61022488838901610104565b9350606087015191508082111561023a57600080fd5b5061024787828801610104565b91505092959194509250565b600181811c9082168061026757607f821691505b60208210810361028757634e487b7160e01b600052602260045260246000fd5b50919050565b601f8211156102d9576000816000526020600020601f850160051c810160208610156102b65750805b601f850160051c820191505b818110156102d5578281556001016102c2565b5050505b505050565b81516001600160401b038111156102f7576102f76100ee565b61030b816103058454610253565b8461028d565b602080601f83116001811461034057600084156103285750858301515b600019600386901b1c1916600185901b1785556102d5565b600085815260208120601f198616915b8281101561036f57888601518255948401946001909101908401610350565b508582101561038d5787850151600019600388901b60f8161c191681555b5050505050600190811b01905550565b61166a806103ac6000396000f3fe608060405234801561001057600080fd5b50600436106101215760003560e01c806370a08231116100ad578063a22cb46511610071578063a22cb46514610257578063b88d4fde1461026a578063c87b56dd1461027d578063e985e9c514610290578063f2fde38b146102a357600080fd5b806370a0823114610202578063715018a6146102235780638da5cb5b1461022b57806395d89b411461023c578063a0bcfc7f1461024457600080fd5b806323b872dd116100f457806323b872dd146101a357806342842e0e146101b657806342966c68146101c95780636352211e146101dc5780636a627842146101ef57600080fd5b806301ffc9a71461012657806306fdde031461014e578063081812fc14610163578063095ea7b31461018e575b600080fd5b610139610134366004610f63565b6102b6565b60405190151581526020015b60405180910390f35b6101566102c7565b6040516101459190610fd7565b610176610171366004610fea565b610359565b6040516001600160a01b039091168152602001610145565b6101a161019c36600461101f565b610382565b005b6101a16101b1366004611049565b610391565b6101a16101c4366004611049565b610421565b6101a16101d7366004610fea565b610441565b6101766101ea366004610fea565b61044d565b6101a16101fd366004611085565b610458565b610215610210366004611085565b61047a565b604051908152602001610145565b6101a16104c2565b6006546001600160a01b0316610176565b6101566104d6565b6101a161025236600461112c565b6104e5565b6101a1610265366004611175565b6104f9565b6101a16102783660046111b1565b610504565b61015661028b366004610fea565b61051b565b61013961029e36600461122d565b6105cb565b6101a16102b1366004611085565b6105f9565b60006102c182610637565b92915050565b6060600080546102d690611260565b80601f016020809104026020016040519081016040528092919081815260200182805461030290611260565b801561034f5780601f106103245761010080835404028352916020019161034f565b820191906000526020600020905b81548152906001019060200180831161033257829003601f168201915b5050505050905090565b600061036482610687565b506000828152600460205260409020546001600160a01b03166102c1565b61038d8282336106c0565b5050565b6001600160a01b0382166103c057604051633250574960e11b8152600060048201526024015b60405180910390fd5b60006103cd8383336106cd565b9050836001600160a01b0316816001600160a01b03161461041b576040516364283d7b60e01b81526001600160a01b03808616600483015260248201849052821660448201526064016103b7565b50505050565b61043c83838360405180602001604052806000815250610504565b505050565b61038d600082336106cd565b60006102c182610687565b6000600760008154610469906112b0565b9182905550905061038d82826107c6565b60006001600160a01b0382166104a6576040516322718ad960e21b8152600060048201526024016103b7565b506001600160a01b031660009081526003602052604090205490565b6104ca6107e0565b6104d4600061080d565b565b6060600180546102d690611260565b6104ed6107e0565b600861038d8282611319565b61038d33838361085f565b61050f848484610391565b61041b848484846108fe565b6060600061052a6005846113ef565b90506000610536610a27565b61053f83610a36565b604051602001610550929190611403565b6040516020818303038152906040529050600061056c85610a36565b61057586610a36565b8360405160200161058893929190611441565b60405160208183030381529060405290506105a281610ac9565b6040516020016105b29190611517565b6040516020818303038152906040529350505050919050565b6001600160a01b03918216600090815260056020908152604080832093909416825291909152205460ff1690565b6106016107e0565b6001600160a01b03811661062b57604051631e4fbdf760e01b8152600060048201526024016103b7565b6106348161080d565b50565b60006001600160e01b031982166380ac58cd60e01b148061066857506001600160e01b03198216635b5e139f60e01b145b806102c157506301ffc9a760e01b6001600160e01b03198316146102c1565b6000818152600260205260408120546001600160a01b0316806102c157604051637e27328960e01b8152600481018490526024016103b7565b61043c8383836001610c29565b6000828152600260205260408120546001600160a01b03908116908316156106fa576106fa818486610d2f565b6001600160a01b0381161561073857610717600085600080610c29565b6001600160a01b038116600090815260036020526040902080546000190190555b6001600160a01b03851615610767576001600160a01b0385166000908152600360205260409020805460010190555b60008481526002602052604080822080546001600160a01b0319166001600160a01b0389811691821790925591518793918516917fddf252ad1be2c89b69c2b068fc378daa952ba7f163c4a11628f55a4df523b3ef91a4949350505050565b61038d828260405180602001604052806000815250610d93565b6006546001600160a01b031633146104d45760405163118cdaa760e01b81523360048201526024016103b7565b600680546001600160a01b038381166001600160a01b0319831681179093556040519116919082907f8be0079c531659141344cd1fd0a4f28419497f9722a3daafe3b4186f6b6457e090600090a35050565b6001600160a01b03821661089157604051630b61174360e31b81526001600160a01b03831660048201526024016103b7565b6001600160a01b03838116600081815260056020908152604080832094871680845294825291829020805460ff191686151590811790915591519182527f17307eab39ab6107e8899845ad3d59bd9653f200f220920489ca2b5937696c31910160405180910390a3505050565b6001600160a01b0383163b1561041b57604051630a85bd0160e11b81526001600160a01b0384169063150b7a029061094090339088908790879060040161155c565b6020604051808303816000875af192505050801561097b575060408051601f3d908101601f1916820190925261097891810190611599565b60015b6109e4573d8080156109a9576040519150601f19603f3d011682016040523d82523d6000602084013e6109ae565b606091505b5080516000036109dc57604051633250574960e11b81526001600160a01b03851660048201526024016103b7565b805181602001fd5b6001600160e01b03198116630a85bd0160e11b14610a2057604051633250574960e11b81526001600160a01b03851660048201526024016103b7565b5050505050565b6060600880546102d690611260565b60606000610a4383610daa565b600101905060008167ffffffffffffffff811115610a6357610a636110a0565b6040519080825280601f01601f191660200182016040528015610a8d576020820181803683370190505b5090508181016020015b600019016f181899199a1a9b1b9c1cb0b131b232b360811b600a86061a8153600a8504945084610a9757509392505050565b60608151600003610ae857505060408051602081019091526000815290565b60006040518060600160405280604081526020016115f56040913990506000600384516002610b1791906115b6565b610b2191906115c9565b610b2c9060046115dd565b67ffffffffffffffff811115610b4457610b446110a0565b6040519080825280601f01601f191660200182016040528015610b6e576020820181803683370190505b50905060018201602082018586518701602081018051600082525b82841015610be4576003840193508351603f8160121c168701518653600186019550603f81600c1c168701518653600186019550603f8160061c168701518653600186019550603f8116870151865350600185019450610b89565b9052505085516003900660018114610c035760028114610c1657610c1e565b603d6001830353603d6002830353610c1e565b603d60018303535b509195945050505050565b8080610c3d57506001600160a01b03821615155b15610cff576000610c4d84610687565b90506001600160a01b03831615801590610c795750826001600160a01b0316816001600160a01b031614155b8015610c8c5750610c8a81846105cb565b155b15610cb55760405163a9fbf51f60e01b81526001600160a01b03841660048201526024016103b7565b8115610cfd5783856001600160a01b0316826001600160a01b03167f8c5be1e5ebec7d5bd14f71427d1e84f3dd0314c0f7b2291e5b200ac8c7c3b92560405160405180910390a45b505b5050600090815260046020526040902080546001600160a01b0319166001600160a01b0392909216919091179055565b610d3a838383610e82565b61043c576001600160a01b038316610d6857604051637e27328960e01b8152600481018290526024016103b7565b60405163177e802f60e01b81526001600160a01b0383166004820152602481018290526044016103b7565b610d9d8383610ee8565b61043c60008484846108fe565b60008072184f03e93ff9f4daa797ed6e38ed64bf6a1f0160401b8310610de95772184f03e93ff9f4daa797ed6e38ed64bf6a1f0160401b830492506040015b6d04ee2d6d415b85acef81000000008310610e15576d04ee2d6d415b85acef8100000000830492506020015b662386f26fc100008310610e3357662386f26fc10000830492506010015b6305f5e1008310610e4b576305f5e100830492506008015b6127108310610e5f57612710830492506004015b60648310610e71576064830492506002015b600a83106102c15760010192915050565b60006001600160a01b03831615801590610ee05750826001600160a01b0316846001600160a01b03161480610ebc5750610ebc84846105cb565b80610ee057506000828152600460205260409020546001600160a01b038481169116145b949350505050565b6001600160a01b038216610f1257604051633250574960e11b8152600060048201526024016103b7565b6000610f20838360006106cd565b90506001600160a01b0381161561043c576040516339e3563760e11b8152600060048201526024016103b7565b6001600160e01b03198116811461063457600080fd5b600060208284031215610f7557600080fd5b8135610f8081610f4d565b9392505050565b60005b83811015610fa2578181015183820152602001610f8a565b50506000910152565b60008151808452610fc3816020860160208601610f87565b601f01601f19169290920160200192915050565b602081526000610f806020830184610fab565b600060208284031215610ffc57600080fd5b5035919050565b80356001600160a01b038116811461101a57600080fd5b919050565b6000806040838503121561103257600080fd5b61103b83611003565b946020939093013593505050565b60008060006060848603121561105e57600080fd5b61106784611003565b925061107560208501611003565b9150604084013590509250925092565b60006020828403121561109757600080fd5b610f8082611003565b634e487b7160e01b600052604160045260246000fd5b600067ffffffffffffffff808411156110d1576110d16110a0565b604051601f8501601f19908116603f011681019082821181831017156110f9576110f96110a0565b8160405280935085815286868601111561111257600080fd5b858560208301376000602087830101525050509392505050565b60006020828403121561113e57600080fd5b813567ffffffffffffffff81111561115557600080fd5b8201601f8101841361116657600080fd5b610ee0848235602084016110b6565b6000806040838503121561118857600080fd5b61119183611003565b9150602083013580151581146111a657600080fd5b809150509250929050565b600080600080608085870312156111c757600080fd5b6111d085611003565b93506111de60208601611003565b925060408501359150606085013567ffffffffffffffff81111561120157600080fd5b8501601f8101871361121257600080fd5b611221878235602084016110b6565b91505092959194509250565b6000806040838503121561124057600080fd5b61124983611003565b915061125760208401611003565b90509250929050565b600181811c9082168061127457607f821691505b60208210810361129457634e487b7160e01b600052602260045260246000fd5b50919050565b634e487b7160e01b600052601160045260246000fd5b6000600182016112c2576112c261129a565b5060010190565b601f82111561043c576000816000526020600020601f850160051c810160208610156112f25750805b601f850160051c820191505b81811015611311578281556001016112fe565b505050505050565b815167ffffffffffffffff811115611333576113336110a0565b611347816113418454611260565b846112c9565b602080601f83116001811461137c57600084156113645750858301515b600019600386901b1c1916600185901b178555611311565b600085815260208120601f198616915b828110156113ab5788860151825594840194600190910190840161138c565b50858210156113c95787850151600019600388901b60f8161c191681555b5050505050600190811b01905550565b634e487b7160e01b600052601260045260246000fd5b6000826113fe576113fe6113d9565b500690565b60008351611415818460208801610f87565b835190830190611429818360208801610f87565b632e706e6760e01b9101908152600401949350505050565b7f7b226e616d65223a20224344482053616d706c6520455243373231202300000081526000845161147981601d850160208901610f87565b7f222c20226465736372697074696f6e223a202254686973206973204344482053601d918401918201526d616d706c6520455243373231202360901b603d82015284516114cd81604b840160208901610f87565b6c1116101134b6b0b3b2911d101160991b604b929091019182015283516114fb816058840160208801610f87565b61227d60f01b60589290910191820152605a0195945050505050565b7f646174613a6170706c69636174696f6e2f6a736f6e3b6261736536342c00000081526000825161154f81601d850160208701610f87565b91909101601d0192915050565b6001600160a01b038581168252841660208201526040810183905260806060820181905260009061158f90830184610fab565b9695505050505050565b6000602082840312156115ab57600080fd5b8151610f8081610f4d565b808201808211156102c1576102c161129a565b6000826115d8576115d86113d9565b500490565b80820281158282048414176102c1576102c161129a56fe4142434445464748494a4b4c4d4e4f505152535455565758595a6162636465666768696a6b6c6d6e6f707172737475767778797a303132333435363738392b2fa26469706673582212202c6495ff9918d56c1f34e37a8d7103c7afd01a39e3205b8ba37b8cc3fe201ba564736f6c63430008190033",
  "devdoc": {
    "errors": {
      "ERC721IncorrectOwner(address,uint256,address)": [
        {
          "details": "Indicates an error related to the ownership over a particular token. Used in transfers.",
          "params": {
            "owner": "Address of the current owner of a token.",
            "sender": "Address whose tokens are being transferred.",
            "tokenId": "Identifier number of a token."
          }
        }
      ],
      "ERC721InsufficientApproval(address,uint256)": [
        {
          "details": "Indicates a failure with the `operator`s approval. Used in transfers.",
          "params": {
            "operator": "Address that may be allowed to operate on tokens without being their owner.",
            "tokenId": "Identifier number of a token."
          }
        }
      ],
      "ERC721InvalidApprover(address)": [
        {
          "details": "Indicates a failure with the `approver` of a token to be approved. Used in approvals.",
          "params": {
            "approver": "Address initiating an approval operation."
          }
        }
      ],
      "ERC721InvalidOperator(address)": [
        {
          "details": "Indicates a failure with the `operator` to be approved. Used in approvals.",
          "params": {
            "operator": "Address that may be allowed to operate on tokens without being their owner."
          }
        }
      ],
      "ERC721InvalidOwner(address)": [
        {
          "details": "Indicates that an address can't be an owner. For example, `address(0)` is a forbidden owner in EIP-20. Used in balance queries.",
          "params": {
            "owner": "Address of the current owner of a token."
          }
        }
      ],
      "ERC721InvalidReceiver(address)": [
        {
          "details": "Indicates a failure with the token `receiver`. Used in transfers.",
          "params": {
            "receiver": "Address to which tokens are being transferred."
          }
        }
      ],
      "ERC721InvalidSender(address)": [
        {
          "details": "Indicates a failure with the token `sender`. Used in transfers.",
          "params": {
            "sender": "Address whose tokens are being transferred."
          }
        }
      ],
      "ERC721NonexistentToken(uint256)": [
        {
          "details": "Indicates a `tokenId` whose `owner` is the zero address.",
          "params": {
            "tokenId": "Identifier number of a token."
          }
        }
      ],
      "OwnableInvalidOwner(address)": [
        {
          "details": "The owner is not a valid owner account. (eg. `address(0)`)"
        }
      ],
      "OwnableUnauthorizedAccount(address)": [
        {
          "details": "The caller account is not authorized to perform an operation."
        }
      ]
    },
    "events": {
      "Approval(address,address,uint256)": {
        "details": "Emitted when `owner` enables `approved` to manage the `tokenId` token."
      },
      "ApprovalForAll(address,address,bool)": {
        "details": "Emitted when `owner` enables or disables (`approved`) `operator` to manage all of its assets."
      },
      "Transfer(address,address,uint256)": {
        "details": "Emitted when `tokenId` token is transferred from `from` to `to`."
      }
    },
    "kind": "dev",
    "methods": {
      "approve(address,uint256)": {
        "details": "See {IERC721-approve}."
      },
      "balanceOf(address)": {
        "details": "See {IERC721-balanceOf}."
      },
      "burn(uint256)": {
        "details": "Burns `tokenId`. See {ERC721-_burn}. Requirements: - The caller must own `tokenId` or be an approved operator."
      },
      "getApproved(uint256)": {
        "details": "See {IERC721-getApproved}."
      },
      "isApprovedForAll(address,address)": {
        "details": "See {IERC721-isApprovedForAll}."
      },
      "name()": {
        "details": "See {IERC721Metadata-name}."
      },
      "owner()": {
        "details": "Returns the address of the current owner."
      },
      "ownerOf(uint256)": {
        "details": "See {IERC721-ownerOf}."
      },
      "renounceOwnership()": {
        "details": "Leaves the contract without owner. It will not be possible to call `onlyOwner` functions. Can only be called by the current owner. NOTE: Renouncing ownership will leave the contract without an owner, thereby disabling any functionality that is only available to the owner."
      },
      "safeTransferFrom(address,address,uint256)": {
        "details": "See {IERC721-safeTransferFrom}."
      },
      "safeTransferFrom(address,address,uint256,bytes)": {
        "details": "See {IERC721-safeTransferFrom}."
      },
      "setApprovalForAll(address,bool)": {
        "details": "See {IERC721-setApprovalForAll}."
      },
      "supportsInterface(bytes4)": {
        "details": "See {IERC165-supportsInterface}."
      },
      "symbol()": {
        "details": "See {IERC721Metadata-symbol}."
      },
      "tokenURI(uint256)": {
        "details": "See {IERC721Metadata-tokenURI}."
      },
      "transferFrom(address,address,uint256)": {
        "details": "See {IERC721-transferFrom}."
      },
      "transferOwnership(address)": {
        "details": "Transfers ownership of the contract to a new account (`newOwner`). Can only be called by the current owner."
      }
    },
    "version": 1
  },
  "userdoc": {
    "kind": "user",
    "methods": {},
    "version": 1
  },
  "storageLayout": {
    "storage": [
      {
        "astId": 2695,
        "contract": "contracts/nft/SampleERC721.sol:SampleERC721",
        "label": "_name",
        "offset": 0,
        "slot": "0",
        "type": "t_string_storage"
      },
      {
        "astId": 2697,
        "contract": "contracts/nft/SampleERC721.sol:SampleERC721",
        "label": "_symbol",
        "offset": 0,
        "slot": "1",
        "type": "t_string_storage"
      },
      {
        "astId": 2701,
        "contract": "contracts/nft/SampleERC721.sol:SampleERC721",
        "label": "_owners",
        "offset": 0,
        "slot": "2",
        "type": "t_mapping(t_uint256,t_address)"
      },
      {
        "astId": 2705,
        "contract": "contracts/nft/SampleERC721.sol:SampleERC721",
        "label": "_balances",
        "offset": 0,
        "slot": "3",
        "type": "t_mapping(t_address,t_uint256)"
      },
      {
        "astId": 2709,
        "contract": "contracts/nft/SampleERC721.sol:SampleERC721",
        "label": "_tokenApprovals",
        "offset": 0,
        "slot": "4",
        "type": "t_mapping(t_uint256,t_address)"
      },
      {
        "astId": 2715,
        "contract": "contracts/nft/SampleERC721.sol:SampleERC721",
        "label": "_operatorApprovals",
        "offset": 0,
        "slot": "5",
        "type": "t_mapping(t_address,t_mapping(t_address,t_bool))"
      },
      {
        "astId": 8,
        "contract": "contracts/nft/SampleERC721.sol:SampleERC721",
        "label": "_owner",
        "offset": 0,
        "slot": "6",
        "type": "t_address"
      },
      {
        "astId": 9318,
        "contract": "contracts/nft/SampleERC721.sol:SampleERC721",
        "label": "_nextTokenId",
        "offset": 0,
        "slot": "7",
        "type": "t_uint256"
      },
      {
        "astId": 9320,
        "contract": "contracts/nft/SampleERC721.sol:SampleERC721",
        "label": "_baseUri",
        "offset": 0,
        "slot": "8",
        "type": "t_string_storage"
      }
    ],
    "types": {
      "t_address": {
        "encoding": "inplace",
        "label": "address",
        "numberOfBytes": "20"
      },
      "t_bool": {
        "encoding": "inplace",
        "label": "bool",
        "numberOfBytes": "1"
      },
      "t_mapping(t_address,t_bool)": {
        "encoding": "mapping",
        "key": "t_address",
        "label": "mapping(address => bool)",
        "numberOfBytes": "32",
        "value": "t_bool"
      },
      "t_mapping(t_address,t_mapping(t_address,t_bool))": {
        "encoding": "mapping",
        "key": "t_address",
        "label": "mapping(address => mapping(address => bool))",
        "numberOfBytes": "32",
        "value": "t_mapping(t_address,t_bool)"
      },
      "t_mapping(t_address,t_uint256)": {
        "encoding": "mapping",
        "key": "t_address",
        "label": "mapping(address => uint256)",
        "numberOfBytes": "32",
        "value": "t_uint256"
      },
      "t_mapping(t_uint256,t_address)": {
        "encoding": "mapping",
        "key": "t_uint256",
        "label": "mapping(uint256 => address)",
        "numberOfBytes": "32",
        "value": "t_address"
      },
      "t_string_storage": {
        "encoding": "bytes",
        "label": "string",
        "numberOfBytes": "32"
      },
      "t_uint256": {
        "encoding": "inplace",
        "label": "uint256",
        "numberOfBytes": "32"
      }
    }
  }
}